00000004202200563010100R00000000392402926974V ROLDAN ALGORA GREGORIA                                 CLMADRID                        21                 Guadalajara                        GUADALAJARA                        19   Guadalajara              ESP                                000000000000000000000000000000000     20220505        202207052022000000000000                    CL/ MADRID, Nº 21                                 Periodo:202201 Consumo:6                                              00000000                     0000000000000000000000000000                                                  
01000004202200563010000RAgua/Domestico 13 (5 Bloq.)                        66100 06610   72710Mant. Contador/Domestico 13                        02400 00504   02904Alcantarillado/Doméstico 13 (5 Bloq.)              54000 05400   59400T.Fijo Agua Cdad./T.Fijo Agua Usuarios Cdad.      135000 13500  148500T.Fijo Alcant. Cdad./T.Fijo Alcant. Usuarios Cda   99000 09900  108900                                                                                                                                                                                                                                              
030100000000066110000000000066                                                                                                                                                                                                                                                                                                                                                                                                                                                                                                                                                                                                      
030200000000002421000000000005                                                                                                                                                                                                                                                                                                                                                                                                                                                                                                                                                                                                      
030300000000054010000000000054                                                                                                                                                                                                                                                                                                                                                                                                                                                                                                                                                                                                      
030300000000135010000000000135                                                                                                                                                                                                                                                                                                                                                                                                                                                                                                                                                                                                      
030300000000099010000000000099                                                                                                                                                                                                                                                                                                                                                                                                                                                                                                                                                                                                      
00000004202200508240100R000000000887B82761289 VISOVAL HISPANIA 2000 CONSTRUC                         CLSAN BERNARDO                  7                  Guadalajara                        GUADALAJARA                        19   Guadalajara              ESP                                000000000000000000000000000000000     20220505        202207052022000000000000                    CL/ SAN BERNARDO, Nº 7                            Periodo:202201 Consumo:0                                              00000000                     0000000000000000000000000000                                                  
01000004202200508240000RAgua/Domestico 13 (5 Bloq.)                        45000 04500   49500Mant. Contador/Domestico 13                        02400 00504   02904Alcantarillado/Doméstico 13 (5 Bloq.)              33000 03300   36300                                                                                                                                                                                                                                                                                                                                                                                          
030100000000045010000000000045                                                                                                                                                                                                                                                                                                                                                                                                                                                                                                                                                                                                      
030200000000002421000000000005                                                                                                                                                                                                                                                                                                                                                                                                                                                                                                                                                                                                      
030300000000033010000000000033                                                                                                                                                                                                                                                                                                                                                                                                                                                                                                                                                                                                      
00000004202200480030100R00000000363309001366V RINCON DEL RIO, PABLO                                  CTCALDERON                      5           01 B   Guadalajara                        GUADALAJARA                        19   Guadalajara              ESP                                000000000000000000000000000000000     20220505        202207052022000000000000                    CT/ CALDERON, Nº 5 , Plt 01 , Pta B               Periodo:202201 Consumo:14                                             00000000                     0000000000000000000000000000                                                  
01000004202200480030000RAgua/Domestico 20 (5 Bloq.)                       169400 16930  186330Mant. Contador/Domestico >13-25                    03300 00693   03993Alcantarillado/Doméstico 20 (5 Bloq.)             157300 15730  173030                                                                                                                                                                                                                                                                                                                                                                                          
030100000000169410000000000169                                                                                                                                                                                                                                                                                                                                                                                                                                                                                                                                                                                                      
030200000000003321000000000007                                                                                                                                                                                                                                                                                                                                                                                                                                                                                                                                                                                                      
030300000000157310000000000157                                                                                                                                                                                                                                                                                                                                                                                                                                                                                                                                                                                                      
00000004202200561460100R00000000088711410595L GOMEZ MOLANO MARTA                                     CLMERCED                        7     A     02 A   Guadalajara                        GUADALAJARA                        19   Guadalajara              ESP                                000000000000000000000000000000000     20220505        202207052022000000000000                    CL/ MERCED, Nº 7, Blq A, Plt 02, Pta A            Periodo:202201 Consumo:0                                              00000000                     0000000000000000000000000000                                                  
01000004202200561460000RAgua/Domestico 13 (5 Bloq.)                        45000 04500   49500Mant. Contador/Domestico 13                        02400 00504   02904Alcantarillado/Doméstico 13 (5 Bloq.)              33000 03300   36300                                                                                                                                                                                                                                                                                                                                                                                          
030100000000045010000000000045                                                                                                                                                                                                                                                                                                                                                                                                                                                                                                                                                                                                      
030200000000002421000000000005                                                                                                                                                                                                                                                                                                                                                                                                                                                                                                                                                                                                      
030300000000033010000000000033                                                                                                                                                                                                                                                                                                                                                                                                                                                                                                                                                                                                      
00000004202200489850100R00000000266351410157M MESIA MARTINEZ, CRISTIAN ALFON                         PZSAN ESTEBAN                   1                  Guadalajara                        GUADALAJARA                        19   Guadalajara              ESP                                000000000000000000000000000000000     20220505        202207052022000000000000                    PZ/ SAN ESTEBAN, Nº 1                             Periodo:202201 Consumo:0                                              00000000                     0000000000000000000000000000                                                  
01000004202200489850000RAgua/Industrial 20 (5 Bloq.)                      127400 12750  140150Mant. Contador/Industrial >13-25                   03300 00693   03993Alcantarillado/Industrial 20 (5 Bloq.)            111000 11100  122100                                                                                                                                                                                                                                                                                                                                                                                          
030100000000127410000000000128                                                                                                                                                                                                                                                                                                                                                                                                                                                                                                                                                                                                      
030200000000003321000000000007                                                                                                                                                                                                                                                                                                                                                                                                                                                                                                                                                                                                      
030300000000111010000000000111                                                                                                                                                                                                                                                                                                                                                                                                                                                                                                                                                                                                      
00000004202200650110100R000000001442B19188226 ABBITA ATOJA INMOBILIARIA SL                           CLSAN ROQUE                     1                  Guadalajara                        GUADALAJARA                        19   Guadalajara              ESP                                000000000000000000000000000000000     20220505        202207052022000000000000                    CL/ SAN ROQUE, Nº 1                               Periodo:202201 Consumo:0                                              00000000                     0000000000000000000000000000                                                  
01000004202200650110000RAgua/Industrial 20 (5 Bloq.)                      127400 12750  140150Mant. Contador/Industrial >13-25                   03300 00693   03993                                                                                                                                                                                                                                                                                                                                                                                                                                                                
030100000000127410000000000128                                                                                                                                                                                                                                                                                                                                                                                                                                                                                                                                                                                                      
030200000000003321000000000007                                                                                                                                                                                                                                                                                                                                                                                                                                                                                                                                                                                                      
00000004202200566850100R00000000360303064989D RIO DEL LUCAS DE RAMON                                 CLJOSE ANTONIO OCHAITA          34                 Guadalajara                        GUADALAJARA                        19   Guadalajara              ESP                                000000000000000000000000000000000     20220505        202207052022000000000000                    CL/ JOSE ANTONIO OCHAITA, Nº 34                   Periodo:202201 Consumo:35                                             00000000                     0000000000000000000000000000                                                  
01000004202200566850000RAgua/Domestico 13 (5 Bloq.)                       169200 16920  186120Mant. Contador/Domestico 13                        02400 00504   02904Alcantarillado/Doméstico 13 (5 Bloq.)             155700 15570  171270                                                                                                                                                                                                                                                                                                                                                                                          
030100000000169210000000000169                                                                                                                                                                                                                                                                                                                                                                                                                                                                                                                                                                                                      
030200000000002421000000000005                                                                                                                                                                                                                                                                                                                                                                                                                                                                                                                                                                                                      
030300000000155710000000000156                                                                                                                                                                                                                                                                                                                                                                                                                                                                                                                                                                                                      
00000004202200502680100R000000000920A19018092 COMPLEJO CONCORDIA SA                                  CLMARIA PACHECO                 58                 Guadalajara                        GUADALAJARA                        19   Guadalajara              ESP                                000000000000000000000000000000000     20220505        202207052022000000000000                    CL/ MARIA PACHECO, Nº 58                          Periodo:202201 Consumo:0                                              00000000                     0000000000000000000000000000                                                  
01000004202200502680000RAgua/Industrial 13 (5 Bloq.)                       42000 04200   46200Mant. Contador/Industrial 13                       02400 00504   02904Alcantarillado/Industrial 13 (5 Bloq.)             39000 03900   42900                                                                                                                                                                                                                                                                                                                                                                                          
030100000000042010000000000042                                                                                                                                                                                                                                                                                                                                                                                                                                                                                                                                                                                                      
030200000000002421000000000005                                                                                                                                                                                                                                                                                                                                                                                                                                                                                                                                                                                                      
030300000000039010000000000039                                                                                                                                                                                                                                                                                                                                                                                                                                                                                                                                                                                                      
00000004202200569910100R00000000189103104778P HERAS VALLADAR MARIA PEÑAHORA                          CLCAM. VIEJO CABANILLAS         28                 Guadalajara                        GUADALAJARA                        19   Guadalajara              ESP                                000000000000000000000000000000000     20220505        202207052022000000000000                    CL/ CAM. VIEJO CABANILLAS, Nº 28                  Periodo:202201 Consumo:13                                             00000000                     0000000000000000000000000000                                                  
01000004202200569910000RAgua/Domestico 13 (5 Bloq.)                        90700 09080   99780Mant. Contador/Domestico 13                        02400 00504   02904Alcantarillado/Doméstico 13 (5 Bloq.)              78500 07850   86350                                                                                                                                                                                                                                                                                                                                                                                          
030100000000090710000000000091                                                                                                                                                                                                                                                                                                                                                                                                                                                                                                                                                                                                      
030200000000002421000000000005                                                                                                                                                                                                                                                                                                                                                                                                                                                                                                                                                                                                      
030300000000078510000000000079                                                                                                                                                                                                                                                                                                                                                                                                                                                                                                                                                                                                      
00000004202200484030100R00000000193203009841S LOPEZ ALONSO, NATIVIDAD                                CLBARDALES                      4           LC     Guadalajara                        GUADALAJARA                        19   Guadalajara              ESP                                000000000000000000000000000000000     20220505        202207052022000000000000                    CL/ BARDALES, Nº 4 , Plt LC                       Periodo:202201 Consumo:10                                             00000000                     0000000000000000000000000000                                                  
01000004202200484030000RAgua/Industrial 13 (5 Bloq.)                       77200 07720   84920Mant. Contador/Industrial 13                       02400 00504   02904Alcantarillado/Industrial 13 (5 Bloq.)             95800 09580  105380                                                                                                                                                                                                                                                                                                                                                                                          
030100000000077210000000000077                                                                                                                                                                                                                                                                                                                                                                                                                                                                                                                                                                                                      
030200000000002421000000000005                                                                                                                                                                                                                                                                                                                                                                                                                                                                                                                                                                                                      
030300000000095810000000000096                                                                                                                                                                                                                                                                                                                                                                                                                                                                                                                                                                                                      
00000004202200484340100R00000000119608992641D BLANCO MORENO MANUEL                                   CLMAYOR                         7           02     Guadalajara                        GUADALAJARA                        19   Guadalajara              ESP                                000000000000000000000000000000000     20220505        202207052022000000000000                    CL/ MAYOR, Nº 7 , Plt 02                          Periodo:202201 Consumo:4                                              00000000                     0000000000000000000000000000                                                  
01000004202200484340000RAgua/Domestico 13 (5 Bloq.)                        59100 05910   65010Mant. Contador/Domestico 13                        02400 00504   02904Alcantarillado/Doméstico 13 (5 Bloq.)              47000 04700   51700                                                                                                                                                                                                                                                                                                                                                                                          
030100000000059110000000000059                                                                                                                                                                                                                                                                                                                                                                                                                                                                                                                                                                                                      
030200000000002421000000000005                                                                                                                                                                                                                                                                                                                                                                                                                                                                                                                                                                                                      
030300000000047010000000000047                                                                                                                                                                                                                                                                                                                                                                                                                                                                                                                                                                                                      
00000004202200594560100R00000000613503106540E MANZANO MERINO DOLORES                                 CLPICO OCEJON                   77                 Guadalajara                        GUADALAJARA                        19   Guadalajara              ESP                                000000000000000000000000000000000     20220505        202207052022000000000000                    CL/ PICO OCEJON, Nº 77                            Periodo:202201 Consumo:46                                             00000000                     0000000000000000000000000000                                                  
01000004202200594560000RAgua/Domestico 20 (5 Bloq.)                       284400 28440  312840Mant. Contador/Domestico >13-25                    03300 00693   03993Alcantarillado/Doméstico 20 (5 Bloq.)             269700 26970  296670                                                                                                                                                                                                                                                                                                                                                                                          
030100000000284410000000000284                                                                                                                                                                                                                                                                                                                                                                                                                                                                                                                                                                                                      
030200000000003321000000000007                                                                                                                                                                                                                                                                                                                                                                                                                                                                                                                                                                                                      
030300000000269710000000000270                                                                                                                                                                                                                                                                                                                                                                                                                                                                                                                                                                                                      
00000004202200522140100R000000000920B88178694 CORAL HOMES S.L.U.                                     CLMIGUEL FLUITERS               41                 Guadalajara                        GUADALAJARA                        19   Guadalajara              ESP                                000000000000000000000000000000000     20220505        202207052022000000000000                    CL/ MIGUEL FLUITERS, Nº 41                        Periodo:202201 Consumo:0                                              00000000                     0000000000000000000000000000                                                  
01000004202200522140000RAgua/Industrial 13 (5 Bloq.)                       42000 04200   46200Mant. Contador/Industrial 13                       02400 00504   02904Alcantarillado/Industrial 13 (5 Bloq.)             39000 03900   42900                                                                                                                                                                                                                                                                                                                                                                                          
030100000000042010000000000042                                                                                                                                                                                                                                                                                                                                                                                                                                                                                                                                                                                                      
030200000000002421000000000005                                                                                                                                                                                                                                                                                                                                                                                                                                                                                                                                                                                                      
030300000000039010000000000039                                                                                                                                                                                                                                                                                                                                                                                                                                                                                                                                                                                                      
00000004202200594580100R00000000526703096834E CASADO MARTINEZ JOSE LUIS                              CLPICO OCEJON                   81                 Guadalajara                        GUADALAJARA                        19   Guadalajara              ESP                                000000000000000000000000000000000     20220505        202207052022000000000000                    CL/ PICO OCEJON, Nº 81                            Periodo:202201 Consumo:35                                             00000000                     0000000000000000000000000000                                                  
01000004202200594580000RAgua/Domestico 20 (5 Bloq.)                       244200 24420  268620Mant. Contador/Domestico >13-25                    03300 00693   03993Alcantarillado/Doméstico 20 (5 Bloq.)             231000 23100  254100                                                                                                                                                                                                                                                                                                                                                                                          
030100000000244210000000000244                                                                                                                                                                                                                                                                                                                                                                                                                                                                                                                                                                                                      
030200000000003321000000000007                                                                                                                                                                                                                                                                                                                                                                                                                                                                                                                                                                                                      
030300000000231010000000000231                                                                                                                                                                                                                                                                                                                                                                                                                                                                                                                                                                                                      
00000004202200521400100R00000000203603079590M ORTEGA NOVA JOSE LUIS                                  CLMIGUEL FLUITERS               22                 Guadalajara                        GUADALAJARA                        19   Guadalajara              ESP                                000000000000000000000000000000000     20220505        202207052022000000000000                    CL/ MIGUEL FLUITERS, Nº 22                        Periodo:202201 Consumo:0                                              00000000                     0000000000000000000000000000                                                  
01000004202200521400000RAgua/Domestico 15 (5 Bloq.)                       100400 10050  110450Mant. Contador/Domestico >13-25                    03300 00693   03993Alcantarillado/Doméstico 15 (5 Bloq.)              81000 08100   89100                                                                                                                                                                                                                                                                                                                                                                                          
030100000000100410000000000101                                                                                                                                                                                                                                                                                                                                                                                                                                                                                                                                                                                                      
030200000000003321000000000007                                                                                                                                                                                                                                                                                                                                                                                                                                                                                                                                                                                                      
030300000000081010000000000081                                                                                                                                                                                                                                                                                                                                                                                                                                                                                                                                                                                                      
00000004202200492240100R000000003752A19152586 PROMOCIONES INMOBILIARIAS RUIZ                         CLARCIPRESTE DE HITA            6           BJ     Guadalajara                        GUADALAJARA                        19   Guadalajara              ESP                                000000000000000000000000000000000     20220505        202207052022000000000000                    CL/ ARCIPRESTE DE HITA, Nº 6 , Plt BJ             Periodo:202201 Consumo:0                                              00000000                     0000000000000000000000000000                                                  
01000004202200492240000RAgua/Domestico 15 (5 Bloq.)                       100400 10050  110450Mant. Contador/Domestico >13-25                    03300 00693   03993Alcantarillado/Doméstico 15 (5 Bloq.)              81000 08100   89100T.Fijo Agua Cdad./T.Fijo Agua Usuarios Cdad.       90000 09000   99000T.Fijo Alcant. Cdad./T.Fijo Alcant. Usuarios Cda   66000 06600   72600                                                                                                                                                                                                                                              
030100000000100410000000000101                                                                                                                                                                                                                                                                                                                                                                                                                                                                                                                                                                                                      
030200000000003321000000000007                                                                                                                                                                                                                                                                                                                                                                                                                                                                                                                                                                                                      
030300000000081010000000000081                                                                                                                                                                                                                                                                                                                                                                                                                                                                                                                                                                                                      
030300000000090010000000000090                                                                                                                                                                                                                                                                                                                                                                                                                                                                                                                                                                                                      
030300000000066010000000000066                                                                                                                                                                                                                                                                                                                                                                                                                                                                                                                                                                                                      
00000004202200648450100R00000000088702999562V BERMEJO VARAS BENEDICTA                                CLDOCTOR SERRANO                6     B     02     Guadalajara                        GUADALAJARA                        19   Guadalajara              ESP                                000000000000000000000000000000000     20220505        202207052022000000000000                    CL/ DOCTOR SERRANO, Nº 6 , Blq B , Plt 02         Periodo:202201 Consumo:0                                              00000000                     0000000000000000000000000000                                                  
01000004202200648450000RAgua/Domestico 13 (5 Bloq.)                        45000 04500   49500Mant. Contador/Domestico 13                        02400 00504   02904Alcantarillado/Doméstico 13 (5 Bloq.)              33000 03300   36300                                                                                                                                                                                                                                                                                                                                                                                          
030100000000045010000000000045                                                                                                                                                                                                                                                                                                                                                                                                                                                                                                                                                                                                      
030200000000002421000000000005                                                                                                                                                                                                                                                                                                                                                                                                                                                                                                                                                                                                      
030300000000033010000000000033                                                                                                                                                                                                                                                                                                                                                                                                                                                                                                                                                                                                      
00000004202200501120100R00000000092003127985P BLANCO ROMERO, ENCARNACION                             CLCARRERA, LA                   51          LC DC  Guadalajara                        GUADALAJARA                        19   Guadalajara              ESP                                000000000000000000000000000000000     20220505        202207052022000000000000                    CL/ CARRERA, LA, Nº 51, Plt LC , Pta DC , ANTES N.Periodo:202201 Consumo:0                                              00000000                     0000000000000000000000000000                                                  
01000004202200501120000RAgua/Industrial 13 (5 Bloq.)                       42000 04200   46200Mant. Contador/Industrial 13                       02400 00504   02904Alcantarillado/Industrial 13 (5 Bloq.)             39000 03900   42900                                                                                                                                                                                                                                                                                                                                                                                          
030100000000042010000000000042                                                                                                                                                                                                                                                                                                                                                                                                                                                                                                                                                                                                      
030200000000002421000000000005                                                                                                                                                                                                                                                                                                                                                                                                                                                                                                                                                                                                      
030300000000039010000000000039                                                                                                                                                                                                                                                                                                                                                                                                                                                                                                                                                                                                      
00000004202200684800100R00000000934303057499V GARCIA DEL VALLE AMPARO                                CLTOLEDO                        13                 Guadalajara                        GUADALAJARA                        19   Guadalajara              ESP                                000000000000000000000000000000000     20220505        202207052022000000000000                    CL/ TOLEDO, Nº 13                                 Periodo:202201 Consumo:66                                             00000000                     0000000000000000000000000000                                                  
01000004202200684800000RAgua/Domestico 40 (5 Bloq.)                       419000 41900  460900Mant. Contador/Domestico >30-40                    06600 01386   07986Alcantarillado/Doméstico 40 (5 Bloq.)             423100 42310  465410                                                                                                                                                                                                                                                                                                                                                                                          
030100000000419010000000000419                                                                                                                                                                                                                                                                                                                                                                                                                                                                                                                                                                                                      
030200000000006621000000000014                                                                                                                                                                                                                                                                                                                                                                                                                                                                                                                                                                                                      
030300000000423110000000000423                                                                                                                                                                                                                                                                                                                                                                                                                                                                                                                                                                                                      
00000004202200396520100R000000000887D00000502 GAMO MARTINEZ VIUDA DE FELIX                           CLCARRETERA DE FONTANAR         5                  Guadalajara                        GUADALAJARA                        19   Guadalajara              ESP                                000000000000000000000000000000000     20220505        202207052022000000000000                    CL/ CARRETERA DE FONTANAR, Nº 5                   Periodo:202201 Consumo:0                                              00000000                     0000000000000000000000000000                                                  
01000004202200396520000RAgua/Domestico 13 (5 Bloq.)                        45000 04500   49500Mant. Contador/Domestico 13                        02400 00504   02904Alcantarillado/Doméstico 13 (5 Bloq.)              33000 03300   36300                                                                                                                                                                                                                                                                                                                                                                                          
030100000000045010000000000045                                                                                                                                                                                                                                                                                                                                                                                                                                                                                                                                                                                                      
030200000000002421000000000005                                                                                                                                                                                                                                                                                                                                                                                                                                                                                                                                                                                                      
030300000000033010000000000033                                                                                                                                                                                                                                                                                                                                                                                                                                                                                                                                                                                                      
00000004202200421780100R00000000796703451181P MENDOZA LATORRE, MARIANO                               CLCAÑAS, LAS                    60                 Guadalajara                        GUADALAJARA                        19   Guadalajara              ESP                                000000000000000000000000000000000     20220505        202207052022000000000000                    CL/ CAÑAS, LAS, Nº 60                             Periodo:202201 Consumo:68                                             00000000                     0000000000000000000000000000                                                  
01000004202200421780000RAgua/Domestico 20 (5 Bloq.)                       372800 37280  410080Mant. Contador/Domestico >13-25                    03300 00693   03993Alcantarillado/Doméstico 20 (5 Bloq.)             347800 34780  382580                                                                                                                                                                                                                                                                                                                                                                                          
030100000000372810000000000373                                                                                                                                                                                                                                                                                                                                                                                                                                                                                                                                                                                                      
030200000000003321000000000007                                                                                                                                                                                                                                                                                                                                                                                                                                                                                                                                                                                                      
030300000000347810000000000348                                                                                                                                                                                                                                                                                                                                                                                                                                                                                                                                                                                                      
00000004202200563720100R00000000088703060836L LOPEZ HERNANDO VICTOR                                  CLFRANCISCO ARITIO              15                 Guadalajara                        GUADALAJARA                        19   Guadalajara              ESP                                000000000000000000000000000000000     20220505        202207052022000000000000                    CL/ FRANCISCO ARITIO, Nº 15                       Periodo:202201 Consumo:0                                              00000000                     0000000000000000000000000000                                                  
01000004202200563720000RAgua/Domestico 13 (5 Bloq.)                        45000 04500   49500Mant. Contador/Domestico 13                        02400 00504   02904Alcantarillado/Doméstico 13 (5 Bloq.)              33000 03300   36300                                                                                                                                                                                                                                                                                                                                                                                          
030100000000045010000000000045                                                                                                                                                                                                                                                                                                                                                                                                                                                                                                                                                                                                      
030200000000002421000000000005                                                                                                                                                                                                                                                                                                                                                                                                                                                                                                                                                                                                      
030300000000033010000000000033                                                                                                                                                                                                                                                                                                                                                                                                                                                                                                                                                                                                      
00000004202200376920100R00000000420051870687Y CLEMENTE BRAVO EMILIA MARGARIT                         CLBARCA, LA                     3           04 C   Guadalajara                        GUADALAJARA                        19   Guadalajara              ESP                                000000000000000000000000000000000     20220505        202207052022000000000000                    CL/ BARCA, LA, Nº 3 , Plt 04 , Pta C              Periodo:202201 Consumo:28                                             00000000                     0000000000000000000000000000                                                  
01000004202200376920000RAgua/Domestico 15 (5 Bloq.)                       199200 19920  219120Mant. Contador/Domestico >13-25                    03300 00693   03993Alcantarillado/Doméstico 15 (5 Bloq.)             179000 17900  196900                                                                                                                                                                                                                                                                                                                                                                                          
030100000000199210000000000199                                                                                                                                                                                                                                                                                                                                                                                                                                                                                                                                                                                                      
030200000000003321000000000007                                                                                                                                                                                                                                                                                                                                                                                                                                                                                                                                                                                                      
030300000000179010000000000179                                                                                                                                                                                                                                                                                                                                                                                                                                                                                                                                                                                                      
00000004202200506980100R00000000250803074078J PEREZ GARCIA MARIA CONCEPCION                          CLTORREON DEL ALAMIN            3                  Guadalajara                        GUADALAJARA                        19   Guadalajara              ESP                                000000000000000000000000000000000     20220505        202207052022000000000000                    CL/ TORREON DEL ALAMIN, Nº 3                      Periodo:202201 Consumo:21                                             00000000                     0000000000000000000000000000                                                  
01000004202200506980000RAgua/Domestico 13 (5 Bloq.)                       118800 11890  130690Mant. Contador/Domestico 13                        02400 00504   02904Alcantarillado/Doméstico 13 (5 Bloq.)             106500 10650  117150                                                                                                                                                                                                                                                                                                                                                                                          
030100000000118810000000000119                                                                                                                                                                                                                                                                                                                                                                                                                                                                                                                                                                                                      
030200000000002421000000000005                                                                                                                                                                                                                                                                                                                                                                                                                                                                                                                                                                                                      
030300000000106510000000000107                                                                                                                                                                                                                                                                                                                                                                                                                                                                                                                                                                                                      
00000004202200394170100R00000000407603109305G AYUSO APARICIO CARLOS                                  CLSORIA                         5           04 14  Guadalajara                        GUADALAJARA                        19   Guadalajara              ESP                                000000000000000000000000000000000     20220505        202207052022000000000000                    CL/ SORIA, Nº 5 , Plt 04 , Pta 14                 Periodo:202201 Consumo:41                                             00000000                     0000000000000000000000000000                                                  
01000004202200394170000RAgua/Domestico 13 (5 Bloq.)                       191100 19110  210210Mant. Contador/Domestico 13                        02400 00504   02904Alcantarillado/Doméstico 13 (5 Bloq.)             176800 17680  194480                                                                                                                                                                                                                                                                                                                                                                                          
030100000000191110000000000191                                                                                                                                                                                                                                                                                                                                                                                                                                                                                                                                                                                                      
030200000000002421000000000005                                                                                                                                                                                                                                                                                                                                                                                                                                                                                                                                                                                                      
030300000000176810000000000177                                                                                                                                                                                                                                                                                                                                                                                                                                                                                                                                                                                                      
00000004202200367910100R00000000342703126523H POVES REY CARLOS                                       AVSALINERA                      6     M     04 B   Guadalajara                        GUADALAJARA                        19   Guadalajara              ESP                                000000000000000000000000000000000     20220505        202207052022000000000000                    AV/ SALINERA, Nº 6 , Blq M , Plt 04 , Pta B       Periodo:202201 Consumo:18                                             00000000                     0000000000000000000000000000                                                  
01000004202200367910000RAgua/Domestico 15 (5 Bloq.)                       163900 16390  180290Mant. Contador/Domestico >13-25                    03300 00693   03993Alcantarillado/Doméstico 15 (5 Bloq.)             144000 14400  158400                                                                                                                                                                                                                                                                                                                                                                                          
030100000000163910000000000164                                                                                                                                                                                                                                                                                                                                                                                                                                                                                                                                                                                                      
030200000000003321000000000007                                                                                                                                                                                                                                                                                                                                                                                                                                                                                                                                                                                                      
030300000000144010000000000144                                                                                                                                                                                                                                                                                                                                                                                                                                                                                                                                                                                                      
00000004202200379570100R00000000304103099379Z SANCHEZ ARROYO JAIME                                   AVALCORLO                       8           01 A   Guadalajara                        GUADALAJARA                        19   Guadalajara              ESP                                000000000000000000000000000000000     20220505        202207052022000000000000                    AV/ ALCORLO, Nº 8, Plt 01, Pta A                  Periodo:202201 Consumo:13                                             00000000                     0000000000000000000000000000                                                  
01000004202200379570000RAgua/Domestico 15 (5 Bloq.)                       146300 14630  160930Mant. Contador/Domestico >13-25                    03300 00693   03993Alcantarillado/Doméstico 15 (5 Bloq.)             126500 12650  139150                                                                                                                                                                                                                                                                                                                                                                                          
030100000000146310000000000146                                                                                                                                                                                                                                                                                                                                                                                                                                                                                                                                                                                                      
030200000000003321000000000007                                                                                                                                                                                                                                                                                                                                                                                                                                                                                                                                                                                                      
030300000000126510000000000127                                                                                                                                                                                                                                                                                                                                                                                                                                                                                                                                                                                                      
00000004202200367580100R00000000498903103285X REDONDO SOLIS MIGUEL ANGEL                             AVSALINERA                      6     J     01 B   Guadalajara                        GUADALAJARA                        19   Guadalajara              ESP                                000000000000000000000000000000000     20220505        202207052022000000000000                    AV/ SALINERA, Nº 6 , Blq J , Plt 01 , Pta B       Periodo:202201 Consumo:38                                             00000000                     0000000000000000000000000000                                                  
01000004202200367580000RAgua/Domestico 15 (5 Bloq.)                       235700 23570  259270Mant. Contador/Domestico >13-25                    03300 00693   03993Alcantarillado/Doméstico 15 (5 Bloq.)             214200 21420  235620                                                                                                                                                                                                                                                                                                                                                                                          
030100000000235710000000000236                                                                                                                                                                                                                                                                                                                                                                                                                                                                                                                                                                                                      
030200000000003321000000000007                                                                                                                                                                                                                                                                                                                                                                                                                                                                                                                                                                                                      
030300000000214210000000000214                                                                                                                                                                                                                                                                                                                                                                                                                                                                                                                                                                                                      
00000004202200377640100R00000000203602987811L HERRANZ MEDA BASILIO                                   AVATANCE                        11          04 C   Guadalajara                        GUADALAJARA                        19   Guadalajara              ESP                                000000000000000000000000000000000     20220505        202207052022000000000000                    AV/ ATANCE, Nº 11 , Plt 04 , Pta C                Periodo:202201 Consumo:0                                              00000000                     0000000000000000000000000000                                                  
01000004202200377640000RAgua/Domestico 15 (5 Bloq.)                       100400 10050  110450Mant. Contador/Domestico >13-25                    03300 00693   03993Alcantarillado/Doméstico 15 (5 Bloq.)              81000 08100   89100                                                                                                                                                                                                                                                                                                                                                                                          
030100000000100410000000000101                                                                                                                                                                                                                                                                                                                                                                                                                                                                                                                                                                                                      
030200000000003321000000000007                                                                                                                                                                                                                                                                                                                                                                                                                                                                                                                                                                                                      
030300000000081010000000000081                                                                                                                                                                                                                                                                                                                                                                                                                                                                                                                                                                                                      
00000004202200678080100R00000000165903082362V LLORENTE GUIJARRO MARIA SONIA                          CLDOCTOR ASUERO                 1           01 DC  Guadalajara                        GUADALAJARA                        19   Guadalajara              ESP                                000000000000000000000000000000000     20220505        202207052022000000000000                    CL/ DOCTOR ASUERO, Nº 1 , Plt 01 , Pta DC         Periodo:202201 Consumo:10                                             00000000                     0000000000000000000000000000                                                  
01000004202200678080000RAgua/Domestico 13 (5 Bloq.)                        80200 08020   88220Mant. Contador/Domestico 13                        02400 00504   02904Alcantarillado/Doméstico 13 (5 Bloq.)              68000 06800   74800                                                                                                                                                                                                                                                                                                                                                                                          
030100000000080210000000000080                                                                                                                                                                                                                                                                                                                                                                                                                                                                                                                                                                                                      
030200000000002421000000000005                                                                                                                                                                                                                                                                                                                                                                                                                                                                                                                                                                                                      
030300000000068010000000000068                                                                                                                                                                                                                                                                                                                                                                                                                                                                                                                                                                                                      
00000004202200500490100R00000000328702923925G LANDEIRA LOZANO FELIX                                  CLGUTIERREZ OREJON              3                  Guadalajara                        GUADALAJARA                        19   Guadalajara              ESP                                000000000000000000000000000000000     20220505        202207052022000000000000                    CL/ GUTIERREZ OREJON, Nº 3                        Periodo:202201 Consumo:31                                             00000000                     0000000000000000000000000000                                                  
01000004202200500490000RAgua/Domestico 13 (5 Bloq.)                       154500 15460  169960Mant. Contador/Domestico 13                        02400 00504   02904Alcantarillado/Doméstico 13 (5 Bloq.)             141600 14160  155760                                                                                                                                                                                                                                                                                                                                                                                          
030100000000154510000000000155                                                                                                                                                                                                                                                                                                                                                                                                                                                                                                                                                                                                      
030200000000002421000000000005                                                                                                                                                                                                                                                                                                                                                                                                                                                                                                                                                                                                      
030300000000141610000000000142                                                                                                                                                                                                                                                                                                                                                                                                                                                                                                                                                                                                      
00000004202200523780100R00000000111903084164W VERDE RUBIO JOSE LUIS                                  CLFRANCISCO QUEVEDO             6           03     Guadalajara                        GUADALAJARA                        19   Guadalajara              ESP                                000000000000000000000000000000000     20220505        202207052022000000000000                    CL/ FRANCISCO QUEVEDO, Nº 6 , Plt 03              Periodo:202201 Consumo:3                                              00000000                     0000000000000000000000000000                                                  
01000004202200523780000RAgua/Domestico 13 (5 Bloq.)                        55500 05560   61060Mant. Contador/Domestico 13                        02400 00504   02904Alcantarillado/Doméstico 13 (5 Bloq.)              43500 04350   47850                                                                                                                                                                                                                                                                                                                                                                                          
030100000000055510000000000056                                                                                                                                                                                                                                                                                                                                                                                                                                                                                                                                                                                                      
030200000000002421000000000005                                                                                                                                                                                                                                                                                                                                                                                                                                                                                                                                                                                                      
030300000000043510000000000044                                                                                                                                                                                                                                                                                                                                                                                                                                                                                                                                                                                                      
