00000004202200917450200R00000000407902926974V ROLDAN ALGORA GREGORIA                                 CLMADRID                        21                 Guadalajara                        GUADALAJARA                        19   Guadalajara              ESP                                000000000000000000000000000000000     20220805        202210052022000000000000                    CL/ MADRID, Nº 21                                 Periodo:202202 Consumo:8                                              00000000                     0000000000000000000000000000                                                  
01000004202200917450000RAgua/Domestico 13 (5 Bloq.)                        73200 07320   80520Mant. Contador/Domestico 13                        02400 00504   02904Alcantarillado/Doméstico 13 (5 Bloq.)              61000 06100   67100T.Fijo Agua Cdad./T.Fijo Agua Usuarios Cdad.      135000 13500  148500T.Fijo Alcant. Cdad./T.Fijo Alcant. Usuarios Cda   99000 09900  108900                                                                                                                                                                                                                                              
030100000000073210000000000073                                                                                                                                                                                                                                                                                                                                                                                                                                                                                                                                                                                                      
030200000000002421000000000005                                                                                                                                                                                                                                                                                                                                                                                                                                                                                                                                                                                                      
030300000000061010000000000061                                                                                                                                                                                                                                                                                                                                                                                                                                                                                                                                                                                                      
030300000000135010000000000135                                                                                                                                                                                                                                                                                                                                                                                                                                                                                                                                                                                                      
030300000000099010000000000099                                                                                                                                                                                                                                                                                                                                                                                                                                                                                                                                                                                                      
00000004202200862770200R000000000887B82761289 VISOVAL HISPANIA 2000 CONSTRUC                         CLSAN BERNARDO                  7                  Guadalajara                        GUADALAJARA                        19   Guadalajara              ESP                                000000000000000000000000000000000     20220805        202210052022000000000000                    CL/ SAN BERNARDO, Nº 7                            Periodo:202202 Consumo:0                                              00000000                     0000000000000000000000000000                                                  
01000004202200862770000RAgua/Domestico 13 (5 Bloq.)                        45000 04500   49500Mant. Contador/Domestico 13                        02400 00504   02904Alcantarillado/Doméstico 13 (5 Bloq.)              33000 03300   36300                                                                                                                                                                                                                                                                                                                                                                                          
030100000000045010000000000045                                                                                                                                                                                                                                                                                                                                                                                                                                                                                                                                                                                                      
030200000000002421000000000005                                                                                                                                                                                                                                                                                                                                                                                                                                                                                                                                                                                                      
030300000000033010000000000033                                                                                                                                                                                                                                                                                                                                                                                                                                                                                                                                                                                                      
00000004202200834410200R00000000363309001366V RINCON DEL RIO, PABLO                                  CTCALDERON                      5           01 B   Guadalajara                        GUADALAJARA                        19   Guadalajara              ESP                                000000000000000000000000000000000     20220805        202210052022000000000000                    CT/ CALDERON, Nº 5 , Plt 01 , Pta B               Periodo:202202 Consumo:14                                             00000000                     0000000000000000000000000000                                                  
01000004202200834410000RAgua/Domestico 20 (5 Bloq.)                       169400 16930  186330Mant. Contador/Domestico >13-25                    03300 00693   03993Alcantarillado/Doméstico 20 (5 Bloq.)             157300 15730  173030                                                                                                                                                                                                                                                                                                                                                                                          
030100000000169410000000000169                                                                                                                                                                                                                                                                                                                                                                                                                                                                                                                                                                                                      
030200000000003321000000000007                                                                                                                                                                                                                                                                                                                                                                                                                                                                                                                                                                                                      
030300000000157310000000000157                                                                                                                                                                                                                                                                                                                                                                                                                                                                                                                                                                                                      
00000004202200915900200R00000000088711410595L GOMEZ MOLANO MARTA                                     CLMERCED                        7     A     02 A   Guadalajara                        GUADALAJARA                        19   Guadalajara              ESP                                000000000000000000000000000000000     20220805        202210052022000000000000                    CL/ MERCED, Nº 7, Blq A, Plt 02, Pta A            Periodo:202202 Consumo:0                                              00000000                     0000000000000000000000000000                                                  
01000004202200915900000RAgua/Domestico 13 (5 Bloq.)                        45000 04500   49500Mant. Contador/Domestico 13                        02400 00504   02904Alcantarillado/Doméstico 13 (5 Bloq.)              33000 03300   36300                                                                                                                                                                                                                                                                                                                                                                                          
030100000000045010000000000045                                                                                                                                                                                                                                                                                                                                                                                                                                                                                                                                                                                                      
030200000000002421000000000005                                                                                                                                                                                                                                                                                                                                                                                                                                                                                                                                                                                                      
030300000000033010000000000033                                                                                                                                                                                                                                                                                                                                                                                                                                                                                                                                                                                                      
00000004202200844330200R00000000266351410157M MESIA MARTINEZ, CRISTIAN ALFON                         PZSAN ESTEBAN                   1                  Guadalajara                        GUADALAJARA                        19   Guadalajara              ESP                                000000000000000000000000000000000     20220805        202210052022000000000000                    PZ/ SAN ESTEBAN, Nº 1                             Periodo:202202 Consumo:0                                              00000000                     0000000000000000000000000000                                                  
01000004202200844330000RAgua/Industrial 20 (5 Bloq.)                      127400 12750  140150Mant. Contador/Industrial >13-25                   03300 00693   03993Alcantarillado/Industrial 20 (5 Bloq.)            111000 11100  122100                                                                                                                                                                                                                                                                                                                                                                                          
030100000000127410000000000128                                                                                                                                                                                                                                                                                                                                                                                                                                                                                                                                                                                                      
030200000000003321000000000007                                                                                                                                                                                                                                                                                                                                                                                                                                                                                                                                                                                                      
030300000000111010000000000111                                                                                                                                                                                                                                                                                                                                                                                                                                                                                                                                                                                                      
00000004202201004740200R000000001442B19188226 ABBITA ATOJA INMOBILIARIA SL                           CLSAN ROQUE                     1                  Guadalajara                        GUADALAJARA                        19   Guadalajara              ESP                                000000000000000000000000000000000     20220805        202210052022000000000000                    CL/ SAN ROQUE, Nº 1                               Periodo:202202 Consumo:0                                              00000000                     0000000000000000000000000000                                                  
01000004202201004740000RAgua/Industrial 20 (5 Bloq.)                      127400 12750  140150Mant. Contador/Industrial >13-25                   03300 00693   03993                                                                                                                                                                                                                                                                                                                                                                                                                                                                
030100000000127410000000000128                                                                                                                                                                                                                                                                                                                                                                                                                                                                                                                                                                                                      
030200000000003321000000000007                                                                                                                                                                                                                                                                                                                                                                                                                                                                                                                                                                                                      
00000004202200921290200R00000000165903064989D RIO DEL LUCAS DE RAMON                                 CLJOSE ANTONIO OCHAITA          34                 Guadalajara                        GUADALAJARA                        19   Guadalajara              ESP                                000000000000000000000000000000000     20220805        202210052022000000000000                    CL/ JOSE ANTONIO OCHAITA, Nº 34                   Periodo:202202 Consumo:10                                             00000000                     0000000000000000000000000000                                                  
01000004202200921290000RAgua/Domestico 13 (5 Bloq.)                        80200 08020   88220Mant. Contador/Domestico 13                        02400 00504   02904Alcantarillado/Doméstico 13 (5 Bloq.)              68000 06800   74800                                                                                                                                                                                                                                                                                                                                                                                          
030100000000080210000000000080                                                                                                                                                                                                                                                                                                                                                                                                                                                                                                                                                                                                      
030200000000002421000000000005                                                                                                                                                                                                                                                                                                                                                                                                                                                                                                                                                                                                      
030300000000068010000000000068                                                                                                                                                                                                                                                                                                                                                                                                                                                                                                                                                                                                      
00000004202200857190200R000000000920A19018092 COMPLEJO CONCORDIA SA                                  CLMARIA PACHECO                 58                 Guadalajara                        GUADALAJARA                        19   Guadalajara              ESP                                000000000000000000000000000000000     20220805        202210052022000000000000                    CL/ MARIA PACHECO, Nº 58                          Periodo:202202 Consumo:0                                              00000000                     0000000000000000000000000000                                                  
01000004202200857190000RAgua/Industrial 13 (5 Bloq.)                       42000 04200   46200Mant. Contador/Industrial 13                       02400 00504   02904Alcantarillado/Industrial 13 (5 Bloq.)             39000 03900   42900                                                                                                                                                                                                                                                                                                                                                                                          
030100000000042010000000000042                                                                                                                                                                                                                                                                                                                                                                                                                                                                                                                                                                                                      
030200000000002421000000000005                                                                                                                                                                                                                                                                                                                                                                                                                                                                                                                                                                                                      
030300000000039010000000000039                                                                                                                                                                                                                                                                                                                                                                                                                                                                                                                                                                                                      
00000004202200924340200R00000000181303104778P HERAS VALLADAR MARIA PEÑAHORA                          CLCAM. VIEJO CABANILLAS         28                 Guadalajara                        GUADALAJARA                        19   Guadalajara              ESP                                000000000000000000000000000000000     20220805        202210052022000000000000                    CL/ CAM. VIEJO CABANILLAS, Nº 28                  Periodo:202202 Consumo:12                                             00000000                     0000000000000000000000000000                                                  
01000004202200924340000RAgua/Domestico 13 (5 Bloq.)                        87200 08720   95920Mant. Contador/Domestico 13                        02400 00504   02904Alcantarillado/Doméstico 13 (5 Bloq.)              75000 07500   82500                                                                                                                                                                                                                                                                                                                                                                                          
030100000000087210000000000087                                                                                                                                                                                                                                                                                                                                                                                                                                                                                                                                                                                                      
030200000000002421000000000005                                                                                                                                                                                                                                                                                                                                                                                                                                                                                                                                                                                                      
030300000000075010000000000075                                                                                                                                                                                                                                                                                                                                                                                                                                                                                                                                                                                                      
00000004202200838490200R00000000122403009841S LOPEZ ALONSO, NATIVIDAD                                CLBARDALES                      4           LC     Guadalajara                        GUADALAJARA                        19   Guadalajara              ESP                                000000000000000000000000000000000     20220805        202210052022000000000000                    CL/ BARDALES, Nº 4 , Plt LC                       Periodo:202202 Consumo:3                                              00000000                     0000000000000000000000000000                                                  
01000004202200838490000RAgua/Industrial 13 (5 Bloq.)                       52600 05260   57860Mant. Contador/Industrial 13                       02400 00504   02904Alcantarillado/Industrial 13 (5 Bloq.)             56000 05600   61600                                                                                                                                                                                                                                                                                                                                                                                          
030100000000052610000000000053                                                                                                                                                                                                                                                                                                                                                                                                                                                                                                                                                                                                      
030200000000002421000000000005                                                                                                                                                                                                                                                                                                                                                                                                                                                                                                                                                                                                      
030300000000056010000000000056                                                                                                                                                                                                                                                                                                                                                                                                                                                                                                                                                                                                      
00000004202200838800200R00000000142708992641D BLANCO MORENO MANUEL                                   CLMAYOR                         7           02     Guadalajara                        GUADALAJARA                        19   Guadalajara              ESP                                000000000000000000000000000000000     20220805        202210052022000000000000                    CL/ MAYOR, Nº 7 , Plt 02                          Periodo:202202 Consumo:7                                              00000000                     0000000000000000000000000000                                                  
01000004202200838800000RAgua/Domestico 13 (5 Bloq.)                        69500 06960   76460Mant. Contador/Domestico 13                        02400 00504   02904Alcantarillado/Doméstico 13 (5 Bloq.)              57500 05750   63250                                                                                                                                                                                                                                                                                                                                                                                          
030100000000069510000000000070                                                                                                                                                                                                                                                                                                                                                                                                                                                                                                                                                                                                      
030200000000002421000000000005                                                                                                                                                                                                                                                                                                                                                                                                                                                                                                                                                                                                      
030300000000057510000000000058                                                                                                                                                                                                                                                                                                                                                                                                                                                                                                                                                                                                      
00000004202200949030200R00000000581903106540E MANZANO MERINO DOLORES                                 CLPICO OCEJON                   77                 Guadalajara                        GUADALAJARA                        19   Guadalajara              ESP                                000000000000000000000000000000000     20220805        202210052022000000000000                    CL/ PICO OCEJON, Nº 77                            Periodo:202202 Consumo:42                                             00000000                     0000000000000000000000000000                                                  
01000004202200949030000RAgua/Domestico 20 (5 Bloq.)                       269700 26980  296680Mant. Contador/Domestico >13-25                    03300 00693   03993Alcantarillado/Doméstico 20 (5 Bloq.)             255600 25560  281160                                                                                                                                                                                                                                                                                                                                                                                          
030100000000269710000000000270                                                                                                                                                                                                                                                                                                                                                                                                                                                                                                                                                                                                      
030200000000003321000000000007                                                                                                                                                                                                                                                                                                                                                                                                                                                                                                                                                                                                      
030300000000255610000000000256                                                                                                                                                                                                                                                                                                                                                                                                                                                                                                                                                                                                      
00000004202200876630200R000000002944B88178694 CORAL HOMES S.L.U.                                     CLMIGUEL FLUITERS               41                 Guadalajara                        GUADALAJARA                        19   Guadalajara              ESP                                000000000000000000000000000000000     20220805        202210052022000000000000                    CL/ MIGUEL FLUITERS, Nº 41                        Periodo:202202 Consumo:20                                             00000000                     0000000000000000000000000000                                                  
01000004202200876630000RAgua/Industrial 13 (5 Bloq.)                      112400 11240  123640Mant. Contador/Industrial 13                       02400 00504   02904Alcantarillado/Industrial 13 (5 Bloq.)            152600 15260  167860                                                                                                                                                                                                                                                                                                                                                                                          
030100000000112410000000000112                                                                                                                                                                                                                                                                                                                                                                                                                                                                                                                                                                                                      
030200000000002421000000000005                                                                                                                                                                                                                                                                                                                                                                                                                                                                                                                                                                                                      
030300000000152610000000000153                                                                                                                                                                                                                                                                                                                                                                                                                                                                                                                                                                                                      
00000004202200949050200R00000000409603096834E CASADO MARTINEZ JOSE LUIS                              CLPICO OCEJON                   81                 Guadalajara                        GUADALAJARA                        19   Guadalajara              ESP                                000000000000000000000000000000000     20220805        202210052022000000000000                    CL/ PICO OCEJON, Nº 81                            Periodo:202202 Consumo:20                                             00000000                     0000000000000000000000000000                                                  
01000004202200949050000RAgua/Domestico 20 (5 Bloq.)                       190500 19040  209540Mant. Contador/Domestico >13-25                    03300 00693   03993Alcantarillado/Doméstico 20 (5 Bloq.)             178300 17830  196130                                                                                                                                                                                                                                                                                                                                                                                          
030100000000190510000000000190                                                                                                                                                                                                                                                                                                                                                                                                                                                                                                                                                                                                      
030200000000003321000000000007                                                                                                                                                                                                                                                                                                                                                                                                                                                                                                                                                                                                      
030300000000178310000000000178                                                                                                                                                                                                                                                                                                                                                                                                                                                                                                                                                                                                      
00000004202200875900200R00000000203603079590M ORTEGA NOVA JOSE LUIS                                  CLMIGUEL FLUITERS               22                 Guadalajara                        GUADALAJARA                        19   Guadalajara              ESP                                000000000000000000000000000000000     20220805        202210052022000000000000                    CL/ MIGUEL FLUITERS, Nº 22                        Periodo:202202 Consumo:0                                              00000000                     0000000000000000000000000000                                                  
01000004202200875900000RAgua/Domestico 15 (5 Bloq.)                       100400 10050  110450Mant. Contador/Domestico >13-25                    03300 00693   03993Alcantarillado/Doméstico 15 (5 Bloq.)              81000 08100   89100                                                                                                                                                                                                                                                                                                                                                                                          
030100000000100410000000000101                                                                                                                                                                                                                                                                                                                                                                                                                                                                                                                                                                                                      
030200000000003321000000000007                                                                                                                                                                                                                                                                                                                                                                                                                                                                                                                                                                                                      
030300000000081010000000000081                                                                                                                                                                                                                                                                                                                                                                                                                                                                                                                                                                                                      
00000004202200846710200R000000004139A19152586 PROMOCIONES INMOBILIARIAS RUIZ                         CLARCIPRESTE DE HITA            6           BJ     Guadalajara                        GUADALAJARA                        19   Guadalajara              ESP                                000000000000000000000000000000000     20220805        202210052022000000000000                    CL/ ARCIPRESTE DE HITA, Nº 6 , Plt BJ             Periodo:202202 Consumo:5                                              00000000                     0000000000000000000000000000                                                  
01000004202200846710000RAgua/Domestico 15 (5 Bloq.)                       118100 11810  129910Mant. Contador/Domestico >13-25                    03300 00693   03993Alcantarillado/Doméstico 15 (5 Bloq.)              98500 09850  108350T.Fijo Agua Cdad./T.Fijo Agua Usuarios Cdad.       90000 09000   99000T.Fijo Alcant. Cdad./T.Fijo Alcant. Usuarios Cda   66000 06600   72600                                                                                                                                                                                                                                              
030100000000118110000000000118                                                                                                                                                                                                                                                                                                                                                                                                                                                                                                                                                                                                      
030200000000003321000000000007                                                                                                                                                                                                                                                                                                                                                                                                                                                                                                                                                                                                      
030300000000098510000000000099                                                                                                                                                                                                                                                                                                                                                                                                                                                                                                                                                                                                      
030300000000090010000000000090                                                                                                                                                                                                                                                                                                                                                                                                                                                                                                                                                                                                      
030300000000066010000000000066                                                                                                                                                                                                                                                                                                                                                                                                                                                                                                                                                                                                      
00000004202201003070200R00000000127302999562V BERMEJO VARAS BENEDICTA                                CLDOCTOR SERRANO                6     B     02     Guadalajara                        GUADALAJARA                        19   Guadalajara              ESP                                000000000000000000000000000000000     20220805        202210052022000000000000                    CL/ DOCTOR SERRANO, Nº 6 , Blq B , Plt 02         Periodo:202202 Consumo:5                                              00000000                     0000000000000000000000000000                                                  
01000004202201003070000RAgua/Domestico 13 (5 Bloq.)                        62500 06260   68760Mant. Contador/Domestico 13                        02400 00504   02904Alcantarillado/Doméstico 13 (5 Bloq.)              50500 05050   55550                                                                                                                                                                                                                                                                                                                                                                                          
030100000000062510000000000063                                                                                                                                                                                                                                                                                                                                                                                                                                                                                                                                                                                                      
030200000000002421000000000005                                                                                                                                                                                                                                                                                                                                                                                                                                                                                                                                                                                                      
030300000000050510000000000051                                                                                                                                                                                                                                                                                                                                                                                                                                                                                                                                                                                                      
00000004202200855630200R00000000092003127985P BLANCO ROMERO, ENCARNACION                             CLCARRERA, LA                   51          LC DC  Guadalajara                        GUADALAJARA                        19   Guadalajara              ESP                                000000000000000000000000000000000     20220805        202210052022000000000000                    CL/ CARRERA, LA, Nº 51, Plt LC , Pta DC , ANTES N.Periodo:202202 Consumo:0                                              00000000                     0000000000000000000000000000                                                  
01000004202200855630000RAgua/Industrial 13 (5 Bloq.)                       42000 04200   46200Mant. Contador/Industrial 13                       02400 00504   02904Alcantarillado/Industrial 13 (5 Bloq.)             39000 03900   42900                                                                                                                                                                                                                                                                                                                                                                                          
030100000000042010000000000042                                                                                                                                                                                                                                                                                                                                                                                                                                                                                                                                                                                                      
030200000000002421000000000005                                                                                                                                                                                                                                                                                                                                                                                                                                                                                                                                                                                                      
030300000000039010000000000039                                                                                                                                                                                                                                                                                                                                                                                                                                                                                                                                                                                                      
00000004202201039440200R00000001356003057499V GARCIA DEL VALLE AMPARO                                CLTOLEDO                        13                 Guadalajara                        GUADALAJARA                        19   Guadalajara              ESP                                000000000000000000000000000000000     20220805        202210052022000000000000                    CL/ TOLEDO, Nº 13                                 Periodo:202202 Consumo:111                                            00000000                     0000000000000000000000000000                                                  
01000004202201039440000RAgua/Domestico 40 (5 Bloq.)                       637800 63790  701590Mant. Contador/Domestico >30-40                    06600 01386   07986Alcantarillado/Doméstico 40 (5 Bloq.)             587600 58760  646360                                                                                                                                                                                                                                                                                                                                                                                          
030100000000637810000000000638                                                                                                                                                                                                                                                                                                                                                                                                                                                                                                                                                                                                      
030200000000006621000000000014                                                                                                                                                                                                                                                                                                                                                                                                                                                                                                                                                                                                      
030300000000587610000000000588                                                                                                                                                                                                                                                                                                                                                                                                                                                                                                                                                                                                      
00000004202200750600200R000000000887D00000502 GAMO MARTINEZ VIUDA DE FELIX                           CLCARRETERA DE FONTANAR         5                  Guadalajara                        GUADALAJARA                        19   Guadalajara              ESP                                000000000000000000000000000000000     20220805        202210052022000000000000                    CL/ CARRETERA DE FONTANAR, Nº 5                   Periodo:202202 Consumo:0                                              00000000                     0000000000000000000000000000                                                  
01000004202200750600000RAgua/Domestico 13 (5 Bloq.)                        45000 04500   49500Mant. Contador/Domestico 13                        02400 00504   02904Alcantarillado/Doméstico 13 (5 Bloq.)              33000 03300   36300                                                                                                                                                                                                                                                                                                                                                                                          
030100000000045010000000000045                                                                                                                                                                                                                                                                                                                                                                                                                                                                                                                                                                                                      
030200000000002421000000000005                                                                                                                                                                                                                                                                                                                                                                                                                                                                                                                                                                                                      
030300000000033010000000000033                                                                                                                                                                                                                                                                                                                                                                                                                                                                                                                                                                                                      
00000004202200775870200R00000000742103451181P MENDOZA LATORRE, MARIANO                               CLCAÑAS, LAS                    60                 Guadalajara                        GUADALAJARA                        19   Guadalajara              ESP                                000000000000000000000000000000000     20220805        202210052022000000000000                    CL/ CAÑAS, LAS, Nº 60                             Periodo:202202 Consumo:62                                             00000000                     0000000000000000000000000000                                                  
01000004202200775870000RAgua/Domestico 20 (5 Bloq.)                       344800 34480  379280Mant. Contador/Domestico >13-25                    03300 00693   03993Alcantarillado/Doméstico 20 (5 Bloq.)             326200 32620  358820                                                                                                                                                                                                                                                                                                                                                                                          
030100000000344810000000000345                                                                                                                                                                                                                                                                                                                                                                                                                                                                                                                                                                                                      
030200000000003321000000000007                                                                                                                                                                                                                                                                                                                                                                                                                                                                                                                                                                                                      
030300000000326210000000000326                                                                                                                                                                                                                                                                                                                                                                                                                                                                                                                                                                                                      
00000004202200827420200R00000000193203057752V DOMINGUEZ GAMO, ALBERTO BRIGID                         CLINGENIERO MARIÑO              25                 Guadalajara                        GUADALAJARA                        19   Guadalajara              ESP                                000000000000000000000000000000000     20220805        202210052022000000000000                    CL/ INGENIERO MARIÑO, Nº 25                       Periodo:202202 Consumo:10                                             00000000                     0000000000000000000000000000                                                  
01000004202200827420000RAgua/Industrial 13 (5 Bloq.)                       77200 07720   84920Mant. Contador/Industrial 13                       02400 00504   02904Alcantarillado/Industrial 13 (5 Bloq.)             95800 09580  105380                                                                                                                                                                                                                                                                                                                                                                                          
030100000000077210000000000077                                                                                                                                                                                                                                                                                                                                                                                                                                                                                                                                                                                                      
030200000000002421000000000005                                                                                                                                                                                                                                                                                                                                                                                                                                                                                                                                                                                                      
030300000000095810000000000096                                                                                                                                                                                                                                                                                                                                                                                                                                                                                                                                                                                                      
00000004202200918160200R00000000127303060836L LOPEZ HERNANDO VICTOR                                  CLFRANCISCO ARITIO              15                 Guadalajara                        GUADALAJARA                        19   Guadalajara              ESP                                000000000000000000000000000000000     20220805        202210052022000000000000                    CL/ FRANCISCO ARITIO, Nº 15                       Periodo:202202 Consumo:5                                              00000000                     0000000000000000000000000000                                                  
01000004202200918160000RAgua/Domestico 13 (5 Bloq.)                        62500 06260   68760Mant. Contador/Domestico 13                        02400 00504   02904Alcantarillado/Doméstico 13 (5 Bloq.)              50500 05050   55550                                                                                                                                                                                                                                                                                                                                                                                          
030100000000062510000000000063                                                                                                                                                                                                                                                                                                                                                                                                                                                                                                                                                                                                      
030200000000002421000000000005                                                                                                                                                                                                                                                                                                                                                                                                                                                                                                                                                                                                      
030300000000050510000000000051                                                                                                                                                                                                                                                                                                                                                                                                                                                                                                                                                                                                      
00000004202200730990200R00000000427851870687Y CLEMENTE BRAVO EMILIA MARGARIT                         CLBARCA, LA                     3           04 C   Guadalajara                        GUADALAJARA                        19   Guadalajara              ESP                                000000000000000000000000000000000     20220805        202210052022000000000000                    CL/ BARCA, LA, Nº 3 , Plt 04 , Pta C              Periodo:202202 Consumo:29                                             00000000                     0000000000000000000000000000                                                  
01000004202200730990000RAgua/Domestico 15 (5 Bloq.)                       202700 20280  222980Mant. Contador/Domestico >13-25                    03300 00693   03993Alcantarillado/Doméstico 15 (5 Bloq.)             182500 18250  200750                                                                                                                                                                                                                                                                                                                                                                                          
030100000000202710000000000203                                                                                                                                                                                                                                                                                                                                                                                                                                                                                                                                                                                                      
030200000000003321000000000007                                                                                                                                                                                                                                                                                                                                                                                                                                                                                                                                                                                                      
030300000000182510000000000183                                                                                                                                                                                                                                                                                                                                                                                                                                                                                                                                                                                                      
00000004202200861500200R00000000088703074078J PEREZ GARCIA MARIA CONCEPCION                          CLTORREON DEL ALAMIN            3                  Guadalajara                        GUADALAJARA                        19   Guadalajara              ESP                                000000000000000000000000000000000     20220805        202210052022000000000000                    CL/ TORREON DEL ALAMIN, Nº 3                      Periodo:202202 Consumo:0                                              00000000                     0000000000000000000000000000                                                  
01000004202200861500000RAgua/Domestico 13 (5 Bloq.)                        45000 04500   49500Mant. Contador/Domestico 13                        02400 00504   02904Alcantarillado/Doméstico 13 (5 Bloq.)              33000 03300   36300                                                                                                                                                                                                                                                                                                                                                                                          
030100000000045010000000000045                                                                                                                                                                                                                                                                                                                                                                                                                                                                                                                                                                                                      
030200000000002421000000000005                                                                                                                                                                                                                                                                                                                                                                                                                                                                                                                                                                                                      
030300000000033010000000000033                                                                                                                                                                                                                                                                                                                                                                                                                                                                                                                                                                                                      
00000004202200748220200R00000000150503109305G AYUSO APARICIO CARLOS                                  CLSORIA                         5           04 14  Guadalajara                        GUADALAJARA                        19   Guadalajara              ESP                                000000000000000000000000000000000     20220805        202210052022000000000000                    CL/ SORIA, Nº 5 , Plt 04 , Pta 14                 Periodo:202202 Consumo:8                                              00000000                     0000000000000000000000000000                                                  
01000004202200748220000RAgua/Domestico 13 (5 Bloq.)                        73200 07320   80520Mant. Contador/Domestico 13                        02400 00504   02904Alcantarillado/Doméstico 13 (5 Bloq.)              61000 06100   67100                                                                                                                                                                                                                                                                                                                                                                                          
030100000000073210000000000073                                                                                                                                                                                                                                                                                                                                                                                                                                                                                                                                                                                                      
030200000000002421000000000005                                                                                                                                                                                                                                                                                                                                                                                                                                                                                                                                                                                                      
030300000000061010000000000061                                                                                                                                                                                                                                                                                                                                                                                                                                                                                                                                                                                                      
00000004202200721950200R00000000365803126523H POVES REY CARLOS                                       AVSALINERA                      6     M     04 B   Guadalajara                        GUADALAJARA                        19   Guadalajara              ESP                                000000000000000000000000000000000     20220805        202210052022000000000000                    AV/ SALINERA, Nº 6 , Blq M , Plt 04 , Pta B       Periodo:202202 Consumo:21                                             00000000                     0000000000000000000000000000                                                  
01000004202200721950000RAgua/Domestico 15 (5 Bloq.)                       174400 17440  191840Mant. Contador/Domestico >13-25                    03300 00693   03993Alcantarillado/Doméstico 15 (5 Bloq.)             154500 15450  169950                                                                                                                                                                                                                                                                                                                                                                                          
030100000000174410000000000174                                                                                                                                                                                                                                                                                                                                                                                                                                                                                                                                                                                                      
030200000000003321000000000007                                                                                                                                                                                                                                                                                                                                                                                                                                                                                                                                                                                                      
030300000000154510000000000155                                                                                                                                                                                                                                                                                                                                                                                                                                                                                                                                                                                                      
00000004202200733630200R00000000319503099379Z SANCHEZ ARROYO JAIME                                   AVALCORLO                       8           01 A   Guadalajara                        GUADALAJARA                        19   Guadalajara              ESP                                000000000000000000000000000000000     20220805        202210052022000000000000                    AV/ ALCORLO, Nº 8, Plt 01, Pta A                  Periodo:202202 Consumo:15                                             00000000                     0000000000000000000000000000                                                  
01000004202200733630000RAgua/Domestico 15 (5 Bloq.)                       153300 15330  168630Mant. Contador/Domestico >13-25                    03300 00693   03993Alcantarillado/Doméstico 15 (5 Bloq.)             133500 13350  146850                                                                                                                                                                                                                                                                                                                                                                                          
030100000000153310000000000153                                                                                                                                                                                                                                                                                                                                                                                                                                                                                                                                                                                                      
030200000000003321000000000007                                                                                                                                                                                                                                                                                                                                                                                                                                                                                                                                                                                                      
030300000000133510000000000134                                                                                                                                                                                                                                                                                                                                                                                                                                                                                                                                                                                                      
00000004202200744280200R00000000165909018818N HUALDA SANCHEZ ALBERTO                                 CLZAMORA                        1           01 34  Guadalajara                        GUADALAJARA                        19   Guadalajara              ESP                                000000000000000000000000000000000     20220805        202210052022000000000000                    CL/ ZAMORA, Nº 1 , Plt 01 , Pta 34                Periodo:202202 Consumo:10                                             00000000                     0000000000000000000000000000                                                  
01000004202200744280000RAgua/Domestico 13 (5 Bloq.)                        80200 08020   88220Mant. Contador/Domestico 13                        02400 00504   02904Alcantarillado/Doméstico 13 (5 Bloq.)              68000 06800   74800                                                                                                                                                                                                                                                                                                                                                                                          
030100000000080210000000000080                                                                                                                                                                                                                                                                                                                                                                                                                                                                                                                                                                                                      
030200000000002421000000000005                                                                                                                                                                                                                                                                                                                                                                                                                                                                                                                                                                                                      
030300000000068010000000000068                                                                                                                                                                                                                                                                                                                                                                                                                                                                                                                                                                                                      
00000004202200721620200R00000000412103103285X REDONDO SOLIS MIGUEL ANGEL                             AVSALINERA                      6     J     01 B   Guadalajara                        GUADALAJARA                        19   Guadalajara              ESP                                000000000000000000000000000000000     20220805        202210052022000000000000                    AV/ SALINERA, Nº 6 , Blq J , Plt 01 , Pta B       Periodo:202202 Consumo:27                                             00000000                     0000000000000000000000000000                                                  
01000004202200721620000RAgua/Domestico 15 (5 Bloq.)                       195400 19550  214950Mant. Contador/Domestico >13-25                    03300 00693   03993Alcantarillado/Doméstico 15 (5 Bloq.)             175500 17550  193050                                                                                                                                                                                                                                                                                                                                                                                          
030100000000195410000000000196                                                                                                                                                                                                                                                                                                                                                                                                                                                                                                                                                                                                      
030200000000003321000000000007                                                                                                                                                                                                                                                                                                                                                                                                                                                                                                                                                                                                      
030300000000175510000000000176                                                                                                                                                                                                                                                                                                                                                                                                                                                                                                                                                                                                      
00000004202200731700200R00000000242302987811L HERRANZ MEDA BASILIO                                   AVATANCE                        11          04 C   Guadalajara                        GUADALAJARA                        19   Guadalajara              ESP                                000000000000000000000000000000000     20220805        202210052022000000000000                    AV/ ATANCE, Nº 11 , Plt 04 , Pta C                Periodo:202202 Consumo:5                                              00000000                     0000000000000000000000000000                                                  
01000004202200731700000RAgua/Domestico 15 (5 Bloq.)                       118100 11810  129910Mant. Contador/Domestico >13-25                    03300 00693   03993Alcantarillado/Doméstico 15 (5 Bloq.)              98500 09850  108350                                                                                                                                                                                                                                                                                                                                                                                          
030100000000118110000000000118                                                                                                                                                                                                                                                                                                                                                                                                                                                                                                                                                                                                      
030200000000003321000000000007                                                                                                                                                                                                                                                                                                                                                                                                                                                                                                                                                                                                      
030300000000098510000000000099                                                                                                                                                                                                                                                                                                                                                                                                                                                                                                                                                                                                      
00000004202200719870200R00000000574003103368R CABALLERO GOMEZ, DIMAS                                 CLBOBADILLA                     26                 Guadalajara                        GUADALAJARA                        19   Guadalajara              ESP                                000000000000000000000000000000000     20220805        202210052022000000000000                    CL/ BOBADILLA, Nº 26                              Periodo:202202 Consumo:41                                             00000000                     0000000000000000000000000000                                                  
01000004202200719870000RAgua/Domestico 20 (5 Bloq.)                       266100 26610  292710Mant. Contador/Domestico >13-25                    03300 00693   03993Alcantarillado/Doméstico 20 (5 Bloq.)             252100 25210  277310                                                                                                                                                                                                                                                                                                                                                                                          
030100000000266110000000000266                                                                                                                                                                                                                                                                                                                                                                                                                                                                                                                                                                                                      
030200000000003321000000000007                                                                                                                                                                                                                                                                                                                                                                                                                                                                                                                                                                                                      
030300000000252110000000000252                                                                                                                                                                                                                                                                                                                                                                                                                                                                                                                                                                                                      
