00000004200900083450300R000000000722DE000531  RAMIREZ HEREDEROS DE ESTEBAN                           CLALFONSO LOPEZ HARO            12                 Guadalajara                        GUADALAJARA                        19   Guadalajara              ESP                                000000000000000000000000000000000     20100211        201006082010000000000000                    CL/ ALFONSO LOPEZ HARO, Nº 12                     Periodo:200903 Consumo:0                                              00000000                     0000000000000000000000000000                                                  
01000004200900083450000RAgua/Domestico 13                                  29600 02100   31700Mant. Contador/Domestico 13                        03200 00500   03700Alcantarillado/Domestico 13                        34400 02400   36800                                                                                                                                                                                                                                                                                                                                                                                          
030100000000029607000000000021                                                                                                                                                                                                                                                                                                                                                                                                                                                                                                                                                                                                      
030200000000003216000000000005                                                                                                                                                                                                                                                                                                                                                                                                                                                                                                                                                                                                      
030300000000034407000000000024                                                                                                                                                                                                                                                                                                                                                                                                                                                                                                                                                                                                      
00000004201202292160100R00000000076802926974V ROLDAN ALGORA GREGORIA                                 CLMADRID                        21                 Guadalajara                        GUADALAJARA                        19   Guadalajara              ESP                                000000000000000000000000000000000     20120602        201208062012000000000000                    CL/ MADRID, Nº 21                                 Periodo:201201 Consumo:0                                              00000000                     0000000000000000000000000000                                                  
01000004201202292160000RAgua/Domestico 13                                  31200 02500   33700Mant. Contador/Domestico 13                        03200 00600   03800Alcantarillado/Domestico 13                        36400 02900   39300                                                                                                                                                                                                                                                                                                                                                                                          
030100000000031208000000000025                                                                                                                                                                                                                                                                                                                                                                                                                                                                                                                                                                                                      
030200000000003218000000000006                                                                                                                                                                                                                                                                                                                                                                                                                                                                                                                                                                                                      
030300000000036408000000000029                                                                                                                                                                                                                                                                                                                                                                                                                                                                                                                                                                                                      
00000004201202610130200R00000000078202926974V ROLDAN ALGORA GREGORIA                                 CLMADRID                        21                 Guadalajara                        GUADALAJARA                        19   Guadalajara              ESP                                000000000000000000000000000000000     20121015        201212202012000000000000                    CL/ MADRID, Nº 21                                 Periodo:201202 Consumo:0                                              00000000                     0000000000000000000000000000                                                  
01000004201202610130000RAgua/Domestico 13                                  31200 03100   34300Mant. Contador/Domestico 13                        03200 00700   03900Alcantarillado/Domestico 13                        36400 03600   40000                                                                                                                                                                                                                                                                                                                                                                                          
030100000000031210000000000031                                                                                                                                                                                                                                                                                                                                                                                                                                                                                                                                                                                                      
030200000000003221000000000007                                                                                                                                                                                                                                                                                                                                                                                                                                                                                                                                                                                                      
030300000000036410000000000036                                                                                                                                                                                                                                                                                                                                                                                                                                                                                                                                                                                                      
00000004201202859890300R00000000078202926974V ROLDAN ALGORA GREGORIA                                 CLMADRID                        21                 Guadalajara                        GUADALAJARA                        19   Guadalajara              ESP                                000000000000000000000000000000000     20130119        201303252013000000000000                    CL/ MADRID, Nº 21                                 Periodo:201203 Consumo:0                                              00000000                     0000000000000000000000000000                                                  
01000004201202859890000RAgua/Domestico 13                                  31200 03100   34300Mant. Contador/Domestico 13                        03200 00700   03900Alcantarillado/Domestico 13                        36400 03600   40000                                                                                                                                                                                                                                                                                                                                                                                          
030100000000031210000000000031                                                                                                                                                                                                                                                                                                                                                                                                                                                                                                                                                                                                      
030200000000003221000000000007                                                                                                                                                                                                                                                                                                                                                                                                                                                                                                                                                                                                      
030300000000036410000000000036                                                                                                                                                                                                                                                                                                                                                                                                                                                                                                                                                                                                      
00000004201900199850400R00000000423302926974V ROLDAN ALGORA GREGORIA                                 CLMADRID                        21                 Guadalajara                        GUADALAJARA                        19   Guadalajara              ESP                                000000000000000000000000000000000     20200110        202003202020000000000000                    CL/ MADRID, Nº 21                                 Periodo:201904 Consumo:10                                             00000000                     0000000000000000000000000000                                                  
01000004201900199850000RMant. Contador/Domestico 13                        02400 00504   02904T.Fijo Agua Cdad./T.Fijo Agua Usuarios Cdad.      135000 13500  148500T.Fijo Alcant. Cdad./T.Fijo Alcant. Usuarios Cda   99000 09900  108900Agua/Domestico 13 (5 Bloq.)                        80200 08020   88220Alcantarillado/Doméstico 13 (5 Bloq.)              68000 06800   74800                                                                                                                                                                                                                                              
030200000000002421000000000005                                                                                                                                                                                                                                                                                                                                                                                                                                                                                                                                                                                                      
030300000000135010000000000135                                                                                                                                                                                                                                                                                                                                                                                                                                                                                                                                                                                                      
030300000000099010000000000099                                                                                                                                                                                                                                                                                                                                                                                                                                                                                                                                                                                                      
030100000000080210000000000080                                                                                                                                                                                                                                                                                                                                                                                                                                                                                                                                                                                                      
030300000000068010000000000068                                                                                                                                                                                                                                                                                                                                                                                                                                                                                                                                                                                                      
00000004202000546220100R00000000346102926974V ROLDAN ALGORA GREGORIA                                 CLMADRID                        21                 Guadalajara                        GUADALAJARA                        19   Guadalajara              ESP                                000000000000000000000000000000000     20200407        202007062020000000000000                    CL/ MADRID, Nº 21                                 Periodo:202001 Consumo:0                                              00000000                     0000000000000000000000000000                                                  
01000004202000546220000RMant. Contador/Domestico 13                        02400 00504   02904T.Fijo Agua Cdad./T.Fijo Agua Usuarios Cdad.      135000 13500  148500T.Fijo Alcant. Cdad./T.Fijo Alcant. Usuarios Cda   99000 09900  108900Agua/Domestico 13 (5 Bloq.)                        45000 04500   49500Alcantarillado/Doméstico 13 (5 Bloq.)              33000 03300   36300                                                                                                                                                                                                                                              
030200000000002421000000000005                                                                                                                                                                                                                                                                                                                                                                                                                                                                                                                                                                                                      
030300000000135010000000000135                                                                                                                                                                                                                                                                                                                                                                                                                                                                                                                                                                                                      
030300000000099010000000000099                                                                                                                                                                                                                                                                                                                                                                                                                                                                                                                                                                                                      
030100000000045010000000000045                                                                                                                                                                                                                                                                                                                                                                                                                                                                                                                                                                                                      
030300000000033010000000000033                                                                                                                                                                                                                                                                                                                                                                                                                                                                                                                                                                                                      
00000004202000892850200R00000000346102926974V ROLDAN ALGORA GREGORIA                                 CLMADRID                        21                 Guadalajara                        GUADALAJARA                        19   Guadalajara              ESP                                000000000000000000000000000000000     20200709        202010052020000000000000                    CL/ MADRID, Nº 21                                 Periodo:202002 Consumo:0                                              00000000                     0000000000000000000000000000                                                  
01000004202000892850000RMant. Contador/Domestico 13                        02400 00504   02904T.Fijo Agua Cdad./T.Fijo Agua Usuarios Cdad.      135000 13500  148500T.Fijo Alcant. Cdad./T.Fijo Alcant. Usuarios Cda   99000 09900  108900Agua/Domestico 13 (5 Bloq.)                        45000 04500   49500Alcantarillado/Doméstico 13 (5 Bloq.)              33000 03300   36300                                                                                                                                                                                                                                              
030200000000002421000000000005                                                                                                                                                                                                                                                                                                                                                                                                                                                                                                                                                                                                      
030300000000135010000000000135                                                                                                                                                                                                                                                                                                                                                                                                                                                                                                                                                                                                      
030300000000099010000000000099                                                                                                                                                                                                                                                                                                                                                                                                                                                                                                                                                                                                      
030100000000045010000000000045                                                                                                                                                                                                                                                                                                                                                                                                                                                                                                                                                                                                      
030300000000033010000000000033                                                                                                                                                                                                                                                                                                                                                                                                                                                                                                                                                                                                      
00000004202001240690300R00000000423302926974V ROLDAN ALGORA GREGORIA                                 CLMADRID                        21                 Guadalajara                        GUADALAJARA                        19   Guadalajara              ESP                                000000000000000000000000000000000     20201008        202101052020000000000000                    CL/ MADRID, Nº 21                                 Periodo:202003 Consumo:10                                             00000000                     0000000000000000000000000000                                                  
01000004202001240690000RMant. Contador/Domestico 13                        02400 00504   02904T.Fijo Agua Cdad./T.Fijo Agua Usuarios Cdad.      135000 13500  148500T.Fijo Alcant. Cdad./T.Fijo Alcant. Usuarios Cda   99000 09900  108900Agua/Domestico 13 (5 Bloq.)                        80200 08020   88220Alcantarillado/Doméstico 13 (5 Bloq.)              68000 06800   74800                                                                                                                                                                                                                                              
030200000000002421000000000005                                                                                                                                                                                                                                                                                                                                                                                                                                                                                                                                                                                                      
030300000000135010000000000135                                                                                                                                                                                                                                                                                                                                                                                                                                                                                                                                                                                                      
030300000000099010000000000099                                                                                                                                                                                                                                                                                                                                                                                                                                                                                                                                                                                                      
030100000000080210000000000080                                                                                                                                                                                                                                                                                                                                                                                                                                                                                                                                                                                                      
030300000000068010000000000068                                                                                                                                                                                                                                                                                                                                                                                                                                                                                                                                                                                                      
00000004202000205360400R00000000423302926974V ROLDAN ALGORA GREGORIA                                 CLMADRID                        21                 Guadalajara                        GUADALAJARA                        19   Guadalajara              ESP                                000000000000000000000000000000000     20210111        202104052021000000000000                    CL/ MADRID, Nº 21                                 Periodo:202004 Consumo:10                                             00000000                     0000000000000000000000000000                                                  
01000004202000205360000RMant. Contador/Domestico 13                        02400 00504   02904T.Fijo Agua Cdad./T.Fijo Agua Usuarios Cdad.      135000 13500  148500T.Fijo Alcant. Cdad./T.Fijo Alcant. Usuarios Cda   99000 09900  108900Agua/Domestico 13 (5 Bloq.)                        80200 08020   88220Alcantarillado/Doméstico 13 (5 Bloq.)              68000 06800   74800                                                                                                                                                                                                                                              
030200000000002421000000000005                                                                                                                                                                                                                                                                                                                                                                                                                                                                                                                                                                                                      
030300000000135010000000000135                                                                                                                                                                                                                                                                                                                                                                                                                                                                                                                                                                                                      
030300000000099010000000000099                                                                                                                                                                                                                                                                                                                                                                                                                                                                                                                                                                                                      
030100000000080210000000000080                                                                                                                                                                                                                                                                                                                                                                                                                                                                                                                                                                                                      
030300000000068010000000000068                                                                                                                                                                                                                                                                                                                                                                                                                                                                                                                                                                                                      
00000004202100555110100R00000000346102926974V ROLDAN ALGORA GREGORIA                                 CLMADRID                        21                 Guadalajara                        GUADALAJARA                        19   Guadalajara              ESP                                000000000000000000000000000000000     20210409        202107052021000000000000                    CL/ MADRID, Nº 21                                 Periodo:202101 Consumo:0                                              00000000                     0000000000000000000000000000                                                  
01000004202100555110000RMant. Contador/Domestico 13                        02400 00504   02904T.Fijo Agua Cdad./T.Fijo Agua Usuarios Cdad.      135000 13500  148500T.Fijo Alcant. Cdad./T.Fijo Alcant. Usuarios Cda   99000 09900  108900Agua/Domestico 13 (5 Bloq.)                        45000 04500   49500Alcantarillado/Doméstico 13 (5 Bloq.)              33000 03300   36300                                                                                                                                                                                                                                              
030200000000002421000000000005                                                                                                                                                                                                                                                                                                                                                                                                                                                                                                                                                                                                      
030300000000135010000000000135                                                                                                                                                                                                                                                                                                                                                                                                                                                                                                                                                                                                      
030300000000099010000000000099                                                                                                                                                                                                                                                                                                                                                                                                                                                                                                                                                                                                      
030100000000045010000000000045                                                                                                                                                                                                                                                                                                                                                                                                                                                                                                                                                                                                      
030300000000033010000000000033                                                                                                                                                                                                                                                                                                                                                                                                                                                                                                                                                                                                      
00000004202100906050200R00000000346102926974V ROLDAN ALGORA GREGORIA                                 CLMADRID                        21                 Guadalajara                        GUADALAJARA                        19   Guadalajara              ESP                                000000000000000000000000000000000     20210708        202110052021000000000000                    CL/ MADRID, Nº 21                                 Periodo:202102 Consumo:0                                              00000000                     0000000000000000000000000000                                                  
01000004202100906050000RAgua/Domestico 13 (5 Bloq.)                        45000 04500   49500Mant. Contador/Domestico 13                        02400 00504   02904Alcantarillado/Doméstico 13 (5 Bloq.)              33000 03300   36300T.Fijo Agua Cdad./T.Fijo Agua Usuarios Cdad.      135000 13500  148500T.Fijo Alcant. Cdad./T.Fijo Alcant. Usuarios Cda   99000 09900  108900                                                                                                                                                                                                                                              
030100000000045010000000000045                                                                                                                                                                                                                                                                                                                                                                                                                                                                                                                                                                                                      
030200000000002421000000000005                                                                                                                                                                                                                                                                                                                                                                                                                                                                                                                                                                                                      
030300000000033010000000000033                                                                                                                                                                                                                                                                                                                                                                                                                                                                                                                                                                                                      
030300000000135010000000000135                                                                                                                                                                                                                                                                                                                                                                                                                                                                                                                                                                                                      
030300000000099010000000000099                                                                                                                                                                                                                                                                                                                                                                                                                                                                                                                                                                                                      
00000004202101257260300R00000000423302926974V ROLDAN ALGORA GREGORIA                                 CLMADRID                        21                 Guadalajara                        GUADALAJARA                        19   Guadalajara              ESP                                000000000000000000000000000000000     20211013        202201052021000000000000                    CL/ MADRID, Nº 21                                 Periodo:202103 Consumo:10                                             00000000                     0000000000000000000000000000                                                  
01000004202101257260000RAgua/Domestico 13 (5 Bloq.)                        80200 08020   88220Mant. Contador/Domestico 13                        02400 00504   02904Alcantarillado/Doméstico 13 (5 Bloq.)              68000 06800   74800T.Fijo Agua Cdad./T.Fijo Agua Usuarios Cdad.      135000 13500  148500T.Fijo Alcant. Cdad./T.Fijo Alcant. Usuarios Cda   99000 09900  108900                                                                                                                                                                                                                                              
030100000000080210000000000080                                                                                                                                                                                                                                                                                                                                                                                                                                                                                                                                                                                                      
030200000000002421000000000005                                                                                                                                                                                                                                                                                                                                                                                                                                                                                                                                                                                                      
030300000000068010000000000068                                                                                                                                                                                                                                                                                                                                                                                                                                                                                                                                                                                                      
030300000000135010000000000135                                                                                                                                                                                                                                                                                                                                                                                                                                                                                                                                                                                                      
030300000000099010000000000099                                                                                                                                                                                                                                                                                                                                                                                                                                                                                                                                                                                                      
00000004202100208830400R00000000423302926974V ROLDAN ALGORA GREGORIA                                 CLMADRID                        21                 Guadalajara                        GUADALAJARA                        19   Guadalajara              ESP                                000000000000000000000000000000000     20220118        202204072022000000000000                    CL/ MADRID, Nº 21                                 Periodo:202104 Consumo:10                                             00000000                     0000000000000000000000000000                                                  
01000004202100208830000RAgua/Domestico 13 (5 Bloq.)                        80200 08020   88220Mant. Contador/Domestico 13                        02400 00504   02904Alcantarillado/Doméstico 13 (5 Bloq.)              68000 06800   74800T.Fijo Agua Cdad./T.Fijo Agua Usuarios Cdad.      135000 13500  148500T.Fijo Alcant. Cdad./T.Fijo Alcant. Usuarios Cda   99000 09900  108900                                                                                                                                                                                                                                              
030100000000080210000000000080                                                                                                                                                                                                                                                                                                                                                                                                                                                                                                                                                                                                      
030200000000002421000000000005                                                                                                                                                                                                                                                                                                                                                                                                                                                                                                                                                                                                      
030300000000068010000000000068                                                                                                                                                                                                                                                                                                                                                                                                                                                                                                                                                                                                      
030300000000135010000000000135                                                                                                                                                                                                                                                                                                                                                                                                                                                                                                                                                                                                      
030300000000099010000000000099                                                                                                                                                                                                                                                                                                                                                                                                                                                                                                                                                                                                      
00000004202200563010100R00000000392402926974V ROLDAN ALGORA GREGORIA                                 CLMADRID                        21                 Guadalajara                        GUADALAJARA                        19   Guadalajara              ESP                                000000000000000000000000000000000     20220412        202207052022000000000000                    CL/ MADRID, Nº 21                                 Periodo:202201 Consumo:6                                              00000000                     0000000000000000000000000000                                                  
01000004202200563010000RAgua/Domestico 13 (5 Bloq.)                        66100 06610   72710Mant. Contador/Domestico 13                        02400 00504   02904Alcantarillado/Doméstico 13 (5 Bloq.)              54000 05400   59400T.Fijo Agua Cdad./T.Fijo Agua Usuarios Cdad.      135000 13500  148500T.Fijo Alcant. Cdad./T.Fijo Alcant. Usuarios Cda   99000 09900  108900                                                                                                                                                                                                                                              
030100000000066110000000000066                                                                                                                                                                                                                                                                                                                                                                                                                                                                                                                                                                                                      
030200000000002421000000000005                                                                                                                                                                                                                                                                                                                                                                                                                                                                                                                                                                                                      
030300000000054010000000000054                                                                                                                                                                                                                                                                                                                                                                                                                                                                                                                                                                                                      
030300000000135010000000000135                                                                                                                                                                                                                                                                                                                                                                                                                                                                                                                                                                                                      
030300000000099010000000000099                                                                                                                                                                                                                                                                                                                                                                                                                                                                                                                                                                                                      
00000004202200917450200R00000000407902926974V ROLDAN ALGORA GREGORIA                                 CLMADRID                        21                 Guadalajara                        GUADALAJARA                        19   Guadalajara              ESP                                000000000000000000000000000000000     20220708        202210052022000000000000                    CL/ MADRID, Nº 21                                 Periodo:202202 Consumo:8                                              00000000                     0000000000000000000000000000                                                  
01000004202200917450000RAgua/Domestico 13 (5 Bloq.)                        73200 07320   80520Mant. Contador/Domestico 13                        02400 00504   02904Alcantarillado/Doméstico 13 (5 Bloq.)              61000 06100   67100T.Fijo Agua Cdad./T.Fijo Agua Usuarios Cdad.      135000 13500  148500T.Fijo Alcant. Cdad./T.Fijo Alcant. Usuarios Cda   99000 09900  108900                                                                                                                                                                                                                                              
030100000000073210000000000073                                                                                                                                                                                                                                                                                                                                                                                                                                                                                                                                                                                                      
030200000000002421000000000005                                                                                                                                                                                                                                                                                                                                                                                                                                                                                                                                                                                                      
030300000000061010000000000061                                                                                                                                                                                                                                                                                                                                                                                                                                                                                                                                                                                                      
030300000000135010000000000135                                                                                                                                                                                                                                                                                                                                                                                                                                                                                                                                                                                                      
030300000000099010000000000099                                                                                                                                                                                                                                                                                                                                                                                                                                                                                                                                                                                                      
00000004202201272560300R00000000423302926974V ROLDAN ALGORA GREGORIA                                 CLMADRID                        21                 Guadalajara                        GUADALAJARA                        19   Guadalajara              ESP                                000000000000000000000000000000000     20221005        202301092022000000000000                    CL/ MADRID, Nº 21                                 Periodo:202203 Consumo:10                                             00000000                     0000000000000000000000000000                                                  
01000004202201272560000RAgua/Domestico 13 (5 Bloq.)                        80200 08020   88220Mant. Contador/Domestico 13                        02400 00504   02904Alcantarillado/Doméstico 13 (5 Bloq.)              68000 06800   74800T.Fijo Agua Cdad./T.Fijo Agua Usuarios Cdad.      135000 13500  148500T.Fijo Alcant. Cdad./T.Fijo Alcant. Usuarios Cda   99000 09900  108900                                                                                                                                                                                                                                              
030100000000080210000000000080                                                                                                                                                                                                                                                                                                                                                                                                                                                                                                                                                                                                      
030200000000002421000000000005                                                                                                                                                                                                                                                                                                                                                                                                                                                                                                                                                                                                      
030300000000068010000000000068                                                                                                                                                                                                                                                                                                                                                                                                                                                                                                                                                                                                      
030300000000135010000000000135                                                                                                                                                                                                                                                                                                                                                                                                                                                                                                                                                                                                      
030300000000099010000000000099                                                                                                                                                                                                                                                                                                                                                                                                                                                                                                                                                                                                      
00000004202200211600400R00000000423302926974V ROLDAN ALGORA GREGORIA                                 CLMADRID                        21                 Guadalajara                        GUADALAJARA                        19   Guadalajara              ESP                                000000000000000000000000000000000     20230109        202304102023000000000000                    CL/ MADRID, Nº 21                                 Periodo:202204 Consumo:10                                             00000000                     0000000000000000000000000000                                                  
01000004202200211600000RAgua/Domestico 13 (5 Bloq.)                        80200 08020   88220Mant. Contador/Domestico 13                        02400 00504   02904Alcantarillado/Doméstico 13 (5 Bloq.)              68000 06800   74800T.Fijo Agua Cdad./T.Fijo Agua Usuarios Cdad.      135000 13500  148500T.Fijo Alcant. Cdad./T.Fijo Alcant. Usuarios Cda   99000 09900  108900                                                                                                                                                                                                                                              
030100000000080210000000000080                                                                                                                                                                                                                                                                                                                                                                                                                                                                                                                                                                                                      
030200000000002421000000000005                                                                                                                                                                                                                                                                                                                                                                                                                                                                                                                                                                                                      
030300000000068010000000000068                                                                                                                                                                                                                                                                                                                                                                                                                                                                                                                                                                                                      
030300000000135010000000000135                                                                                                                                                                                                                                                                                                                                                                                                                                                                                                                                                                                                      
030300000000099010000000000099                                                                                                                                                                                                                                                                                                                                                                                                                                                                                                                                                                                                      
00000004202300568540100R00000000392402926974V ROLDAN ALGORA GREGORIA                                 CLMADRID                        21                 Guadalajara                        GUADALAJARA                        19   Guadalajara              ESP                                000000000000000000000000000000000     20230417        202307052023000000000000                    CL/ MADRID, Nº 21                                 Periodo:202301 Consumo:6                                              00000000                     0000000000000000000000000000                                                  
01000004202300568540000RAgua/Domestico 13 (5 Bloq.)                        66100 06610   72710Mant. Contador/Domestico 13                        02400 00504   02904Alcantarillado/Doméstico 13 (5 Bloq.)              54000 05400   59400T.Fijo Agua Cdad./T.Fijo Agua Usuarios Cdad.      135000 13500  148500T.Fijo Alcant. Cdad./T.Fijo Alcant. Usuarios Cda   99000 09900  108900                                                                                                                                                                                                                                              
030100000000066110000000000066                                                                                                                                                                                                                                                                                                                                                                                                                                                                                                                                                                                                      
030200000000002421000000000005                                                                                                                                                                                                                                                                                                                                                                                                                                                                                                                                                                                                      
030300000000054010000000000054                                                                                                                                                                                                                                                                                                                                                                                                                                                                                                                                                                                                      
030300000000135010000000000135                                                                                                                                                                                                                                                                                                                                                                                                                                                                                                                                                                                                      
030300000000099010000000000099                                                                                                                                                                                                                                                                                                                                                                                                                                                                                                                                                                                                      
00000004202300926970200R00000000407902926974V ROLDAN ALGORA GREGORIA                                 CLMADRID                        21                 Guadalajara                        GUADALAJARA                        19   Guadalajara              ESP                                000000000000000000000000000000000     20230709        202310092023000000000000                    CL/ MADRID, Nº 21                                 Periodo:202302 Consumo:8                                              00000000                     0000000000000000000000000000                                                  
01000004202300926970000RAgua/Domestico 13 (5 Bloq.)                        73200 07320   80520Mant. Contador/Domestico 13                        02400 00504   02904Alcantarillado/Doméstico 13 (5 Bloq.)              61000 06100   67100T.Fijo Agua Cdad./T.Fijo Agua Usuarios Cdad.      135000 13500  148500T.Fijo Alcant. Cdad./T.Fijo Alcant. Usuarios Cda   99000 09900  108900                                                                                                                                                                                                                                              
030100000000073210000000000073                                                                                                                                                                                                                                                                                                                                                                                                                                                                                                                                                                                                      
030200000000002421000000000005                                                                                                                                                                                                                                                                                                                                                                                                                                                                                                                                                                                                      
030300000000061010000000000061                                                                                                                                                                                                                                                                                                                                                                                                                                                                                                                                                                                                      
030300000000135010000000000135                                                                                                                                                                                                                                                                                                                                                                                                                                                                                                                                                                                                      
030300000000099010000000000099                                                                                                                                                                                                                                                                                                                                                                                                                                                                                                                                                                                                      
00000004202301287330300R00000000407902926974V ROLDAN ALGORA GREGORIA                                 CLMADRID                        21                 Guadalajara                        GUADALAJARA                        19   Guadalajara              ESP                                000000000000000000000000000000000     20231010        202401082023000000000000                    CL/ MADRID, Nº 21                                 Periodo:202303 Consumo:8                                              00000000                     0000000000000000000000000000                                                  
01000004202301287330000RAgua/Domestico 13 (5 Bloq.)                        73200 07320   80520Mant. Contador/Domestico 13                        02400 00504   02904Alcantarillado/Doméstico 13 (5 Bloq.)              61000 06100   67100T.Fijo Agua Cdad./T.Fijo Agua Usuarios Cdad.      135000 13500  148500T.Fijo Alcant. Cdad./T.Fijo Alcant. Usuarios Cda   99000 09900  108900                                                                                                                                                                                                                                              
030100000000073210000000000073                                                                                                                                                                                                                                                                                                                                                                                                                                                                                                                                                                                                      
030200000000002421000000000005                                                                                                                                                                                                                                                                                                                                                                                                                                                                                                                                                                                                      
030300000000061010000000000061                                                                                                                                                                                                                                                                                                                                                                                                                                                                                                                                                                                                      
030300000000135010000000000135                                                                                                                                                                                                                                                                                                                                                                                                                                                                                                                                                                                                      
030300000000099010000000000099                                                                                                                                                                                                                                                                                                                                                                                                                                                                                                                                                                                                      
00000004201203047150300R000000002755B19150572 GESTESA DESARROLLOS URBANOS SL                         CLFRANCISCO CUESTA              1                  Guadalajara                        GUADALAJARA                        19   Guadalajara              ESP                                000000000000000000000000000000000     20130119        201303252013000000000000                    CL/ FRANCISCO CUESTA, Nº 1                        Periodo:201203 Consumo:0                                              00000000                     0000000000000000000000000000                                                  
01000004201203047150000RAgua/Industrial >13-25                            112000 11200  123200Mant. Contador/Industrial >13-25                   04400 00900   05300Alcantarillado/Domestico >13-25                   133600 13400  147000                                                                                                                                                                                                                                                                                                                                                                                          
030100000000112010000000000112                                                                                                                                                                                                                                                                                                                                                                                                                                                                                                                                                                                                      
030200000000004421000000000009                                                                                                                                                                                                                                                                                                                                                                                                                                                                                                                                                                                                      
030300000000133610000000000134                                                                                                                                                                                                                                                                                                                                                                                                                                                                                                                                                                                                      
00000004202300932140200R00000000286103024745S GONZALEZ QUEIPO, CARMEN                                CLPINTOR CASTO PLASENCIA        4                  Guadalajara                        GUADALAJARA                        19   Guadalajara              ESP                                000000000000000000000000000000000     20230709        202310092023000000000000                    CL/ PINTOR CASTO PLASENCIA, Nº 4                  Periodo:202302 Consumo:0                                              00000000                     0000000000000000000000000000                                                  
01000004202300932140000RAgua/Industrial 25 (5 Bloq.)                      142400 14250  156650Mant. Contador/Industrial >13-25                   03300 00693   03993Alcantarillado/Industrial 25 (5 Bloq.)            114000 11400  125400                                                                                                                                                                                                                                                                                                                                                                                          
030100000000142410000000000143                                                                                                                                                                                                                                                                                                                                                                                                                                                                                                                                                                                                      
030200000000003321000000000007                                                                                                                                                                                                                                                                                                                                                                                                                                                                                                                                                                                                      
030300000000114010000000000114                                                                                                                                                                                                                                                                                                                                                                                                                                                                                                                                                                                                      
00000004202301292520300R00000000286103024745S GONZALEZ QUEIPO, CARMEN                                CLPINTOR CASTO PLASENCIA        4                  Guadalajara                        GUADALAJARA                        19   Guadalajara              ESP                                000000000000000000000000000000000     20231010        202401082023000000000000                    CL/ PINTOR CASTO PLASENCIA, Nº 4                  Periodo:202303 Consumo:0                                              00000000                     0000000000000000000000000000                                                  
01000004202301292520000RAgua/Industrial 25 (5 Bloq.)                      142400 14250  156650Mant. Contador/Industrial >13-25                   03300 00693   03993Alcantarillado/Industrial 25 (5 Bloq.)            114000 11400  125400                                                                                                                                                                                                                                                                                                                                                                                          
030100000000142410000000000143                                                                                                                                                                                                                                                                                                                                                                                                                                                                                                                                                                                                      
030200000000003321000000000007                                                                                                                                                                                                                                                                                                                                                                                                                                                                                                                                                                                                      
030300000000114010000000000114                                                                                                                                                                                                                                                                                                                                                                                                                                                                                                                                                                                                      
00000004201102072240300R000000001017B82761289 VISOVAL HISPANIA 2000 CONSTRUC                         CLSAN BERNARDO                  7                  Guadalajara                        GUADALAJARA                        19   Guadalajara              ESP                                000000000000000000000000000000000     20120131        201204092012000000000000                    CL/ SAN BERNARDO, Nº 7                            Periodo:201103 Consumo:4                                              00000000                     0000000000000000000000000000                                                  
01000004201102072240000RAgua/Domestico 13                                  42700 03400   46100Mant. Contador/Domestico 13                        03200 00600   03800Alcantarillado/Domestico 13                        48000 03800   51800                                                                                                                                                                                                                                                                                                                                                                                          
030100000000042708000000000034                                                                                                                                                                                                                                                                                                                                                                                                                                                                                                                                                                                                      
030200000000003218000000000006                                                                                                                                                                                                                                                                                                                                                                                                                                                                                                                                                                                                      
030300000000048008000000000038                                                                                                                                                                                                                                                                                                                                                                                                                                                                                                                                                                                                      
00000004201500137490400R000000002148B82761289 VISOVAL HISPANIA 2000 CONSTRUC                         CLSAN BERNARDO                  7                  Guadalajara                        GUADALAJARA                        19   Guadalajara              ESP                                000000000000000000000000000000000     20160128        201604052016000000000000                    CL/ SAN BERNARDO, Nº 7                            Periodo:201504 Consumo:18                                             00000000                     0000000000000000000000000000                                                  
01000004201500137490000RMant. Contador/Domestico 13                        02400 00500   02900Agua/Domestico 13 (5 Bloq.) (Inactivo)            103300 10300  113600Alcantarillado/Doméstico 13 (5 Bloq.) (Inactivo)   89400 08900   98300                                                                                                                                                                                                                                                                                                                                                                                          
030200000000002421000000000005                                                                                                                                                                                                                                                                                                                                                                                                                                                                                                                                                                                                      
030100000000103310000000000103                                                                                                                                                                                                                                                                                                                                                                                                                                                                                                                                                                                                      
030300000000089410000000000089                                                                                                                                                                                                                                                                                                                                                                                                                                                                                                                                                                                                      
00000004201600469400100R000000002378B82761289 VISOVAL HISPANIA 2000 CONSTRUC                         CLSAN BERNARDO                  7                  Guadalajara                        GUADALAJARA                        19   Guadalajara              ESP                                000000000000000000000000000000000     20160421        201606272016000000000000                    CL/ SAN BERNARDO, Nº 7                            Periodo:201601 Consumo:21                                             00000000                     0000000000000000000000000000                                                  
01000004201600469400000RMant. Contador/Domestico 13                        02400 00500   02900Agua/Domestico 13 (5 Bloq.) (Inactivo)            113700 11400  125100Alcantarillado/Doméstico 13 (5 Bloq.) (Inactivo)   99800 10000  109800                                                                                                                                                                                                                                                                                                                                                                                          
030200000000002421000000000005                                                                                                                                                                                                                                                                                                                                                                                                                                                                                                                                                                                                      
030100000000113710000000000114                                                                                                                                                                                                                                                                                                                                                                                                                                                                                                                                                                                                      
030300000000099810000000000100                                                                                                                                                                                                                                                                                                                                                                                                                                                                                                                                                                                                      
00000004201600801770200R000000002989B82761289 VISOVAL HISPANIA 2000 CONSTRUC                         CLSAN BERNARDO                  7                  Guadalajara                        GUADALAJARA                        19   Guadalajara              ESP                                000000000000000000000000000000000     20160715        201609202016000000000000                    CL/ SAN BERNARDO, Nº 7                            Periodo:201602 Consumo:29                                             00000000                     0000000000000000000000000000                                                  
