00000004202200355250100R000000010532G28256667 SOCIEDAD DE SAN VICENTE DE PAU                         CLAVILA                         20          03 IZ  Guadalajara                        GUADALAJARA                        19   Guadalajara              ESP                                000000000000000000000000000000000     20220505        202207052022000000000000                    CL/ AVILA, N? 20 , Plt 03 , Pta IZ                Periodo:202201 Consumo:113                                            00000000                     0000000000000000000000000000                                                  
01000004202200355250000RAgua/Domestico 13 (5 Bloq.)                       517600 51760  569360Mant. Contador/Domestico 13                        02400 00504   02904Alcantarillado/Dom?stico 13 (5 Bloq.)             437200 43720  480920                                                                                                                                                                                                                                                                                                                                                                                          
030100000000517610000000000518                                                                                                                                                                                                                                                                                                                                                                                                                                                                                                                                                                                                      
030200000000002421000000000005                                                                                                                                                                                                                                                                                                                                                                                                                                                                                                                                                                                                      
030300000000437210000000000437                                                                                                                                                                                                                                                                                                                                                                                                                                                                                                                                                                                                      
00000004202234001910400R000000004549G33020926 FUNDACION PADRE ANGEL                                  CLAVILA                         20          03 IZ  Guadalajara                        GUADALAJARA                        19   Guadalajara              ESP                                000000000000000000000000000000000     20230206        202304102023000000000000                    CL/ AVILA, N? 20 , Plt 03 , Pta IZ                Periodo:202204 Consumo:47                                             00000000                     0000000000000000000000000000                                                  
01000004202234001910000RAgua/Domestico 13 (5 Bloq.)                       213000 21300  234300Mant. Contador/Domestico 13                        02400 00504   02904Alcantarillado/Dom?stico 13 (5 Bloq.)             197900 19790  217690                                                                                                                                                                                                                                                                                                                                                                                          
030100000000213010000000000213                                                                                                                                                                                                                                                                                                                                                                                                                                                                                                                                                                                                      
030200000000002421000000000005                                                                                                                                                                                                                                                                                                                                                                                                                                                                                                                                                                                                      
030300000000197910000000000198                                                                                                                                                                                                                                                                                                                                                                                                                                                                                                                                                                                                      
00000004202334003620100R000000000964G33020926 FUNDACION PADRE ANGEL                                  CLAVILA                         20          03 IZ  Guadalajara                        GUADALAJARA                        19   Guadalajara              ESP                                000000000000000000000000000000000     20230503        202307022023000000000000                    CL/ AVILA, N? 20 , Plt 03 , Pta IZ                Periodo:202301 Consumo:1                                              00000000                     0000000000000000000000000000                                                  
01000004202334003620000RAgua/Domestico 13 (5 Bloq.)                        48400 04850   53250Mant. Contador/Domestico 13                        02400 00504   02904Alcantarillado/Dom?stico 13 (5 Bloq.)              36500 03650   40150                                                                                                                                                                                                                                                                                                                                                                                          
030100000000048410000000000049                                                                                                                                                                                                                                                                                                                                                                                                                                                                                                                                                                                                      
030200000000002421000000000005                                                                                                                                                                                                                                                                                                                                                                                                                                                                                                                                                                                                      
030300000000036510000000000037                                                                                                                                                                                                                                                                                                                                                                                                                                                                                                                                                                                                      
00000004202300715030200R000000000887G33020926 FUNDACION PADRE ANGEL                                  CLAVILA                         20          03 IZ  Guadalajara                        GUADALAJARA                        19   Guadalajara              ESP                                000000000000000000000000000000000     20230807        202310092023000000000000                    CL/ AVILA, N? 20 , Plt 03 , Pta IZ                Periodo:202302 Consumo:0                                              00000000                     0000000000000000000000000000                                                  
01000004202300715030000RAgua/Domestico 13 (5 Bloq.)                        45000 04500   49500Mant. Contador/Domestico 13                        02400 00504   02904Alcantarillado/Dom?stico 13 (5 Bloq.)              33000 03300   36300                                                                                                                                                                                                                                                                                                                                                                                          
030100000000045010000000000045                                                                                                                                                                                                                                                                                                                                                                                                                                                                                                                                                                                                      
030200000000002421000000000005                                                                                                                                                                                                                                                                                                                                                                                                                                                                                                                                                                                                      
030300000000033010000000000033                                                                                                                                                                                                                                                                                                                                                                                                                                                                                                                                                                                                      
00000004202301073530300R000000004312G33020926 FUNDACION PADRE ANGEL                                  CLAVILA                         20          03 IZ  Guadalajara                        GUADALAJARA                        19   Guadalajara              ESP                                000000000000000000000000000000000     20231106        202401082023000000000000                    CL/ AVILA, N? 20 , Plt 03 , Pta IZ                Periodo:202303 Consumo:44                                             00000000                     0000000000000000000000000000                                                  
01000004202301073530000RAgua/Domestico 13 (5 Bloq.)                       202100 20210  222310Mant. Contador/Domestico 13                        02400 00504   02904Alcantarillado/Dom?stico 13 (5 Bloq.)             187300 18730  206030                                                                                                                                                                                                                                                                                                                                                                                          
030100000000202110000000000202                                                                                                                                                                                                                                                                                                                                                                                                                                                                                                                                                                                                      
030200000000002421000000000005                                                                                                                                                                                                                                                                                                                                                                                                                                                                                                                                                                                                      
030300000000187310000000000187                                                                                                                                                                                                                                                                                                                                                                                                                                                                                                                                                                                                      
