00000004201664006030300R00000000077811410595L GOMEZ MOLANO MARTA                                     CLMERCED                        7     A     02 A   Guadalajara                        GUADALAJARA                        19   Guadalajara              ESP                                000000000000000000000000000000000     20161025        201612272016000000000000                    CL/ MERCED, Nº 7, Blq A, Plt 02, Pta A            Periodo:201603 Consumo:0                                              00000000                     0000000000000000000000000000                                                  
01000004201664006030000RAgua/Domestico 13 (5 Bloq.) (Inactivo)             40800 04100   44900Alcantarillado/Doméstico 13 (5 Bloq.) (Inactivo)   27300 02700   30000Mant. Contador/Domestico 13                        02400 00500   02900                                                                                                                                                                                                                                                                                                                                                                                          
030100000000040810000000000041                                                                                                                                                                                                                                                                                                                                                                                                                                                                                                                                                                                                      
030300000000027310000000000027                                                                                                                                                                                                                                                                                                                                                                                                                                                                                                                                                                                                      
030200000000002421000000000005                                                                                                                                                                                                                                                                                                                                                                                                                                                                                                                                                                                                      
00000004200900007210300R00000000072202930956C BERMEJO CUEVAS M JESUS                                 CLDOCTOR ROMAN ATIENZA          9                  Guadalajara                        GUADALAJARA                        19   Guadalajara              ESP                                000000000000000000000000000000000     20100408        201006082010000000000000                    CL/ DOCTOR ROMAN ATIENZA, Nº 9                    Periodo:200903 Consumo:0                                              00000000                     0000000000000000000000000000                                                  
01000004200900007210000RAgua/Domestico 13                                  29600 02100   31700Mant. Contador/Domestico 13                        03200 00500   03700Alcantarillado/Domestico 13                        34400 02400   36800                                                                                                                                                                                                                                                                                                                                                                                          
030100000000029607000000000021                                                                                                                                                                                                                                                                                                                                                                                                                                                                                                                                                                                                      
030200000000003216000000000005                                                                                                                                                                                                                                                                                                                                                                                                                                                                                                                                                                                                      
030300000000034407000000000024                                                                                                                                                                                                                                                                                                                                                                                                                                                                                                                                                                                                      
00000004200900059500300R000000002778S1911001S JCCLM                                                  CLGUSTAVO ADOLFO BECQUER        2           02 A   Guadalajara                        GUADALAJARA                        19   Guadalajara              ESP                                000000000000000000000000000000000     20100408        201006082012000000000000                    CL/ GUSTAVO ADOLFO BECQUER, Nº 2 , Plt 02 , Pta A Periodo:200903 Consumo:31                                             00000000                     0000000000000000000000000000                                                  
01000004200900059500000RAgua/Domestico 13                                 122500 08600  131100Mant. Contador/Domestico 13                        03200 00500   03700Alcantarillado/Domestico 13                       133600 09400  143000                                                                                                                                                                                                                                                                                                                                                                                          
030100000000122507000000000086                                                                                                                                                                                                                                                                                                                                                                                                                                                                                                                                                                                                      
030200000000003216000000000005                                                                                                                                                                                                                                                                                                                                                                                                                                                                                                                                                                                                      
030300000000133607000000000094                                                                                                                                                                                                                                                                                                                                                                                                                                                                                                                                                                                                      
00000004201000059510100R000000002845S1911001S JCCLM                                                  CLGUSTAVO ADOLFO BECQUER        2           02 A   Guadalajara                        GUADALAJARA                        19   Guadalajara              ESP                                000000000000000000000000000000000     20100708        201009092012000000000000                    CL/ GUSTAVO ADOLFO BECQUER, Nº 2 , Plt 02 , Pta A Periodo:201001 Consumo:32                                             00000000                     0000000000000000000000000000                                                  
01000004201000059510000RAgua/Domestico 13                                 125600 08800  134400Mant. Contador/Domestico 13                        03200 00500   03700Alcantarillado/Domestico 13                       136800 09600  146400                                                                                                                                                                                                                                                                                                                                                                                          
030100000000125607000000000088                                                                                                                                                                                                                                                                                                                                                                                                                                                                                                                                                                                                      
030200000000003216000000000005                                                                                                                                                                                                                                                                                                                                                                                                                                                                                                                                                                                                      
030300000000136807000000000096                                                                                                                                                                                                                                                                                                                                                                                                                                                                                                                                                                                                      
00000004201000059520200R000000002575S1911001S JCCLM                                                  CLGUSTAVO ADOLFO BECQUER        2           02 A   Guadalajara                        GUADALAJARA                        19   Guadalajara              ESP                                000000000000000000000000000000000     20101210        201102102012000000000000                    CL/ GUSTAVO ADOLFO BECQUER, Nº 2 , Plt 02 , Pta A Periodo:201002 Consumo:28                                             00000000                     0000000000000000000000000000                                                  
01000004201000059520000RAgua/Domestico 13                                 113200 07900  121100Mant. Contador/Domestico 13                        03200 00500   03700Alcantarillado/Domestico 13                       124000 08700  132700                                                                                                                                                                                                                                                                                                                                                                                          
030100000000113207000000000079                                                                                                                                                                                                                                                                                                                                                                                                                                                                                                                                                                                                      
030200000000003216000000000005                                                                                                                                                                                                                                                                                                                                                                                                                                                                                                                                                                                                      
030300000000124007000000000087                                                                                                                                                                                                                                                                                                                                                                                                                                                                                                                                                                                                      
00000004201000059530300R000000002064S1911001S JCCLM                                                  CLGUSTAVO ADOLFO BECQUER        2           02 A   Guadalajara                        GUADALAJARA                        19   Guadalajara              ESP                                000000000000000000000000000000000     20110328        201105302012000000000000                    CL/ GUSTAVO ADOLFO BECQUER, Nº 2 , Plt 02 , Pta A Periodo:201003 Consumo:20                                             00000000                     0000000000000000000000000000                                                  
01000004201000059530000RAgua/Domestico 13                                  89200 07100   96300Mant. Contador/Domestico 13                        03200 00600   03800Alcantarillado/Domestico 13                        98400 07900  106300                                                                                                                                                                                                                                                                                                                                                                                          
030100000000089208000000000071                                                                                                                                                                                                                                                                                                                                                                                                                                                                                                                                                                                                      
030200000000003218000000000006                                                                                                                                                                                                                                                                                                                                                                                                                                                                                                                                                                                                      
030300000000098408000000000079                                                                                                                                                                                                                                                                                                                                                                                                                                                                                                                                                                                                      
00000004201100059540100R000000000746S1911001S JCCLM                                                  CLGUSTAVO ADOLFO BECQUER        2           02 A   Guadalajara                        GUADALAJARA                        19   Guadalajara              ESP                                000000000000000000000000000000000     20110715        201109152012000000000000                    CL/ GUSTAVO ADOLFO BECQUER, Nº 2 , Plt 02 , Pta A Periodo:201101 Consumo:0                                              00000000                     0000000000000000000000000000                                                  
01000004201100059540000RAgua/Domestico 13                                  30400 02400   32800Mant. Contador/Domestico 13                        03200 00600   03800Alcantarillado/Domestico 13                        35200 02800   38000                                                                                                                                                                                                                                                                                                                                                                                          
030100000000030408000000000024                                                                                                                                                                                                                                                                                                                                                                                                                                                                                                                                                                                                      
030200000000003218000000000006                                                                                                                                                                                                                                                                                                                                                                                                                                                                                                                                                                                                      
030300000000035208000000000028                                                                                                                                                                                                                                                                                                                                                                                                                                                                                                                                                                                                      
00000004201100059550200R000000002035S1911001S JCCLM                                                  CLGUSTAVO ADOLFO BECQUER        2           02 A   Guadalajara                        GUADALAJARA                        19   Guadalajara              ESP                                000000000000000000000000000000000     20111115        201201162012000000000000                    CL/ GUSTAVO ADOLFO BECQUER, Nº 2 , Plt 02 , Pta A Periodo:201102 Consumo:19                                             00000000                     0000000000000000000000000000                                                  
01000004201100059550000RAgua/Domestico 13                                  88900 07100   96000Mant. Contador/Domestico 13                        03200 00600   03800Alcantarillado/Domestico 13                        96000 07700  103700                                                                                                                                                                                                                                                                                                                                                                                          
030100000000088908000000000071                                                                                                                                                                                                                                                                                                                                                                                                                                                                                                                                                                                                      
030200000000003218000000000006                                                                                                                                                                                                                                                                                                                                                                                                                                                                                                                                                                                                      
030300000000096008000000000077                                                                                                                                                                                                                                                                                                                                                                                                                                                                                                                                                                                                      
00000004201100059560300R000000003615S1911001S JCCLM                                                  CLGUSTAVO ADOLFO BECQUER        2           02 A   Guadalajara                        GUADALAJARA                        19   Guadalajara              ESP                                000000000000000000000000000000000     20120206        201204092012000000000000                    CL/ GUSTAVO ADOLFO BECQUER, Nº 2 , Plt 02 , Pta A Periodo:201103 Consumo:42                                             00000000                     0000000000000000000000000000                                                  
01000004201100059560000RAgua/Domestico 13                                 161600 12900  174500Mant. Contador/Domestico 13                        03200 00600   03800Alcantarillado/Domestico 13                       169600 13600  183200                                                                                                                                                                                                                                                                                                                                                                                          
030100000000161608000000000129                                                                                                                                                                                                                                                                                                                                                                                                                                                                                                                                                                                                      
030200000000003218000000000006                                                                                                                                                                                                                                                                                                                                                                                                                                                                                                                                                                                                      
030300000000169608000000000136                                                                                                                                                                                                                                                                                                                                                                                                                                                                                                                                                                                                      
00000004201200059570100R000000004251S1911001S JCCLM                                                  CLGUSTAVO ADOLFO BECQUER        2           02 A   Guadalajara                        GUADALAJARA                        19   Guadalajara              ESP                                000000000000000000000000000000000     20120605        201208062012000000000000                    CL/ GUSTAVO ADOLFO BECQUER, Nº 2 , Plt 02 , Pta A Periodo:201201 Consumo:50                                             00000000                     0000000000000000000000000000                                                  
01000004201200059570000RAgua/Domestico 13                                 190300 15200  205500Mant. Contador/Domestico 13                        03200 00600   03800Alcantarillado/Domestico 13                       199800 16000  215800                                                                                                                                                                                                                                                                                                                                                                                          
030100000000190308000000000152                                                                                                                                                                                                                                                                                                                                                                                                                                                                                                                                                                                                      
030200000000003218000000000006                                                                                                                                                                                                                                                                                                                                                                                                                                                                                                                                                                                                      
030300000000199808000000000160                                                                                                                                                                                                                                                                                                                                                                                                                                                                                                                                                                                                      
00000004201200059580200R000000004723S1911001S JCCLM                                                  CLGUSTAVO ADOLFO BECQUER        2           02 A   Guadalajara                        GUADALAJARA                        19   Guadalajara              ESP                                000000000000000000000000000000000     20121022        201212202012000000000000                    CL/ GUSTAVO ADOLFO BECQUER, Nº 2 , Plt 02 , Pta A Periodo:201202 Consumo:55                                             00000000                     0000000000000000000000000000                                                  
01000004201200059580000RAgua/Domestico 13                                 207900 20800  228700Mant. Contador/Domestico 13                        03200 00700   03900Alcantarillado/Domestico 13                       217900 21800  239700                                                                                                                                                                                                                                                                                                                                                                                          
030100000000207910000000000208                                                                                                                                                                                                                                                                                                                                                                                                                                                                                                                                                                                                      
030200000000003221000000000007                                                                                                                                                                                                                                                                                                                                                                                                                                                                                                                                                                                                      
030300000000217910000000000218                                                                                                                                                                                                                                                                                                                                                                                                                                                                                                                                                                                                      
00000004201000013960100R000000002537DE000464  FIGUEROA TORRES ALVARO                                 PZSAN ESTEBAN                   1                  Guadalajara                        GUADALAJARA                        19   Guadalajara              ESP                                000000000000000000000000000000000     20100708        201009092010000000000000                    PZ/ SAN ESTEBAN, Nº 1                             Periodo:201001 Consumo:0                                              00000000                     0000000000000000000000000000                                                  
01000004201000013960000RAgua/Industrial >13-25                            106000 07400  113400Mant. Contador/Industrial >13-25                   04400 00700   05100Alcantarillado/Domestico >13-25                   126400 08800  135200                                                                                                                                                                                                                                                                                                                                                                                          
030100000000106007000000000074                                                                                                                                                                                                                                                                                                                                                                                                                                                                                                                                                                                                      
030200000000004416000000000007                                                                                                                                                                                                                                                                                                                                                                                                                                                                                                                                                                                                      
030300000000126407000000000088                                                                                                                                                                                                                                                                                                                                                                                                                                                                                                                                                                                                      
00000004201000014700100R000000002537A08049793 URBAS GRUPO FINANCIERO S.A                             PZMAYOR                         14                 Guadalajara                        GUADALAJARA                        19   Guadalajara              ESP                                000000000000000000000000000000000     20100708        201009092010000000000000                    PZ/ MAYOR, Nº 14 , ESQ. MIGUEL FLUITERS Nº 2      Periodo:201001 Consumo:0                                              00000000                     0000000000000000000000000000                                                  
01000004201000014700000RAgua/Domestico >13-25                             106000 07400  113400Mant. Contador/Domestico >13-25                    04400 00700   05100Alcantarillado/Domestico >13-25                   126400 08800  135200                                                                                                                                                                                                                                                                                                                                                                                          
030100000000106007000000000074                                                                                                                                                                                                                                                                                                                                                                                                                                                                                                                                                                                                      
030200000000004416000000000007                                                                                                                                                                                                                                                                                                                                                                                                                                                                                                                                                                                                      
030300000000126407000000000088                                                                                                                                                                                                                                                                                                                                                                                                                                                                                                                                                                                                      
00000004201506101000300R000000000778D00000502 GAMO MARTINEZ VIUDA DE FELIX                           CLCARRETERA DE FONTANAR         5                  Guadalajara                        GUADALAJARA                        19   Guadalajara              ESP                                000000000000000000000000000000000     20151105        201601052015000000000000                    CL/ CARRETERA DE FONTANAR, Nº 5                   Periodo:201503 Consumo:0                                              00000000                     0000000000000000000000000000                                                  
01000004201506101000000RMant. Contador/Domestico 13                        02400 00500   02900Agua/Domestico 13 (5 Bloq.) (Inactivo)             40800 04100   44900Alcantarillado/Doméstico 13 (5 Bloq.) (Inactivo)   27300 02700   30000                                                                                                                                                                                                                                                                                                                                                                                          
030200000000002421000000000005                                                                                                                                                                                                                                                                                                                                                                                                                                                                                                                                                                                                      
030100000000040810000000000041                                                                                                                                                                                                                                                                                                                                                                                                                                                                                                                                                                                                      
030300000000027310000000000027                                                                                                                                                                                                                                                                                                                                                                                                                                                                                                                                                                                                      
00000004201664005110200R000000002073X5676880C CORDOBA CLAROS GERARDO                                 CLSORIA                         5           04 13  Guadalajara                        GUADALAJARA                        19   Guadalajara              ESP                                000000000000000000000000000000000     20160720        201609202016000000000000                    CL/ SORIA, Nº 5 , Plt 04 , Pta 13                 Periodo:201602 Consumo:17                                             00000000                     0000000000000000000000000000                                                  
01000004201664005110000RMant. Contador/Domestico 13                        02400 00500   02900Agua/Domestico 13 (5 Bloq.) (Inactivo)             99800 10000  109800Alcantarillado/Doméstico 13 (5 Bloq.) (Inactivo)   86000 08600   94600                                                                                                                                                                                                                                                                                                                                                                                          
030200000000002421000000000005                                                                                                                                                                                                                                                                                                                                                                                                                                                                                                                                                                                                      
030100000000099810000000000100                                                                                                                                                                                                                                                                                                                                                                                                                                                                                                                                                                                                      
030300000000086010000000000086                                                                                                                                                                                                                                                                                                                                                                                                                                                                                                                                                                                                      
00000004201506098700300R00000000353403109305G AYUSO APARICIO CARLOS                                  CLSORIA                         5           04 14  Guadalajara                        GUADALAJARA                        19   Guadalajara              ESP                                000000000000000000000000000000000     20151105        201601052015000000000000                    CL/ SORIA, Nº 5 , Plt 04 , Pta 14                 Periodo:201503 Consumo:36                                             00000000                     0000000000000000000000000000                                                  
01000004201506098700000RMant. Contador/Domestico 13                        02400 00500   02900Agua/Domestico 13 (5 Bloq.) (Inactivo)            166900 16700  183600Alcantarillado/Doméstico 13 (5 Bloq.) (Inactivo)  151700 15200  166900                                                                                                                                                                                                                                                                                                                                                                                          
030200000000002421000000000005                                                                                                                                                                                                                                                                                                                                                                                                                                                                                                                                                                                                      
030100000000166910000000000167                                                                                                                                                                                                                                                                                                                                                                                                                                                                                                                                                                                                      
030300000000151710000000000152                                                                                                                                                                                                                                                                                                                                                                                                                                                                                                                                                                                                      
00000004201401740010400R000000001768X4826401N ROSU DAN                                               CLSORIA                         7           01 17  Guadalajara                        GUADALAJARA                        19   Guadalajara              ESP                                000000000000000000000000000000000     20150209        201504092017000000000000                    CL/ SORIA, Nº 7, Plt 01, Pta 17                   Periodo:201404 Consumo:13                                             00000000                     0000000000000000000000000000                                                  
01000004201401740010000RMant. Contador/Domestico 13                        02400 00500   02900Agua/Domestico 13 (5 Bloq.) (Inactivo)             85900 08600   94500Alcantarillado/Doméstico 13 (5 Bloq.) (Inactivo)   72200 07200   79400                                                                                                                                                                                                                                                                                                                                                                                          
030200000000002421000000000005                                                                                                                                                                                                                                                                                                                                                                                                                                                                                                                                                                                                      
030100000000085910000000000086                                                                                                                                                                                                                                                                                                                                                                                                                                                                                                                                                                                                      
030300000000072210000000000072                                                                                                                                                                                                                                                                                                                                                                                                                                                                                                                                                                                                      
00000004201506094680300R00000000077803063782K CARACOL SILVESTRE SERAFIN                              CLZAMORA                        3           03 63  Guadalajara                        GUADALAJARA                        19   Guadalajara              ESP                                000000000000000000000000000000000     20151105        201601052015000000000000                    CL/ ZAMORA, Nº 3 , Plt 03 , Pta 63                Periodo:201503 Consumo:0                                              00000000                     0000000000000000000000000000                                                  
01000004201506094680000RMant. Contador/Domestico 13                        02400 00500   02900Agua/Domestico 13 (5 Bloq.) (Inactivo)             40800 04100   44900Alcantarillado/Doméstico 13 (5 Bloq.) (Inactivo)   27300 02700   30000                                                                                                                                                                                                                                                                                                                                                                                          
030200000000002421000000000005                                                                                                                                                                                                                                                                                                                                                                                                                                                                                                                                                                                                      
030100000000040810000000000041                                                                                                                                                                                                                                                                                                                                                                                                                                                                                                                                                                                                      
030300000000027310000000000027                                                                                                                                                                                                                                                                                                                                                                                                                                                                                                                                                                                                      
00000004201264003830100R000000000768B16103889 ALZA RESIDENCIAL SL                                    CLTOLEDO                        4                  Guadalajara                        GUADALAJARA                        19   Guadalajara              ESP                                000000000000000000000000000000000     20120605        201208062016000000000000                    CL/ TOLEDO, Nº 4                                  Periodo:201201 Consumo:0                                              00000000                     0000000000000000000000000000                                                  
01000004201264003830000RAgua/Domestico 13                                  31200 02500   33700Mant. Contador/Domestico 13                        03200 00600   03800Alcantarillado/Domestico 13                        36400 02900   39300                                                                                                                                                                                                                                                                                                                                                                                          
030100000000031208000000000025                                                                                                                                                                                                                                                                                                                                                                                                                                                                                                                                                                                                      
030200000000003218000000000006                                                                                                                                                                                                                                                                                                                                                                                                                                                                                                                                                                                                      
030300000000036408000000000029                                                                                                                                                                                                                                                                                                                                                                                                                                                                                                                                                                                                      
00000004201264003840200R000000000782B16103889 ALZA RESIDENCIAL SL                                    CLTOLEDO                        4                  Guadalajara                        GUADALAJARA                        19   Guadalajara              ESP                                000000000000000000000000000000000     20121022        201212202016000000000000                    CL/ TOLEDO, Nº 4                                  Periodo:201202 Consumo:0                                              00000000                     0000000000000000000000000000                                                  
01000004201264003840000RAgua/Domestico 13                                  31200 03100   34300Mant. Contador/Domestico 13                        03200 00700   03900Alcantarillado/Domestico 13                        36400 03600   40000                                                                                                                                                                                                                                                                                                                                                                                          
030100000000031210000000000031                                                                                                                                                                                                                                                                                                                                                                                                                                                                                                                                                                                                      
030200000000003221000000000007                                                                                                                                                                                                                                                                                                                                                                                                                                                                                                                                                                                                      
030300000000036410000000000036                                                                                                                                                                                                                                                                                                                                                                                                                                                                                                                                                                                                      
00000004201264003850300R000000000782B16103889 ALZA RESIDENCIAL SL                                    CLTOLEDO                        4                  Guadalajara                        GUADALAJARA                        19   Guadalajara              ESP                                000000000000000000000000000000000     20130125        201303252016000000000000                    CL/ TOLEDO, Nº 4                                  Periodo:201203 Consumo:0                                              00000000                     0000000000000000000000000000                                                  
01000004201264003850000RAgua/Domestico 13                                  31200 03100   34300Mant. Contador/Domestico 13                        03200 00700   03900Alcantarillado/Domestico 13                        36400 03600   40000                                                                                                                                                                                                                                                                                                                                                                                          
030100000000031210000000000031                                                                                                                                                                                                                                                                                                                                                                                                                                                                                                                                                                                                      
030200000000003221000000000007                                                                                                                                                                                                                                                                                                                                                                                                                                                                                                                                                                                                      
030300000000036410000000000036                                                                                                                                                                                                                                                                                                                                                                                                                                                                                                                                                                                                      
00000004201364003860100R000000000782B16103889 ALZA RESIDENCIAL SL                                    CLTOLEDO                        4                  Guadalajara                        GUADALAJARA                        19   Guadalajara              ESP                                000000000000000000000000000000000     20130520        201307222016000000000000                    CL/ TOLEDO, Nº 4                                  Periodo:201301 Consumo:0                                              00000000                     0000000000000000000000000000                                                  
01000004201364003860000RAgua/Domestico 13                                  31200 03100   34300Mant. Contador/Domestico 13                        03200 00700   03900Alcantarillado/Domestico 13                        36400 03600   40000                                                                                                                                                                                                                                                                                                                                                                                          
030100000000031210000000000031                                                                                                                                                                                                                                                                                                                                                                                                                                                                                                                                                                                                      
030200000000003221000000000007                                                                                                                                                                                                                                                                                                                                                                                                                                                                                                                                                                                                      
030300000000036410000000000036                                                                                                                                                                                                                                                                                                                                                                                                                                                                                                                                                                                                      
00000004201364003870200R000000000782B16103889 ALZA RESIDENCIAL SL                                    CLTOLEDO                        4                  Guadalajara                        GUADALAJARA                        19   Guadalajara              ESP                                000000000000000000000000000000000     20131004        201312052016000000000000                    CL/ TOLEDO, Nº 4                                  Periodo:201302 Consumo:0                                              00000000                     0000000000000000000000000000                                                  
01000004201364003870000RAgua/Domestico 13                                  31200 03100   34300Mant. Contador/Domestico 13                        03200 00700   03900Alcantarillado/Domestico 13                        36400 03600   40000                                                                                                                                                                                                                                                                                                                                                                                          
030100000000031210000000000031                                                                                                                                                                                                                                                                                                                                                                                                                                                                                                                                                                                                      
030200000000003221000000000007                                                                                                                                                                                                                                                                                                                                                                                                                                                                                                                                                                                                      
030300000000036410000000000036                                                                                                                                                                                                                                                                                                                                                                                                                                                                                                                                                                                                      
00000004201364003880300R000000000782B16103889 ALZA RESIDENCIAL SL                                    CLTOLEDO                        4                  Guadalajara                        GUADALAJARA                        19   Guadalajara              ESP                                000000000000000000000000000000000     20140124        201403242016000000000000                    CL/ TOLEDO, Nº 4                                  Periodo:201303 Consumo:0                                              00000000                     0000000000000000000000000000                                                  
01000004201364003880000RAgua/Domestico 13                                  31200 03100   34300Mant. Contador/Domestico 13                        03200 00700   03900Alcantarillado/Domestico 13                        36400 03600   40000                                                                                                                                                                                                                                                                                                                                                                                          
030100000000031210000000000031                                                                                                                                                                                                                                                                                                                                                                                                                                                                                                                                                                                                      
030200000000003221000000000007                                                                                                                                                                                                                                                                                                                                                                                                                                                                                                                                                                                                      
030300000000036410000000000036                                                                                                                                                                                                                                                                                                                                                                                                                                                                                                                                                                                                      
00000004201440018400100R00000000126103092748F RUIZ SANCHEZ MIGUEL ANGEL                              CLCALNUEVAS                     4           LC     Guadalajara                        GUADALAJARA                        19   Guadalajara              ESP                                000000000000000000000000000000000     20140516        201407162018000000000000                    CL/ CALNUEVAS, Nº 4 , Plt LC                      Periodo:201401 Consumo:6                                              00000000                     0000000000000000000000000000                                                  
01000004201440018400000RMant. Contador/Industrial 13                       02400 00500   02900Agua/Industrial 13 (5 Bloq.) (Inactivo)            60340 06000   66340Alcantarillado/Industrial 13 (5 Bloq.) (Inactivo   51700 05200   56900                                                                                                                                                                                                                                                                                                                                                                                          
030200000000002421000000000005                                                                                                                                                                                                                                                                                                                                                                                                                                                                                                                                                                                                      
030100000000060310000000000060                                                                                                                                                                                                                                                                                                                                                                                                                                                                                                                                                                                                      
030300000000051710000000000052                                                                                                                                                                                                                                                                                                                                                                                                                                                                                                                                                                                                      
00000004201440018410200R00000000077803092748F RUIZ SANCHEZ MIGUEL ANGEL                              CLCALNUEVAS                     4           LC     Guadalajara                        GUADALAJARA                        19   Guadalajara              ESP                                000000000000000000000000000000000     20140721        201409222018000000000000                    CL/ CALNUEVAS, Nº 4 , Plt LC                      Periodo:201402 Consumo:0                                              00000000                     0000000000000000000000000000                                                  
01000004201440018410000RMant. Contador/Industrial 13                       02400 00500   02900Agua/Industrial 13 (5 Bloq.) (Inactivo)            40800 04080   44880Alcantarillado/Industrial 13 (5 Bloq.) (Inactivo   27300 02730   30030                                                                                                                                                                                                                                                                                                                                                                                          
030200000000002421000000000005                                                                                                                                                                                                                                                                                                                                                                                                                                                                                                                                                                                                      
030100000000040810000000000041                                                                                                                                                                                                                                                                                                                                                                                                                                                                                                                                                                                                      
030300000000027310000000000027                                                                                                                                                                                                                                                                                                                                                                                                                                                                                                                                                                                                      
00000004201440018420300R00000000207503092748F RUIZ SANCHEZ MIGUEL ANGEL                              CLCALNUEVAS                     4           LC     Guadalajara                        GUADALAJARA                        19   Guadalajara              ESP                                000000000000000000000000000000000     20141105        201501052018000000000000                    CL/ CALNUEVAS, Nº 4 , Plt LC                      Periodo:201403 Consumo:13                                             00000000                     0000000000000000000000000000                                                  
01000004201440018420000RMant. Contador/Industrial 13                       02400 00500   02900Agua/Industrial 13 (5 Bloq.) (Inactivo)            85910 08591   94501Alcantarillado/Industrial 13 (5 Bloq.) (Inactivo  100100 10010  110110                                                                                                                                                                                                                                                                                                                                                                                          
030200000000002421000000000005                                                                                                                                                                                                                                                                                                                                                                                                                                                                                                                                                                                                      
030100000000085910000000000086                                                                                                                                                                                                                                                                                                                                                                                                                                                                                                                                                                                                      
030300000000100110000000000100                                                                                                                                                                                                                                                                                                                                                                                                                                                                                                                                                                                                      
00000004201440018430400R00000000077803092748F RUIZ SANCHEZ MIGUEL ANGEL                              CLCALNUEVAS                     4           LC     Guadalajara                        GUADALAJARA                        19   Guadalajara              ESP                                000000000000000000000000000000000     20150209        201504092018000000000000                    CL/ CALNUEVAS, Nº 4 , Plt LC                      Periodo:201404 Consumo:0                                              00000000                     0000000000000000000000000000                                                  
01000004201440018430000RMant. Contador/Industrial 13                       02400 00500   02900Agua/Industrial 13 (5 Bloq.) (Inactivo)            40800 04080   44880Alcantarillado/Industrial 13 (5 Bloq.) (Inactivo   27300 02730   30030                                                                                                                                                                                                                                                                                                                                                                                          
030200000000002421000000000005                                                                                                                                                                                                                                                                                                                                                                                                                                                                                                                                                                                                      
030100000000040810000000000041                                                                                                                                                                                                                                                                                                                                                                                                                                                                                                                                                                                                      
030300000000027310000000000027                                                                                                                                                                                                                                                                                                                                                                                                                                                                                                                                                                                                      
00000004200940018900300R000000000722A39000013 BANCO SANTANDER SA                                     PZSAN ANTONIO                   3           04 DC  Guadalajara                        GUADALAJARA                        19   Guadalajara              ESP                                000000000000000000000000000000000     20100408        201006082018000000000000                    PZ/ SAN ANTONIO, Nº 3 , Plt 04 , Pta DC           Periodo:200903 Consumo:0                                              00000000                     0000000000000000000000000000                                                  
01000004200940018900000RAgua/Domestico 13                                  29600 02072   31672Mant. Contador/Domestico 13                        03200 00500   03700Alcantarillado/Domestico 13                        34400 02408   36808                                                                                                                                                                                                                                                                                                                                                                                          
030100000000029607000000000021                                                                                                                                                                                                                                                                                                                                                                                                                                                                                                                                                                                                      
030200000000003216000000000005                                                                                                                                                                                                                                                                                                                                                                                                                                                                                                                                                                                                      
030300000000034407000000000024                                                                                                                                                                                                                                                                                                                                                                                                                                                                                                                                                                                                      
00000004201040018920200R000000009376A39000013 BANCO SANTANDER SA                                     PZSAN ANTONIO                   3           04 DC  Guadalajara                        GUADALAJARA                        19   Guadalajara              ESP                                000000000000000000000000000000000     20101210        201102102018000000000000                    PZ/ SAN ANTONIO, Nº 3 , Plt 04 , Pta DC           Periodo:201002 Consumo:130                                            00000000                     0000000000000000000000000000                                                  
01000004201040018920000RAgua/Domestico 13                                 422390 29567  451957Mant. Contador/Domestico 13                        03200 00500   03700Alcantarillado/Domestico 13                       450400 31528  481928                                                                                                                                                                                                                                                                                                                                                                                          
030100000000422407000000000296                                                                                                                                                                                                                                                                                                                                                                                                                                                                                                                                                                                                      
030200000000003216000000000005                                                                                                                                                                                                                                                                                                                                                                                                                                                                                                                                                                                                      
030300000000450407000000000315                                                                                                                                                                                                                                                                                                                                                                                                                                                                                                                                                                                                      
00000004201040018930300R000000003618A39000013 BANCO SANTANDER SA                                     PZSAN ANTONIO                   3           04 DC  Guadalajara                        GUADALAJARA                        19   Guadalajara              ESP                                000000000000000000000000000000000     20110328        201105302018000000000000                    PZ/ SAN ANTONIO, Nº 3 , Plt 04 , Pta DC           Periodo:201003 Consumo:43                                             00000000                     0000000000000000000000000000                                                  
01000004201040018930000RAgua/Domestico 13                                 159500 12760  172260Mant. Contador/Domestico 13                        03200 00600   03800Alcantarillado/Domestico 13                       171900 13760  185660                                                                                                                                                                                                                                                                                                                                                                                          
030100000000159508000000000128                                                                                                                                                                                                                                                                                                                                                                                                                                                                                                                                                                                                      
030200000000003218000000000006                                                                                                                                                                                                                                                                                                                                                                                                                                                                                                                                                                                                      
030300000000171908000000000138                                                                                                                                                                                                                                                                                                                                                                                                                                                                                                                                                                                                      
00000004201140018940100R000000000746A39000013 BANCO SANTANDER SA                                     PZSAN ANTONIO                   3           04 DC  Guadalajara                        GUADALAJARA                        19   Guadalajara              ESP                                000000000000000000000000000000000     20110715        201109152018000000000000                    PZ/ SAN ANTONIO, Nº 3 , Plt 04 , Pta DC           Periodo:201101 Consumo:0                                              00000000                     0000000000000000000000000000                                                  
01000004201140018940000RAgua/Domestico 13                                  30400 02432   32832Mant. Contador/Domestico 13                        03200 00600   03800Alcantarillado/Domestico 13                        35200 02816   38016                                                                                                                                                                                                                                                                                                                                                                                          
030100000000030408000000000024                                                                                                                                                                                                                                                                                                                                                                                                                                                                                                                                                                                                      
030200000000003218000000000006                                                                                                                                                                                                                                                                                                                                                                                                                                                                                                                                                                                                      
030300000000035208000000000028                                                                                                                                                                                                                                                                                                                                                                                                                                                                                                                                                                                                      
00000004201140018950200R000000004651A39000013 BANCO SANTANDER SA                                     PZSAN ANTONIO                   3           04 DC  Guadalajara                        GUADALAJARA                        19   Guadalajara              ESP                                000000000000000000000000000000000     20111115        201201162018000000000000                    PZ/ SAN ANTONIO, Nº 3 , Plt 04 , Pta DC           Periodo:201102 Consumo:57                                             00000000                     0000000000000000000000000000                                                  
01000004201140018950000RAgua/Domestico 13                                 209560 16765  226325Mant. Contador/Domestico 13                        03200 00600   03800Alcantarillado/Domestico 13                       217500 17408  234908                                                                                                                                                                                                                                                                                                                                                                                          
030100000000209608000000000168                                                                                                                                                                                                                                                                                                                                                                                                                                                                                                                                                                                                      
