00000004202200211600400R00000000423302926974V ROLDAN ALGORA GREGORIA                                 CLMADRID                        21                 Guadalajara                        GUADALAJARA                        19   Guadalajara              ESP                                000000000000000000000000000000000     20230206        202304102023000000000000                    CL/ MADRID, Nº 21                                 Periodo:202204 Consumo:10                                             00000000                     0000000000000000000000000000                                                  
01000004202200211600000RAgua/Domestico 13 (5 Bloq.)                        80200 08020   88220Mant. Contador/Domestico 13                        02400 00504   02904Alcantarillado/Doméstico 13 (5 Bloq.)              68000 06800   74800T.Fijo Agua Cdad./T.Fijo Agua Usuarios Cdad.      135000 13500  148500T.Fijo Alcant. Cdad./T.Fijo Alcant. Usuarios Cda   99000 09900  108900                                                                                                                                                                                                                                              
030100000000080210000000000080                                                                                                                                                                                                                                                                                                                                                                                                                                                                                                                                                                                                      
030200000000002421000000000005                                                                                                                                                                                                                                                                                                                                                                                                                                                                                                                                                                                                      
030300000000068010000000000068                                                                                                                                                                                                                                                                                                                                                                                                                                                                                                                                                                                                      
030300000000135010000000000135                                                                                                                                                                                                                                                                                                                                                                                                                                                                                                                                                                                                      
030300000000099010000000000099                                                                                                                                                                                                                                                                                                                                                                                                                                                                                                                                                                                                      
00000004202200187190400R000000000887B82761289 VISOVAL HISPANIA 2000 CONSTRUC                         CLSAN BERNARDO                  7                  Guadalajara                        GUADALAJARA                        19   Guadalajara              ESP                                000000000000000000000000000000000     20230206        202304102023000000000000                    CL/ SAN BERNARDO, Nº 7                            Periodo:202204 Consumo:0                                              00000000                     0000000000000000000000000000                                                  
01000004202200187190000RAgua/Domestico 13 (5 Bloq.)                        45000 04500   49500Mant. Contador/Domestico 13                        02400 00504   02904Alcantarillado/Doméstico 13 (5 Bloq.)              33000 03300   36300                                                                                                                                                                                                                                                                                                                                                                                          
030100000000045010000000000045                                                                                                                                                                                                                                                                                                                                                                                                                                                                                                                                                                                                      
030200000000002421000000000005                                                                                                                                                                                                                                                                                                                                                                                                                                                                                                                                                                                                      
030300000000033010000000000033                                                                                                                                                                                                                                                                                                                                                                                                                                                                                                                                                                                                      
00000004202200158630400R00000000324609001366V RINCON DEL RIO, PABLO                                  CTCALDERON                      5           01 B   Guadalajara                        GUADALAJARA                        19   Guadalajara              ESP                                000000000000000000000000000000000     20230206        202304102023000000000000                    CT/ CALDERON, Nº 5 , Plt 01 , Pta B               Periodo:202204 Consumo:9                                              00000000                     0000000000000000000000000000                                                  
01000004202200158630000RAgua/Domestico 20 (5 Bloq.)                       151600 15170  166770Mant. Contador/Domestico >13-25                    03300 00693   03993Alcantarillado/Doméstico 20 (5 Bloq.)             139800 13980  153780                                                                                                                                                                                                                                                                                                                                                                                          
030100000000151610000000000152                                                                                                                                                                                                                                                                                                                                                                                                                                                                                                                                                                                                      
030200000000003321000000000007                                                                                                                                                                                                                                                                                                                                                                                                                                                                                                                                                                                                      
030300000000139810000000000140                                                                                                                                                                                                                                                                                                                                                                                                                                                                                                                                                                                                      
00000004202200210040400R00000000088711410595L GOMEZ MOLANO MARTA                                     CLMERCED                        7     A     02 A   Guadalajara                        GUADALAJARA                        19   Guadalajara              ESP                                000000000000000000000000000000000     20230206        202304102023000000000000                    CL/ MERCED, Nº 7, Blq A, Plt 02, Pta A            Periodo:202204 Consumo:0                                              00000000                     0000000000000000000000000000                                                  
01000004202200210040000RAgua/Domestico 13 (5 Bloq.)                        45000 04500   49500Mant. Contador/Domestico 13                        02400 00504   02904Alcantarillado/Doméstico 13 (5 Bloq.)              33000 03300   36300                                                                                                                                                                                                                                                                                                                                                                                          
030100000000045010000000000045                                                                                                                                                                                                                                                                                                                                                                                                                                                                                                                                                                                                      
030200000000002421000000000005                                                                                                                                                                                                                                                                                                                                                                                                                                                                                                                                                                                                      
030300000000033010000000000033                                                                                                                                                                                                                                                                                                                                                                                                                                                                                                                                                                                                      
00000004202200168720400R00000000266351410157M MESIA MARTINEZ, CRISTIAN ALFON                         PZSAN ESTEBAN                   1                  Guadalajara                        GUADALAJARA                        19   Guadalajara              ESP                                000000000000000000000000000000000     20230206        202304102023000000000000                    PZ/ SAN ESTEBAN, Nº 1                             Periodo:202204 Consumo:0                                              00000000                     0000000000000000000000000000                                                  
01000004202200168720000RAgua/Industrial 20 (5 Bloq.)                      127400 12750  140150Mant. Contador/Industrial >13-25                   03300 00693   03993Alcantarillado/Industrial 20 (5 Bloq.)            111000 11100  122100                                                                                                                                                                                                                                                                                                                                                                                          
030100000000127410000000000128                                                                                                                                                                                                                                                                                                                                                                                                                                                                                                                                                                                                      
030200000000003321000000000007                                                                                                                                                                                                                                                                                                                                                                                                                                                                                                                                                                                                      
030300000000111010000000000111                                                                                                                                                                                                                                                                                                                                                                                                                                                                                                                                                                                                      
00000004202200298770400R000000001442B19188226 ABBITA ATOJA INMOBILIARIA SL                           CLSAN ROQUE                     1                  Guadalajara                        GUADALAJARA                        19   Guadalajara              ESP                                000000000000000000000000000000000     20230206        202304102023000000000000                    CL/ SAN ROQUE, Nº 1                               Periodo:202204 Consumo:0                                              00000000                     0000000000000000000000000000                                                  
01000004202200298770000RAgua/Industrial 20 (5 Bloq.)                      127400 12750  140150Mant. Contador/Industrial >13-25                   03300 00693   03993                                                                                                                                                                                                                                                                                                                                                                                                                                                                
030100000000127410000000000128                                                                                                                                                                                                                                                                                                                                                                                                                                                                                                                                                                                                      
030200000000003321000000000007                                                                                                                                                                                                                                                                                                                                                                                                                                                                                                                                                                                                      
00000004202200215450400R00000000328703064989D RIO DEL LUCAS DE RAMON                                 CLJOSE ANTONIO OCHAITA          34                 Guadalajara                        GUADALAJARA                        19   Guadalajara              ESP                                000000000000000000000000000000000     20230206        202304102023000000000000                    CL/ JOSE ANTONIO OCHAITA, Nº 34                   Periodo:202204 Consumo:31                                             00000000                     0000000000000000000000000000                                                  
01000004202200215450000RAgua/Domestico 13 (5 Bloq.)                       154500 15460  169960Mant. Contador/Domestico 13                        02400 00504   02904Alcantarillado/Doméstico 13 (5 Bloq.)             141600 14160  155760                                                                                                                                                                                                                                                                                                                                                                                          
030100000000154510000000000155                                                                                                                                                                                                                                                                                                                                                                                                                                                                                                                                                                                                      
030200000000002421000000000005                                                                                                                                                                                                                                                                                                                                                                                                                                                                                                                                                                                                      
030300000000141610000000000142                                                                                                                                                                                                                                                                                                                                                                                                                                                                                                                                                                                                      
00000004202240069630400R00000000455903096617N BENITO CAMARILLO LUIS                                  AVGUADALAJARA                   14    B            Guadalajara                        GUADALAJARA                        19   Guadalajara              ESP                                000000000000000000000000000000000     20230206        202304102023000000000000                    AV/ GUADALAJARA, Nº 14 , Blq B                    Periodo:202204 Consumo:26                                             00000000                     0000000000000000000000000000                                                  
01000004202240069630000RAgua/Domestico 20 (5 Bloq.)                       211500 21150  232650Mant. Contador/Domestico >13-25                    03300 00693   03993Alcantarillado/Doméstico 20 (5 Bloq.)             199300 19930  219230                                                                                                                                                                                                                                                                                                                                                                                          
030100000000211510000000000212                                                                                                                                                                                                                                                                                                                                                                                                                                                                                                                                                                                                      
030200000000003321000000000007                                                                                                                                                                                                                                                                                                                                                                                                                                                                                                                                                                                                      
030300000000199310000000000199                                                                                                                                                                                                                                                                                                                                                                                                                                                                                                                                                                                                      
00000004202200181590400R000000000920A19018092 COMPLEJO CONCORDIA SA                                  CLMARIA PACHECO                 58                 Guadalajara                        GUADALAJARA                        19   Guadalajara              ESP                                000000000000000000000000000000000     20230206        202304102023000000000000                    CL/ MARIA PACHECO, Nº 58                          Periodo:202204 Consumo:0                                              00000000                     0000000000000000000000000000                                                  
01000004202200181590000RAgua/Industrial 13 (5 Bloq.)                       42000 04200   46200Mant. Contador/Industrial 13                       02400 00504   02904Alcantarillado/Industrial 13 (5 Bloq.)             39000 03900   42900                                                                                                                                                                                                                                                                                                                                                                                          
030100000000042010000000000042                                                                                                                                                                                                                                                                                                                                                                                                                                                                                                                                                                                                      
030200000000002421000000000005                                                                                                                                                                                                                                                                                                                                                                                                                                                                                                                                                                                                      
030300000000039010000000000039                                                                                                                                                                                                                                                                                                                                                                                                                                                                                                                                                                                                      
00000004202200218510400R00000000235403104778P HERAS VALLADAR MARIA PEÑAHORA                          CLCAM. VIEJO CABANILLAS         28                 Guadalajara                        GUADALAJARA                        19   Guadalajara              ESP                                000000000000000000000000000000000     20230206        202304102023000000000000                    CL/ CAM. VIEJO CABANILLAS, Nº 28                  Periodo:202204 Consumo:19                                             00000000                     0000000000000000000000000000                                                  
01000004202200218510000RAgua/Domestico 13 (5 Bloq.)                       111800 11190  122990Mant. Contador/Domestico 13                        02400 00504   02904Alcantarillado/Doméstico 13 (5 Bloq.)              99500 09950  109450                                                                                                                                                                                                                                                                                                                                                                                          
030100000000111810000000000112                                                                                                                                                                                                                                                                                                                                                                                                                                                                                                                                                                                                      
030200000000002421000000000005                                                                                                                                                                                                                                                                                                                                                                                                                                                                                                                                                                                                      
030300000000099510000000000100                                                                                                                                                                                                                                                                                                                                                                                                                                                                                                                                                                                                      
00000004202240041420400R00000000266303085379K LARENA BAILON JESUS                                    AVCRISTOBAL COLON               209         NV 01  Guadalajara                        GUADALAJARA                        19   Guadalajara              ESP                                000000000000000000000000000000000     20230206        202304102023000000000000                    AV/ CRISTOBAL COLON, Nº 209 , Plt NV , Pta 01     Periodo:202204 Consumo:0                                              00000000                     0000000000000000000000000000                                                  
01000004202240041420000RAgua/Industrial 20 (5 Bloq.)                      127400 12750  140150Mant. Contador/Industrial >13-25                   03300 00693   03993Alcantarillado/Industrial 20 (5 Bloq.)            111000 11100  122100                                                                                                                                                                                                                                                                                                                                                                                          
030100000000127410000000000128                                                                                                                                                                                                                                                                                                                                                                                                                                                                                                                                                                                                      
030200000000003321000000000007                                                                                                                                                                                                                                                                                                                                                                                                                                                                                                                                                                                                      
030300000000111010000000000111                                                                                                                                                                                                                                                                                                                                                                                                                                                                                                                                                                                                      
00000004202240041430400R00000000164703085379K LARENA BAILON JESUS                                    AVCRISTOBAL COLON               209         NV 01  Guadalajara                        GUADALAJARA                        19   Guadalajara              ESP                                000000000000000000000000000000000     20230206        202304102023000000000000                    AV/ CRISTOBAL COLON, Nº 209 , Plt NV , Pta 01 , COPeriodo:202204 Consumo:0                                              00000000                     0000000000000000000000000000                                                  
01000004202240041430000RAgua/Boca de Incendio (5 Bloq.)                   149700 14970  164670Alcantarillado/Boca de Incendios (5 Bloq.)         00000 00000   00000                                                                                                                                                                                                                                                                                                                                                                                                                                                                
030100000000149710000000000150                                                                                                                                                                                                                                                                                                                                                                                                                                                                                                                                                                                                      
030300000000000010000000000000                                                                                                                                                                                                                                                                                                                                                                                                                                                                                                                                                                                                      
00000004202200162800400R00000000092003009841S LOPEZ ALONSO, NATIVIDAD                                CLBARDALES                      4           LC     Guadalajara                        GUADALAJARA                        19   Guadalajara              ESP                                000000000000000000000000000000000     20230206        202304102023000000000000                    CL/ BARDALES, Nº 4 , Plt LC                       Periodo:202204 Consumo:0                                              00000000                     0000000000000000000000000000                                                  
01000004202200162800000RAgua/Industrial 13 (5 Bloq.)                       42000 04200   46200Mant. Contador/Industrial 13                       02400 00504   02904Alcantarillado/Industrial 13 (5 Bloq.)             39000 03900   42900                                                                                                                                                                                                                                                                                                                                                                                          
030100000000042010000000000042                                                                                                                                                                                                                                                                                                                                                                                                                                                                                                                                                                                                      
030200000000002421000000000005                                                                                                                                                                                                                                                                                                                                                                                                                                                                                                                                                                                                      
030300000000039010000000000039                                                                                                                                                                                                                                                                                                                                                                                                                                                                                                                                                                                                      
00000004202200243780400R00000000479350024798M GONZALEZ LAZARO ROSA MARIA                             CLSIERRA MINISTRA               6                  Guadalajara                        GUADALAJARA                        19   Guadalajara              ESP                                000000000000000000000000000000000     20230206        202304102023000000000000                    CL/ SIERRA MINISTRA, Nº 6                         Periodo:202204 Consumo:29                                             00000000                     0000000000000000000000000000                                                  
01000004202200243780000RAgua/Domestico 20 (5 Bloq.)                       222300 22230  244530Mant. Contador/Domestico >13-25                    03300 00693   03993Alcantarillado/Doméstico 20 (5 Bloq.)             209800 20980  230780                                                                                                                                                                                                                                                                                                                                                                                          
030100000000222310000000000222                                                                                                                                                                                                                                                                                                                                                                                                                                                                                                                                                                                                      
030200000000003321000000000007                                                                                                                                                                                                                                                                                                                                                                                                                                                                                                                                                                                                      
030300000000209810000000000210                                                                                                                                                                                                                                                                                                                                                                                                                                                                                                                                                                                                      
00000004202200163110400R00000000135008992641D BLANCO MORENO MANUEL                                   CLMAYOR                         7           02     Guadalajara                        GUADALAJARA                        19   Guadalajara              ESP                                000000000000000000000000000000000     20230206        202304102023000000000000                    CL/ MAYOR, Nº 7 , Plt 02                          Periodo:202204 Consumo:6                                              00000000                     0000000000000000000000000000                                                  
01000004202200163110000RAgua/Domestico 13 (5 Bloq.)                        66100 06610   72710Mant. Contador/Domestico 13                        02400 00504   02904Alcantarillado/Doméstico 13 (5 Bloq.)              54000 05400   59400                                                                                                                                                                                                                                                                                                                                                                                          
030100000000066110000000000066                                                                                                                                                                                                                                                                                                                                                                                                                                                                                                                                                                                                      
030200000000002421000000000005                                                                                                                                                                                                                                                                                                                                                                                                                                                                                                                                                                                                      
030300000000054010000000000054                                                                                                                                                                                                                                                                                                                                                                                                                                                                                                                                                                                                      
00000004202200243230400R00000000503103106540E MANZANO MERINO DOLORES                                 CLPICO OCEJON                   77                 Guadalajara                        GUADALAJARA                        19   Guadalajara              ESP                                000000000000000000000000000000000     20230206        202304102023000000000000                    CL/ PICO OCEJON, Nº 77                            Periodo:202204 Consumo:32                                             00000000                     0000000000000000000000000000                                                  
01000004202200243230000RAgua/Domestico 20 (5 Bloq.)                       233400 23330  256730Mant. Contador/Domestico >13-25                    03300 00693   03993Alcantarillado/Doméstico 20 (5 Bloq.)             220400 22040  242440                                                                                                                                                                                                                                                                                                                                                                                          
030100000000233410000000000233                                                                                                                                                                                                                                                                                                                                                                                                                                                                                                                                                                                                      
030200000000003321000000000007                                                                                                                                                                                                                                                                                                                                                                                                                                                                                                                                                                                                      
030300000000220410000000000220                                                                                                                                                                                                                                                                                                                                                                                                                                                                                                                                                                                                      
00000004202200201070400R000000001527B88178694 CORAL HOMES S.L.U.                                     CLMIGUEL FLUITERS               41                 Guadalajara                        GUADALAJARA                        19   Guadalajara              ESP                                000000000000000000000000000000000     20230206        202304102023000000000000                    CL/ MIGUEL FLUITERS, Nº 41                        Periodo:202204 Consumo:6                                              00000000                     0000000000000000000000000000                                                  
01000004202200201070000RAgua/Industrial 13 (5 Bloq.)                       63100 06310   69410Mant. Contador/Industrial 13                       02400 00504   02904Alcantarillado/Industrial 13 (5 Bloq.)             73100 07310   80410                                                                                                                                                                                                                                                                                                                                                                                          
030100000000063110000000000063                                                                                                                                                                                                                                                                                                                                                                                                                                                                                                                                                                                                      
030200000000002421000000000005                                                                                                                                                                                                                                                                                                                                                                                                                                                                                                                                                                                                      
030300000000073110000000000073                                                                                                                                                                                                                                                                                                                                                                                                                                                                                                                                                                                                      
00000004202200243250400R00000000425003096834E CASADO MARTINEZ JOSE LUIS                              CLPICO OCEJON                   81                 Guadalajara                        GUADALAJARA                        19   Guadalajara              ESP                                000000000000000000000000000000000     20230206        202304102023000000000000                    CL/ PICO OCEJON, Nº 81                            Periodo:202204 Consumo:22                                             00000000                     0000000000000000000000000000                                                  
01000004202200243250000RAgua/Domestico 20 (5 Bloq.)                       197500 19740  217240Mant. Contador/Domestico >13-25                    03300 00693   03993Alcantarillado/Doméstico 20 (5 Bloq.)             185300 18530  203830                                                                                                                                                                                                                                                                                                                                                                                          
030100000000197510000000000197                                                                                                                                                                                                                                                                                                                                                                                                                                                                                                                                                                                                      
030200000000003321000000000007                                                                                                                                                                                                                                                                                                                                                                                                                                                                                                                                                                                                      
030300000000185310000000000185                                                                                                                                                                                                                                                                                                                                                                                                                                                                                                                                                                                                      
00000004202200248990400R000000000964H19169473 CDAD PROP C/ ARCA DEL AGUA 10                          CLARCA DEL AGUA                 10          CD     Guadalajara                        GUADALAJARA                        19   Guadalajara              ESP                                000000000000000000000000000000000     20230206        202304102023000000000000                    CL/ ARCA DEL AGUA, Nº 10 , Plt CD                 Periodo:202204 Consumo:1                                              00000000                     0000000000000000000000000000                                                  
01000004202200248990000RAgua/Domestico 13 (5 Bloq.)                        48400 04850   53250Mant. Contador/Domestico 13                        02400 00504   02904Alcantarillado/Doméstico 13 (5 Bloq.)              36500 03650   40150                                                                                                                                                                                                                                                                                                                                                                                          
030100000000048410000000000049                                                                                                                                                                                                                                                                                                                                                                                                                                                                                                                                                                                                      
030200000000002421000000000005                                                                                                                                                                                                                                                                                                                                                                                                                                                                                                                                                                                                      
030300000000036510000000000037                                                                                                                                                                                                                                                                                                                                                                                                                                                                                                                                                                                                      
00000004202200200340400R00000000203603079590M ORTEGA NOVA JOSE LUIS                                  CLMIGUEL FLUITERS               22                 Guadalajara                        GUADALAJARA                        19   Guadalajara              ESP                                000000000000000000000000000000000     20230206        202304102023000000000000                    CL/ MIGUEL FLUITERS, Nº 22                        Periodo:202204 Consumo:0                                              00000000                     0000000000000000000000000000                                                  
01000004202200200340000RAgua/Domestico 15 (5 Bloq.)                       100400 10050  110450Mant. Contador/Domestico >13-25                    03300 00693   03993Alcantarillado/Doméstico 15 (5 Bloq.)              81000 08100   89100                                                                                                                                                                                                                                                                                                                                                                                          
030100000000100410000000000101                                                                                                                                                                                                                                                                                                                                                                                                                                                                                                                                                                                                      
030200000000003321000000000007                                                                                                                                                                                                                                                                                                                                                                                                                                                                                                                                                                                                      
030300000000081010000000000081                                                                                                                                                                                                                                                                                                                                                                                                                                                                                                                                                                                                      
00000004202200188260400R00000000203603050045S GARRIDO MOCHALES FRANCISCO                             AVBARCELONA                     21          01 B   Guadalajara                        GUADALAJARA                        19   Guadalajara              ESP                                000000000000000000000000000000000     20230206        202304102023000000000000                    AV/ BARCELONA, Nº 21 , Plt 01 , Pta B             Periodo:202204 Consumo:0                                              00000000                     0000000000000000000000000000                                                  
01000004202200188260000RAgua/Domestico 15 (5 Bloq.)                       100400 10050  110450Mant. Contador/Domestico >13-25                    03300 00693   03993Alcantarillado/Doméstico 15 (5 Bloq.)              81000 08100   89100                                                                                                                                                                                                                                                                                                                                                                                          
030100000000100410000000000101                                                                                                                                                                                                                                                                                                                                                                                                                                                                                                                                                                                                      
030200000000003321000000000007                                                                                                                                                                                                                                                                                                                                                                                                                                                                                                                                                                                                      
030300000000081010000000000081                                                                                                                                                                                                                                                                                                                                                                                                                                                                                                                                                                                                      
00000004202200198720400R00000002079502921789F BUQUERIN DEL CASTILLO PERPETUA                         CLSAN JUAN DE DIOS              12                 Guadalajara                        GUADALAJARA                        19   Guadalajara              ESP                                000000000000000000000000000000000     20230206        202304102023000000000000                    CL/ SAN JUAN DE DIOS, Nº 12                       Periodo:202204 Consumo:216                                            00000000                     0000000000000000000000000000                                                  
01000004202200198720000RAgua/Domestico 13 (5 Bloq.)                       859200 85920  945120Mant. Contador/Domestico 13                        02400 00504   02904Alcantarillado/Doméstico 13 (5 Bloq.)             794600 79460  874060T.Fijo Agua Cdad./T.Fijo Agua Usuarios Cdad.      135000 13500  148500T.Fijo Alcant. Cdad./T.Fijo Alcant. Usuarios Cda   99000 09900  108900                                                                                                                                                                                                                                              
030100000000859210000000000859                                                                                                                                                                                                                                                                                                                                                                                                                                                                                                                                                                                                      
030200000000002421000000000005                                                                                                                                                                                                                                                                                                                                                                                                                                                                                                                                                                                                      
030300000000794610000000000795                                                                                                                                                                                                                                                                                                                                                                                                                                                                                                                                                                                                      
030300000000135010000000000135                                                                                                                                                                                                                                                                                                                                                                                                                                                                                                                                                                                                      
030300000000099010000000000099                                                                                                                                                                                                                                                                                                                                                                                                                                                                                                                                                                                                      
00000004202200171100400R000000003906A19152586 PROMOCIONES INMOBILIARIAS RUIZ                         CLARCIPRESTE DE HITA            6           BJ     Guadalajara                        GUADALAJARA                        19   Guadalajara              ESP                                000000000000000000000000000000000     20230206        202304102023000000000000                    CL/ ARCIPRESTE DE HITA, Nº 6 , Plt BJ             Periodo:202204 Consumo:2                                              00000000                     0000000000000000000000000000                                                  
01000004202200171100000RAgua/Domestico 15 (5 Bloq.)                       107400 10750  118150Mant. Contador/Domestico >13-25                    03300 00693   03993Alcantarillado/Doméstico 15 (5 Bloq.)              88000 08800   96800T.Fijo Agua Cdad./T.Fijo Agua Usuarios Cdad.       90000 09000   99000T.Fijo Alcant. Cdad./T.Fijo Alcant. Usuarios Cda   66000 06600   72600                                                                                                                                                                                                                                              
030100000000107410000000000108                                                                                                                                                                                                                                                                                                                                                                                                                                                                                                                                                                                                      
030200000000003321000000000007                                                                                                                                                                                                                                                                                                                                                                                                                                                                                                                                                                                                      
030300000000088010000000000088                                                                                                                                                                                                                                                                                                                                                                                                                                                                                                                                                                                                      
030300000000090010000000000090                                                                                                                                                                                                                                                                                                                                                                                                                                                                                                                                                                                                      
030300000000066010000000000066                                                                                                                                                                                                                                                                                                                                                                                                                                                                                                                                                                                                      
00000004202200297090400R00000000104102999562V BERMEJO VARAS BENEDICTA                                CLDOCTOR SERRANO                6     B     02     Guadalajara                        GUADALAJARA                        19   Guadalajara              ESP                                000000000000000000000000000000000     20230206        202304102023000000000000                    CL/ DOCTOR SERRANO, Nº 6 , Blq B , Plt 02         Periodo:202204 Consumo:2                                              00000000                     0000000000000000000000000000                                                  
01000004202200297090000RAgua/Domestico 13 (5 Bloq.)                        52000 05200   57200Mant. Contador/Domestico 13                        02400 00504   02904Alcantarillado/Doméstico 13 (5 Bloq.)              40000 04000   44000                                                                                                                                                                                                                                                                                                                                                                                          
030100000000052010000000000052                                                                                                                                                                                                                                                                                                                                                                                                                                                                                                                                                                                                      
030200000000002421000000000005                                                                                                                                                                                                                                                                                                                                                                                                                                                                                                                                                                                                      
030300000000040010000000000040                                                                                                                                                                                                                                                                                                                                                                                                                                                                                                                                                                                                      
00000004202200180040400R00000000092003127985P BLANCO ROMERO, ENCARNACION                             CLCARRERA, LA                   51          LC DC  Guadalajara                        GUADALAJARA                        19   Guadalajara              ESP                                000000000000000000000000000000000     20230206        202304102023000000000000                    CL/ CARRERA, LA, Nº 51, Plt LC , Pta DC , ANTES N.Periodo:202204 Consumo:0                                              00000000                     0000000000000000000000000000                                                  
01000004202200180040000RAgua/Industrial 13 (5 Bloq.)                       42000 04200   46200Mant. Contador/Industrial 13                       02400 00504   02904Alcantarillado/Industrial 13 (5 Bloq.)             39000 03900   42900                                                                                                                                                                                                                                                                                                                                                                                          
030100000000042010000000000042                                                                                                                                                                                                                                                                                                                                                                                                                                                                                                                                                                                                      
030200000000002421000000000005                                                                                                                                                                                                                                                                                                                                                                                                                                                                                                                                                                                                      
030300000000039010000000000039                                                                                                                                                                                                                                                                                                                                                                                                                                                                                                                                                                                                      
00000004202200333460400R00000000907003057499V GARCIA DEL VALLE AMPARO                                CLTOLEDO                        13                 Guadalajara                        GUADALAJARA                        19   Guadalajara              ESP                                000000000000000000000000000000000     20230206        202304102023000000000000                    CL/ TOLEDO, Nº 13                                 Periodo:202204 Consumo:63                                             00000000                     0000000000000000000000000000                                                  
01000004202200333460000RAgua/Domestico 40 (5 Bloq.)                       405000 40500  445500Mant. Contador/Domestico >30-40                    06600 01386   07986Alcantarillado/Doméstico 40 (5 Bloq.)             412300 41230  453530                                                                                                                                                                                                                                                                                                                                                                                          
030100000000405010000000000405                                                                                                                                                                                                                                                                                                                                                                                                                                                                                                                                                                                                      
030200000000006621000000000014                                                                                                                                                                                                                                                                                                                                                                                                                                                                                                                                                                                                      
030300000000412310000000000412                                                                                                                                                                                                                                                                                                                                                                                                                                                                                                                                                                                                      
00000004202240043300400R000000000887D00000502 GAMO MARTINEZ VIUDA DE FELIX                           CLCARRETERA DE FONTANAR         5                  Guadalajara                        GUADALAJARA                        19   Guadalajara              ESP                                000000000000000000000000000000000     20230206        202304102023000000000000                    CL/ CARRETERA DE FONTANAR, Nº 5                   Periodo:202204 Consumo:0                                              00000000                     0000000000000000000000000000                                                  
01000004202240043300000RAgua/Domestico 13 (5 Bloq.)                        45000 04500   49500Mant. Contador/Domestico 13                        02400 00504   02904Alcantarillado/Doméstico 13 (5 Bloq.)              33000 03300   36300                                                                                                                                                                                                                                                                                                                                                                                          
030100000000045010000000000045                                                                                                                                                                                                                                                                                                                                                                                                                                                                                                                                                                                                      
030200000000002421000000000005                                                                                                                                                                                                                                                                                                                                                                                                                                                                                                                                                                                                      
030300000000033010000000000033                                                                                                                                                                                                                                                                                                                                                                                                                                                                                                                                                                                                      
00000004202240098960400R00000000581903451181P MENDOZA LATORRE, MARIANO                               CLCAÑAS, LAS                    60                 Guadalajara                        GUADALAJARA                        19   Guadalajara              ESP                                000000000000000000000000000000000     20230206        202304102023000000000000                    CL/ CAÑAS, LAS, Nº 60                             Periodo:202204 Consumo:42                                             00000000                     0000000000000000000000000000                                                  
01000004202240098960000RAgua/Domestico 20 (5 Bloq.)                       269700 26980  296680Mant. Contador/Domestico >13-25                    03300 00693   03993Alcantarillado/Doméstico 20 (5 Bloq.)             255600 25560  281160                                                                                                                                                                                                                                                                                                                                                                                          
030100000000269710000000000270                                                                                                                                                                                                                                                                                                                                                                                                                                                                                                                                                                                                      
030200000000003321000000000007                                                                                                                                                                                                                                                                                                                                                                                                                                                                                                                                                                                                      
030300000000255610000000000256                                                                                                                                                                                                                                                                                                                                                                                                                                                                                                                                                                                                      
00000004202200151670400R00000000132503057752V DOMINGUEZ GAMO, ALBERTO BRIGID                         CLINGENIERO MARIÑO              25                 Guadalajara                        GUADALAJARA                        19   Guadalajara              ESP                                000000000000000000000000000000000     20230206        202304102023000000000000                    CL/ INGENIERO MARIÑO, Nº 25                       Periodo:202204 Consumo:4                                              00000000                     0000000000000000000000000000                                                  
01000004202200151670000RAgua/Industrial 13 (5 Bloq.)                       56100 05610   61710Mant. Contador/Industrial 13                       02400 00504   02904Alcantarillado/Industrial 13 (5 Bloq.)             61700 06170   67870                                                                                                                                                                                                                                                                                                                                                                                          
030100000000056110000000000056                                                                                                                                                                                                                                                                                                                                                                                                                                                                                                                                                                                                      
030200000000002421000000000005                                                                                                                                                                                                                                                                                                                                                                                                                                                                                                                                                                                                      
030300000000061710000000000062                                                                                                                                                                                                                                                                                                                                                                                                                                                                                                                                                                                                      
00000004202200212310400R00000000104103060836L LOPEZ HERNANDO VICTOR                                  CLFRANCISCO ARITIO              15                 Guadalajara                        GUADALAJARA                        19   Guadalajara              ESP                                000000000000000000000000000000000     20230206        202304102023000000000000                    CL/ FRANCISCO ARITIO, Nº 15                       Periodo:202204 Consumo:2                                              00000000                     0000000000000000000000000000                                                  
01000004202200212310000RAgua/Domestico 13 (5 Bloq.)                        52000 05200   57200Mant. Contador/Domestico 13                        02400 00504   02904Alcantarillado/Doméstico 13 (5 Bloq.)              40000 04000   44000                                                                                                                                                                                                                                                                                                                                                                                          
030100000000052010000000000052                                                                                                                                                                                                                                                                                                                                                                                                                                                                                                                                                                                                      
030200000000002421000000000005                                                                                                                                                                                                                                                                                                                                                                                                                                                                                                                                                                                                      
030300000000040010000000000040                                                                                                                                                                                                                                                                                                                                                                                                                                                                                                                                                                                                      
00000004202200196300400R00000000104100705337L PIÑAR JIMENEZ CARLOS                                   CLATIENZA                       13                 Guadalajara                        GUADALAJARA                        19   Guadalajara              ESP                                000000000000000000000000000000000     20230206        202304102023000000000000                    CL/ ATIENZA, Nº 13                                Periodo:202204 Consumo:2                                              00000000                     0000000000000000000000000000                                                  
01000004202200196300000RAgua/Domestico 13 (5 Bloq.)                        52000 05200   57200Mant. Contador/Domestico 13                        02400 00504   02904Alcantarillado/Doméstico 13 (5 Bloq.)              40000 04000   44000                                                                                                                                                                                                                                                                                                                                                                                          
030100000000052010000000000052                                                                                                                                                                                                                                                                                                                                                                                                                                                                                                                                                                                                      
030200000000002421000000000005                                                                                                                                                                                                                                                                                                                                                                                                                                                                                                                                                                                                      
030300000000040010000000000040                                                                                                                                                                                                                                                                                                                                                                                                                                                                                                                                                                                                      
00000004202200196250400R00000000104103017899T CIFUENTES CALVO DOLORES                                CLATIENZA                       3                  Guadalajara                        GUADALAJARA                        19   Guadalajara              ESP                                000000000000000000000000000000000     20230206        202304102023000000000000                    CL/ ATIENZA, Nº 3                                 Periodo:202204 Consumo:2                                              00000000                     0000000000000000000000000000                                                  
01000004202200196250000RAgua/Domestico 13 (5 Bloq.)                        52000 05200   57200Mant. Contador/Domestico 13                        02400 00504   02904Alcantarillado/Doméstico 13 (5 Bloq.)              40000 04000   44000                                                                                                                                                                                                                                                                                                                                                                                          
030100000000052010000000000052                                                                                                                                                                                                                                                                                                                                                                                                                                                                                                                                                                                                      
030200000000002421000000000005                                                                                                                                                                                                                                                                                                                                                                                                                                                                                                                                                                                                      
