00000004201664001160000R000000005779H19298819 CDAD PROP CALLE ALBACETE 4-6                           CLALBACETE                      4                  Guadalajara                        GUADALAJARA                        19   Guadalajara              ESP                                000000000000000000000000000000000     20160203        201604032016000000000000                    CL/ ALBACETE, Nº 4                                Periodo:000001 Consumo:                                               00000000                     0000000000000000000000000000                                                  
01000004000064001160000RAlcantarillado/Domestico >13-25                   244800 24500  269300Alcantarillado/Doméstico >13-25 (5 Bloq.) (Inact  280500 28100  308600                                                                                                                                                                                                                                                                                                                                                                                                                                                                
030300000000244810000000000245                                                                                                                                                                                                                                                                                                                                                                                                                                                                                                                                                                                                      
030300000000280510000000000281                                                                                                                                                                                                                                                                                                                                                                                                                                                                                                                                                                                                      
00000004201840014250000R00000002488200688777L GONZALEZ GARCIA MARIA ANGELES                          CLJUAN IGNACIO BEGOÑA           51                 Guadalajara                        GUADALAJARA                        19   Guadalajara              ESP                                000000000000000000000000000000000     20180903        201811022018000000000000                    CL/ JUAN IGNACIO BEGOÑA, Nº 51                    Periodo:000006 Consumo:                                               00000000                     0000000000000000000000000000                                                  
01000004000040014250000RServicios de corte/Corte/Reconexión Diurno 8-19  2056400431844 2488244                                                                                                                                                                                                                                                                                                                                                                                                                                                                                                                                      
030300000002056421000000004318                                                                                                                                                                                                                                                                                                                                                                                                                                                                                                                                                                                                      
00000004201000006940000R00000000351502932260J RAMIREZ GONZALEZ ANTONIA                               PZSAN ESTEBAN                   2                  Guadalajara                        GUADALAJARA                        19   Guadalajara              ESP                                000000000000000000000000000000000     20100428        201006272010000000000000                    PZ/ SAN ESTEBAN, Nº 2                             Periodo:000002 Consumo:0                                              00000000                     0000000000000000000000000000                                                  
01000004000000006940000RAgua/Domestico >25-30                             147600 10300  157900Mant. Contador/Domestico >25-30                    06400 01000   07400Alcantarillado/Domestico >25-30                   174000 12200  186200                                                                                                                                                                                                                                                                                                                                                                                          
030100000000147607000000000103                                                                                                                                                                                                                                                                                                                                                                                                                                                                                                                                                                                                      
030200000000006416000000000010                                                                                                                                                                                                                                                                                                                                                                                                                                                                                                                                                                                                      
030300000000174007000000000122                                                                                                                                                                                                                                                                                                                                                                                                                                                                                                                                                                                                      
00000004201664009170000R000000006015A79035713 RATIOINVER SA                                          CLFRANCISCO ARITIO              12                 Guadalajara                        GUADALAJARA                        19   Guadalajara              ESP                                000000000000000000000000000000000     20160817        201610162016000000000000                    CL/ FRANCISCO ARITIO, Nº 12                       Periodo:000002 Consumo:                                               00000000                     0000000000000000000000000000                                                  
01000004000064009170000RBaja en el Servicio de Agua/Baja en el servicio   157000 15700  172700Contadores/Instalación de precinto en Contador    354400 74400  428800                                                                                                                                                                                                                                                                                                                                                                                                                                                                
030300000000157010000000000157                                                                                                                                                                                                                                                                                                                                                                                                                                                                                                                                                                                                      
030300000000354421000000000744                                                                                                                                                                                                                                                                                                                                                                                                                                                                                                                                                                                                      
00000004201640011120000R00000003939502954756S TOLEDANO LUQUE AGAPITO                                 PZDE ESPAÑA                     3                  Guadalajara                        GUADALAJARA                        19   Guadalajara              ESP                                000000000000000000000000000000000     20161020        201612192016000000000000                    PZ/ DE ESPAÑA, Nº 3                               Periodo:000001 Consumo:362                                            00000000                     0000000000000000000000000000                                                  
01000004000040011120000RAgua/Industrial 13 (5 Bloq.) (Inactivo)          1500900150100 1651000Mant. Contador/Industrial 13                       02400 00500   02900Alcantarillado/Industrial 13 (5 Bloq.) (Inactivo 2077800207800 2285600                                                                                                                                                                                                                                                                                                                                                                                          
030100000001500910000000001501                                                                                                                                                                                                                                                                                                                                                                                                                                                                                                                                                                                                      
030200000000002421000000000005                                                                                                                                                                                                                                                                                                                                                                                                                                                                                                                                                                                                      
030300000002077810000000002078                                                                                                                                                                                                                                                                                                                                                                                                                                                                                                                                                                                                      
00000004201664005600000R00000000601503046612D RODRIGUEZ BLAS MARIA LUISA                             CLDOCTOR CREUS                  44          BJ IZ  Guadalajara                        GUADALAJARA                        19   Guadalajara              ESP                                000000000000000000000000000000000     20160517        201607162016000000000000                    CL/ DOCTOR CREUS, Nº 44 , Plt BJ , Pta IZ         Periodo:000002 Consumo:                                               00000000                     0000000000000000000000000000                                                  
01000004000064005600000RBaja en el Servicio de Agua/Baja en el servicio   157000 15700  172700Contadores/Instalación de precinto en Contador    354400 74400  428800                                                                                                                                                                                                                                                                                                                                                                                                                                                                
030300000000157010000000000157                                                                                                                                                                                                                                                                                                                                                                                                                                                                                                                                                                                                      
030300000000354421000000000744                                                                                                                                                                                                                                                                                                                                                                                                                                                                                                                                                                                                      
00000004201994007860000R00000000876803062652H ALCAZAR DOMINGUEZ ALEJANDRO                            CLDOCTOR CREUS                  10          PL     Guadalajara                        GUADALAJARA                        19   Guadalajara              ESP                                000000000000000000000000000000000     20190525        201907242019000000000000                    CL/ DOCTOR CREUS, Nº 10 , Plt PL                  Periodo:000002 Consumo:                                               00000000                     0000000000000000000000000000                                                  
01000004000094007860000RBaja en el Servicio de Agua/Baja en el servicio   157000 15700  172700Servicios de corte/Corte en llave registro para   581900122199  704099                                                                                                                                                                                                                                                                                                                                                                                                                                                                
030300000000157010000000000157                                                                                                                                                                                                                                                                                                                                                                                                                                                                                                                                                                                                      
030300000000581921000000001222                                                                                                                                                                                                                                                                                                                                                                                                                                                                                                                                                                                                      
00000004201664005520000R000000006015G28029007 CAJA DE AHORROS Y MONTE DE PIE                         AVBURGOS                        12    A     04 C   Guadalajara                        GUADALAJARA                        19   Guadalajara              ESP                                000000000000000000000000000000000     20160517        201607162016000000000000                    AV/ BURGOS, Nº 12 , Blq A , Plt 04 , Pta C        Periodo:000002 Consumo:                                               00000000                     0000000000000000000000000000                                                  
01000004000064005520000RBaja en el Servicio de Agua/Baja en el servicio   157000 15700  172700Contadores/Instalación de precinto en Contador    354400 74400  428800                                                                                                                                                                                                                                                                                                                                                                                                                                                                
030300000000157010000000000157                                                                                                                                                                                                                                                                                                                                                                                                                                                                                                                                                                                                      
030300000000354421000000000744                                                                                                                                                                                                                                                                                                                                                                                                                                                                                                                                                                                                      
00000004202334008950000R000000007041E19035468 C PROPIETARIOS VIRGEN DEL AMPA                         CLVIRGEN DEL AMPARO             48                 Guadalajara                        GUADALAJARA                        19   Guadalajara              ESP                                000000000000000000000000000000000     20230606        202308052023000000000000                    CL/ VIRGEN DEL AMPARO, Nº 48                      Periodo:000006 Consumo:                                               00000000                     0000000000000000000000000000                                                  
01000004000034008950000RServicios de corte/Corte en llave registro para   581900122199  704099                                                                                                                                                                                                                                                                                                                                                                                                                                                                                                                                      
030300000000581921000000001222                                                                                                                                                                                                                                                                                                                                                                                                                                                                                                                                                                                                      
00000004201540072260000R000000006015B84156207 URBANIJAR IBERICA SL                                   CLDOCT. RAFAEL DE LA RICA       19          BJ     Guadalajara                        GUADALAJARA                        19   Guadalajara              ESP                                000000000000000000000000000000000     20150921        201511202015000000000000                    CL/ DOCT. RAFAEL DE LA RICA, Nº 19 , Plt BJ       Periodo:000004 Consumo:                                               00000000                     0000000000000000000000000000                                                  
01000004000040072260000RAlta en el servicio de Agua/Alta en el servicio   157000 15700  172700Contadores/Instalación de precinto en Contador    354400 74400  428800                                                                                                                                                                                                                                                                                                                                                                                                                                                                
030300000000157010000000000157                                                                                                                                                                                                                                                                                                                                                                                                                                                                                                                                                                                                      
030300000000354421000000000744                                                                                                                                                                                                                                                                                                                                                                                                                                                                                                                                                                                                      
00000004201664005620000R00000000601537498901T DIAZ ESTEBAN M CRUZ ADELAIDA                           CLDOCTOR CREUS                  44          EN IZ  Guadalajara                        GUADALAJARA                        19   Guadalajara              ESP                                000000000000000000000000000000000     20160517        201607162016000000000000                    CL/ DOCTOR CREUS, Nº 44 , Plt EN , Pta IZ         Periodo:000002 Consumo:                                               00000000                     0000000000000000000000000000                                                  
01000004000064005620000RBaja en el Servicio de Agua/Baja en el servicio   157000 15700  172700Contadores/Instalación de precinto en Contador    354400 74400  428800                                                                                                                                                                                                                                                                                                                                                                                                                                                                
030300000000157010000000000157                                                                                                                                                                                                                                                                                                                                                                                                                                                                                                                                                                                                      
030300000000354421000000000744                                                                                                                                                                                                                                                                                                                                                                                                                                                                                                                                                                                                      
00000004201540064170000R00000000583302919845H DOÑORO POMEDA PLACIDO                                  CLECUADOR                       3           01 C   Guadalajara                        GUADALAJARA                        19   Guadalajara              ESP                                000000000000000000000000000000000     20150129        201503302015000000000000                    CL/ ECUADOR, Nº 3 , Plt 01 , Pta C                Periodo:000002 Consumo:                                               00000000                     0000000000000000000000000000                                                  
01000004000040064170000RBaja en el Servicio de Agua/Baja en el servicio   157000 15700  172700Contadores/Instalación de precinto en Contador    339300 71300  410600                                                                                                                                                                                                                                                                                                                                                                                                                                                                
030300000000157010000000000157                                                                                                                                                                                                                                                                                                                                                                                                                                                                                                                                                                                                      
030300000000339321000000000713                                                                                                                                                                                                                                                                                                                                                                                                                                                                                                                                                                                                      
00000004201200036580000R00000002340951382024R RODRIGUEZ TOLEDANO RAFAEL                              CLJOSE MARIA ALONSO GAMO        76                 Guadalajara                        GUADALAJARA                        19   Guadalajara              ESP                                000000000000000000000000000000000     20120711        201209092012000000000000                    CL/ JOSE MARIA ALONSO GAMO, Nº 76                 Periodo:000001 Consumo:                                               00000000                     0000000000000000000000000000                                                  
01000004000000036580000RContadores/Instalación contador Hasta 40mm inc.   309000 55600  364600Contadores/Contador - Clase C - 20mm             1674800301500 1976300                                                                                                                                                                                                                                                                                                                                                                                                                                                                
030300000000309018000000000556                                                                                                                                                                                                                                                                                                                                                                                                                                                                                                                                                                                                      
030300000001674818000000003015                                                                                                                                                                                                                                                                                                                                                                                                                                                                                                                                                                                                      
00000004201664005540000R000000006015A14010342 BANKIA SA                                              CLBOLIVIA                       2           02 B   Guadalajara                        GUADALAJARA                        19   Guadalajara              ESP                                000000000000000000000000000000000     20160517        201607162016000000000000                    CL/ BOLIVIA, Nº 2 , Plt 02 , Pta B                Periodo:000002 Consumo:                                               00000000                     0000000000000000000000000000                                                  
01000004000064005540000RBaja en el Servicio de Agua/Baja en el servicio   157000 15700  172700Contadores/Instalación de precinto en Contador    354400 74400  428800                                                                                                                                                                                                                                                                                                                                                                                                                                                                
030300000000157010000000000157                                                                                                                                                                                                                                                                                                                                                                                                                                                                                                                                                                                                      
030300000000354421000000000744                                                                                                                                                                                                                                                                                                                                                                                                                                                                                                                                                                                                      
00000004201300051480000R00000002488250858558S VEGA PATO MERCEDES                                     CLJOSE DE JUAN                  98                 Guadalajara                        GUADALAJARA                        19   Guadalajara              ESP                                000000000000000000000000000000000     20131015        201312142013000000000000                    CL/ JOSE DE JUAN, Nº 98                           Periodo:000006 Consumo:                                               00000000                     0000000000000000000000000000                                                  
01000004000000051480000RServicios de corte/Corte/Reconexión Diurno 8-19  2056400431800 2488200                                                                                                                                                                                                                                                                                                                                                                                                                                                                                                                                      
030300000002056421000000004318                                                                                                                                                                                                                                                                                                                                                                                                                                                                                                                                                                                                      
00000004202224002840000R00000005074703098113J RODRIGO BENITO EMILIO                                  CLRIO BORNOVA                   10                 Guadalajara                        GUADALAJARA                        19   Guadalajara              ESP                                000000000000000000000000000000000     20220218        202204192022000000000000                    CL/ RIO BORNOVA, Nº 10                            Periodo:000002 Consumo:                                               00000000                     0000000000000000000000000000                                                  
01000004000024002840000RBaja en el Servicio de Agua/Baja en el servicio   157000 15700  172700Servicios de corte/Corte de Suministro Red Gener 4051200850752 4901952                                                                                                                                                                                                                                                                                                                                                                                                                                                                
030300000000157010000000000157                                                                                                                                                                                                                                                                                                                                                                                                                                                                                                                                                                                                      
030300000004051221000000008508                                                                                                                                                                                                                                                                                                                                                                                                                                                                                                                                                                                                      
00000004201940018640000R000000033947B19192731 GERSOAL ARIDOS, SL                                     AVCRISTOBAL COLON               301                Guadalajara                        GUADALAJARA                        19   Guadalajara              ESP                                000000000000000000000000000000000     20191227        202002252019000000000000                    AV/ CRISTOBAL COLON, Nº 301                       Periodo:000002 Consumo:                                               00000000                     0000000000000000000000000000                                                  
01000004000040018640000RBaja en el Servicio de Agua/Baja en el servicio   304400 30440  334840Servicios de corte/Corte de Suministro Llave Reg 2528900531048 3059948                                                                                                                                                                                                                                                                                                                                                                                                                                                                
030300000000304410000000000304                                                                                                                                                                                                                                                                                                                                                                                                                                                                                                                                                                                                      
030300000002528921000000005310                                                                                                                                                                                                                                                                                                                                                                                                                                                                                                                                                                                                      
00000004201919400250000R000000230719E19006097 C. PROPIETARIOS (580-2T3A/T3B)                         CLCONSTITUCION                  2     3     AB     Guadalajara                        GUADALAJARA                        19   Guadalajara              ESP                                000000000000000000000000000000000     20190506        201907052019000000000000                    CL/ CONSTITUCION, Nº 2 , Blq 3 , Plt AB           Periodo:000001 Consumo:5762                                           00000000                     0000000000000000000000000000                                                  
01000004000019400250000RAgua/Domestico 13 (5 Bloq.) (Inactivo)          2097450009744123071941                                                                                                                                                                                                                                                                                                                                                                                                                                                                                                                                      
030100000020974510000000020974                                                                                                                                                                                                                                                                                                                                                                                                                                                                                                                                                                                                      
00000004201664005550000R000000006015A14010342 BANKIA SA                                              CLBOLIVIA                       3           04 B   Guadalajara                        GUADALAJARA                        19   Guadalajara              ESP                                000000000000000000000000000000000     20160517        201607162016000000000000                    CL/ BOLIVIA, Nº 3 , Plt 04 , Pta B                Periodo:000002 Consumo:                                               00000000                     0000000000000000000000000000                                                  
01000004000064005550000RBaja en el Servicio de Agua/Baja en el servicio   157000 15700  172700Contadores/Instalación de precinto en Contador    354400 74400  428800                                                                                                                                                                                                                                                                                                                                                                                                                                                                
030300000000157010000000000157                                                                                                                                                                                                                                                                                                                                                                                                                                                                                                                                                                                                      
030300000000354421000000000744                                                                                                                                                                                                                                                                                                                                                                                                                                                                                                                                                                                                      
00000004201554002690000R000000007995V78293719 MUT. PREV. SOC. FONDO ASIST. C                         AVEJERCITO                      6                  Guadalajara                        GUADALAJARA                        19   Guadalajara              ESP                                000000000000000000000000000000000     20150127        201503282015000000000000                    AV/ EJERCITO, Nº 6                                Periodo:000004 Consumo:                                               00000000                     0000000000000000000000000000                                                  
01000004000054002690000RAlta en el servicio de Agua/Alta en el servicio   353500 35400  388900Contadores/Instalación de precinto en Contador    339300 71300  410600                                                                                                                                                                                                                                                                                                                                                                                                                                                                
030300000000353510000000000354                                                                                                                                                                                                                                                                                                                                                                                                                                                                                                                                                                                                      
030300000000339321000000000713                                                                                                                                                                                                                                                                                                                                                                                                                                                                                                                                                                                                      
00000004201500105560000R000000006015A48265169 BANCO BILBAO VIZCAYA ARGENTARI                         CLBOLIVIA                       10          03 A   Guadalajara                        GUADALAJARA                        19   Guadalajara              ESP                                000000000000000000000000000000000     20151105        201601042015000000000000                    CL/ BOLIVIA, Nº 10 , Plt 03 , Pta A               Periodo:000004 Consumo:                                               00000000                     0000000000000000000000000000                                                  
01000004000000105560000RAlta en el servicio de Agua/Alta en el servicio   157000 15700  172700Contadores/Instalación de precinto en Contador    354400 74400  428800                                                                                                                                                                                                                                                                                                                                                                                                                                                                
030300000000157010000000000157                                                                                                                                                                                                                                                                                                                                                                                                                                                                                                                                                                                                      
030300000000354421000000000744                                                                                                                                                                                                                                                                                                                                                                                                                                                                                                                                                                                                      
00000004201540072320000R00000000655418340285Q GARFELLA VAZQUEZ ANTONIO                               CLTENDILLA                      1                  Guadalajara                        GUADALAJARA                        19   Guadalajara              ESP                                000000000000000000000000000000000     20150923        201511222015000000000000                    CL/ TENDILLA, Nº 1                                Periodo:000004 Consumo:                                               00000000                     0000000000000000000000000000                                                  
01000004000040072320000RAlta en el servicio de Agua/Alta en el servicio   206000 20600  226600Contadores/Instalación de precinto en Contador    354400 74400  428800                                                                                                                                                                                                                                                                                                                                                                                                                                                                
030300000000206010000000000206                                                                                                                                                                                                                                                                                                                                                                                                                                                                                                                                                                                                      
030300000000354421000000000744                                                                                                                                                                                                                                                                                                                                                                                                                                                                                                                                                                                                      
00000004201540065160000R00000000583305AT72557 OLIVEIRA, STEPHANE DE                                  CLISABELA, LA,                  8           05 A   Guadalajara                        GUADALAJARA                        19   Guadalajara              FRA                                000000000000000000000000000000000     20150228        201504292015000000000000                    CL/ ISABELA, LA,, Nº 8 , Plt 05 , Pta A           Periodo:000004 Consumo:                                               00000000                     0000000000000000000000000000                                                  
01000004000040065160000RAlta en el servicio de Agua/Alta en el servicio   157000 15700  172700Contadores/Instalación de precinto en Contador    339300 71300  410600                                                                                                                                                                                                                                                                                                                                                                                                                                                                
030300000000157010000000000157                                                                                                                                                                                                                                                                                                                                                                                                                                                                                                                                                                                                      
030300000000339321000000000713                                                                                                                                                                                                                                                                                                                                                                                                                                                                                                                                                                                                      
00000004201740011490000R00000000583303076782A GIL SAN ANDRES MARIA GLORIA                            CLREAL                          17                 Guadalajara                        GUADALAJARA                        19   Guadalajara              ESP                                000000000000000000000000000000000     20171005        201712042017000000000000                    CL/ REAL, Nº 17                                   Periodo:000002 Consumo:                                               00000000                     0000000000000000000000000000                                                  
01000004000040011490000RBaja en el Servicio de Agua/Baja en el servicio   157000 15700  172700Contadores/Instalación de precinto en Contador    339300 71300  410600                                                                                                                                                                                                                                                                                                                                                                                                                                                                
030300000000157010000000000157                                                                                                                                                                                                                                                                                                                                                                                                                                                                                                                                                                                                      
030300000000339321000000000713                                                                                                                                                                                                                                                                                                                                                                                                                                                                                                                                                                                                      
00000004201740011480000R00000000583303076782A GIL SAN ANDRES MARIA GLORIA                            CLREAL                          19                 Guadalajara                        GUADALAJARA                        19   Guadalajara              ESP                                000000000000000000000000000000000     20171005        201712042017000000000000                    CL/ REAL, Nº 19                                   Periodo:000002 Consumo:                                               00000000                     0000000000000000000000000000                                                  
01000004000040011480000RBaja en el Servicio de Agua/Baja en el servicio   157000 15700  172700Contadores/Instalación de precinto en Contador    339300 71300  410600                                                                                                                                                                                                                                                                                                                                                                                                                                                                
030300000000157010000000000157                                                                                                                                                                                                                                                                                                                                                                                                                                                                                                                                                                                                      
030300000000339321000000000713                                                                                                                                                                                                                                                                                                                                                                                                                                                                                                                                                                                                      
00000004201664001140000R00000002508603064040A ESPLIEGO RAMOS PILAR                                   PZCALLEJUELA                    7                  Guadalajara                        GUADALAJARA                        19   Guadalajara              ESP                                000000000000000000000000000000000     20160203        201604032016000000000000                    PZ/ CALLEJUELA, Nº 7                              Periodo:000001 Consumo:                                               00000000                     0000000000000000000000000000                                                  
01000004000064001140000RAlcantarillado/Domestico >13-25                  1056600105700 1162300Alcantarillado/Doméstico >13-25 (5 Bloq.) (Inact 1223900122400 1346300                                                                                                                                                                                                                                                                                                                                                                                                                                                                
030300000001056610000000001057                                                                                                                                                                                                                                                                                                                                                                                                                                                                                                                                                                                                      
030300000001223910000000001224                                                                                                                                                                                                                                                                                                                                                                                                                                                                                                                                                                                                      
00000004201400061050000R00000000637203129442Q PUMARES BACHILLER JULIO SALVAD                         CLRIO ALIENDRE                  8                  Guadalajara                        GUADALAJARA                        19   Guadalajara              ESP                                000000000000000000000000000000000     20141006        201412052014000000000000                    CL/ RIO ALIENDRE, Nº 8                            Periodo:000004 Consumo:                                               00000000                     0000000000000000000000000000                                                  
01000004000000061050000RAlta en el servicio de Agua/Alta de Oficio Servi  206000 20600  226600Contadores/Instalación de precinto en Contador    339300 71300  410600                                                                                                                                                                                                                                                                                                                                                                                                                                                                
030300000000206010000000000206                                                                                                                                                                                                                                                                                                                                                                                                                                                                                                                                                                                                      
030300000000339321000000000713                                                                                                                                                                                                                                                                                                                                                                                                                                                                                                                                                                                                      
00000004201664003600000R000000024882S1911001D JUNTA DE COMUNIDADES DE CASTIL                         AVCASTILLA                      10                 Guadalajara                        GUADALAJARA                        19   Guadalajara              ESP                                000000000000000000000000000000000     20160406        201606052016000000000000                    AV/ CASTILLA, Nº 10                               Periodo:000006 Consumo:                                               00000000                     0000000000000000000000000000                                                  
01000004000064003600000RServicios de corte/Corte/Reconexión Diurno 8-19  2056400431800 2488200                                                                                                                                                                                                                                                                                                                                                                                                                                                                                                                                      
030300000002056421000000004318                                                                                                                                                                                                                                                                                                                                                                                                                                                                                                                                                                                                      
00000004201664003940000R000000167581S1911001D JUNTA DE COMUNIDADES DE CASTIL                         AVCASTILLA                      10                 Guadalajara                        GUADALAJARA                        19   Guadalajara              ESP                                000000000000000000000000000000000     20160413        201606122016000000000000                    AV/ CASTILLA, Nº 10                               Periodo:000015 Consumo:                                               00000000                     0000000000000000000000000000                                                  
01000004000064003940000RAdecuacion/Adecuación COAAT                      7977200675200 9652400Adecuacion/Adecuación MAT                        5872500233200 7105700                                                                                                                                                                                                                                                                                                                                                                                                                                                                
030300000007977221000000016752                                                                                                                                                                                                                                                                                                                                                                                                                                                                                                                                                                                                      
030300000005872521000000012332                                                                                                                                                                                                                                                                                                                                                                                                                                                                                                                                                                                                      
00000004201540072590000R00000000601502203808V NOVA GONZALEZ DAVID                                    CLLIBERTAD                      9999               Guadalajara                        GUADALAJARA                        19   Guadalajara              ESP                                000000000000000000000000000000000     20151003        201512022015000000000000                    CL/ LIBERTAD, Nº 9999                             Periodo:000004 Consumo:                                               00000000                     0000000000000000000000000000                                                  
01000004000040072590000RAlta en el servicio de Agua/Alta en el servicio   157000 15700  172700Contadores/Instalación de precinto en Contador    354400 74400  428800                                                                                                                                                                                                                                                                                                                                                                                                                                                                
030300000000157010000000000157                                                                                                                                                                                                                                                                                                                                                                                                                                                                                                                                                                                                      
030300000000354421000000000744                                                                                                                                                                                                                                                                                                                                                                                                                                                                                                                                                                                                      
00000004201540069990000R00000000763603072145N MOTA MIMBRERO JOSEFA                                   CLFRCO.PAULA BARRERA            25          02 A   Guadalajara                        GUADALAJARA                        19   Guadalajara              ESP                                000000000000000000000000000000000     20150724        201509222015000000000000                    CL/ FRCO.PAULA BARRERA, Nº 25 , Plt 02 , Pta A    Periodo:000006 Consumo:                                               00000000                     0000000000000000000000000000                                                  
01000004000040069990000RServicios de corte/Reconexión en Contador         631100132500  763600                                                                                                                                                                                                                                                                                                                                                                                                                                                                                                                                      
030300000000631121000000001325                                                                                                                                                                                                                                                                                                                                                                                                                                                                                                                                                                                                      
00000004202140013120000R00000000704103069762K DOÑORO LOPE, EUSEBIO                                   PZJOSE PRADILLO MORATILLA       5           LC 03  Guadalajara                        GUADALAJARA                        19   Guadalajara              ESP                                000000000000000000000000000000000     20210813        202110122021000000000000                    PZ/ JOSE PRADILLO MORATILLA, Nº 5 , Plt LC , Pta 0Periodo:000006 Consumo:                                               00000000                     0000000000000000000000000000                                                  
01000004000040013120000RServicios de corte/Corte en llave registro para   581900122199  704099                                                                                                                                                                                                                                                                                                                                                                                                                                                                                                                                      
030300000000581921000000001222                                                                                                                                                                                                                                                                                                                                                                                                                                                                                                                                                                                                      
00000004201840014130000R00000002488202965472J CASTILLO SAENZ JULIA DEL                               CLNORTE                         8                  Guadalajara                        GUADALAJARA                        19   Guadalajara              ESP                                000000000000000000000000000000000     20180831        201810302018000000000000                    CL/ NORTE, Nº 8                                   Periodo:000006 Consumo:                                               00000000                     0000000000000000000000000000                                                  
01000004000040014130000RServicios de corte/Corte/Reconexión Diurno 8-19  2056400431844 2488244                                                                                                                                                                                                                                                                                                                                                                                                                                                                                                                                      
030300000002056421000000004318                                                                                                                                                                                                                                                                                                                                                                                                                                                                                                                                                                                                      
00000004201940011560000R00000001846203122097P CABO DEL MARTINEZ-BLANCO NURIA                         CLMINA, LA                      35          02 IZ  Guadalajara                        GUADALAJARA                        19   Guadalajara              ESP                                000000000000000000000000000000000     20190813        201910122019000000000000                    CL/ MINA, LA, Nº 35 , Plt 02 , Pta IZ             Periodo:000006 Consumo:                                               00000000                     0000000000000000000000000000                                                  
01000004000040011560000RServicios de corte/Corte por Impago               871900183099 1054999Servicios de corte/Reconexión en Contador         653900137319  791219                                                                                                                                                                                                                                                                                                                                                                                                                                                                
030300000000871921000000001831                                                                                                                                                                                                                                                                                                                                                                                                                                                                                                                                                                                                      
030300000000653921000000001373                                                                                                                                                                                                                                                                                                                                                                                                                                                                                                                                                                                                      
00000004202040016470000R00000001846203122097P CABO DEL MARTINEZ-BLANCO NURIA                         CLMINA, LA                      35          02 IZ  Guadalajara                        GUADALAJARA                        19   Guadalajara              ESP                                000000000000000000000000000000000     20201022        202012212020000000000000                    CL/ MINA, LA, Nº 35 , Plt 02 , Pta IZ             Periodo:000006 Consumo:                                               00000000                     0000000000000000000000000000                                                  
01000004000040016470000RServicios de corte/Reconexión en Contador         653900137319  791219Servicios de corte/Corte por Impago               871900183099 1054999                                                                                                                                                                                                                                                                                                                                                                                                                                                                
030300000000653921000000001373                                                                                                                                                                                                                                                                                                                                                                                                                                                                                                                                                                                                      
030300000000871921000000001831                                                                                                                                                                                                                                                                                                                                                                                                                                                                                                                                                                                                      
00000004201901940010000R00000000704102924343P TARRIZA RIENDAS, LAZARO BERNAR                         CLALAMIN                        19          BJ     Guadalajara                        GUADALAJARA                        19   Guadalajara              ESP                                000000000000000000000000000000000     20190110        201903112019000000000000                    CL/ ALAMIN, Nº 19 , Plt BJ                        Periodo:000002 Consumo:                                               00000000                     0000000000000000000000000000                                                  
01000004000001940010000RServicios de corte/Corte en llave registro para   581900122199  704099                                                                                                                                                                                                                                                                                                                                                                                                                                                                                                                                      
030300000000581921000000001222                                                                                                                                                                                                                                                                                                                                                                                                                                                                                                                                                                                                      
00000004202224009960000R000000007041H19114206 MANCOMU. PROPIETARIOS G.VIVES                          CLGENERAL VIVES CAMINO          5     B            Guadalajara                        GUADALAJARA                        19   Guadalajara              ESP                                000000000000000000000000000000000     20220713        202209112022000000000000                    CL/ GENERAL VIVES CAMINO, Nº 5 , Blq B , JARDIN   Periodo:000006 Consumo:                                               00000000                     0000000000000000000000000000                                                  
01000004000024009960000RServicios de corte/Corte en llave registro para   581900122199  704099                                                                                                                                                                                                                                                                                                                                                                                                                                                                                                                                      
030300000000581921000000001222                                                                                                                                                                                                                                                                                                                                                                                                                                                                                                                                                                                                      
00000004201300046000000R000000067551B19162320 BAME INMO,SL                                           CLMEJICO                        18                 Guadalajara                        GUADALAJARA                        19   Guadalajara              ESP                                000000000000000000000000000000000     20130327        201305262013000000000000                    CL/ MEJICO, Nº 18                                 Periodo:000001 Consumo:                                               00000000                     0000000000000000000000000000                                                  
01000004000000046000000RContadores/Instalación contador Hasta 40mm inc.   309000 64900  373900Contadores/Contador - Clase C - 40mm             5273700107500 6381200                                                                                                                                                                                                                                                                                                                                                                                                                                                                
030300000000309021000000000649                                                                                                                                                                                                                                                                                                                                                                                                                                                                                                                                                                                                      
030300000005273721000000011075                                                                                                                                                                                                                                                                                                                                                                                                                                                                                                                                                                                                      
00000004201100991820000R00000000610903053487F FUENTE PEREZ SALVADOR DE LA                            CLALONSO NUÑEZ REINOSO          30          BJ     Guadalajara                        GUADALAJARA                        19   Guadalajara              ESP                                000000000000000000000000000000000     20110218        201104192011000000000000                    CL/ ALONSO NUÑEZ REINOSO, Nº 30 , Plt BJ          Periodo:000002 Consumo:76                                             00000000                     0000000000000000000000000000                                                  
01000004000000991820000RAgua/Domestico 13                                 283700 22700  306400Mant. Contador/Domestico 13                        03200 00600   03800Alcantarillado/Domestico 13                       278400 22300  300700                                                                                                                                                                                                                                                                                                                                                                                          
030100000000283708000000000227                                                                                                                                                                                                                                                                                                                                                                                                                                                                                                                                                                                                      
030200000000003218000000000006                                                                                                                                                                                                                                                                                                                                                                                                                                                                                                                                                                                                      
030300000000278408000000000223                                                                                                                                                                                                                                                                                                                                                                                                                                                                                                                                                                                                      
00000004201840019310000R00000002637603054837T RIENDAS MINGUEZ VICENTE                                CLJUAN BAUTISTA TOPETE          5                  Guadalajara                        GUADALAJARA                        19   Guadalajara              ESP                                000000000000000000000000000000000     20181129        201901282018000000000000                    CL/ JUAN BAUTISTA TOPETE, Nº 5                    Periodo:000006 Consumo:                                               00000000                     0000000000000000000000000000                                                  
01000004000040019310000RServicios de corte/Corte/Reconexión Diurno 8-19  2179800457758 2637558                                                                                                                                                                                                                                                                                                                                                                                                                                                                                                                                      
030300000002179821000000004578                                                                                                                                                                                                                                                                                                                                                                                                                                                                                                                                                                                                      
00000004201994006610000R00000000607903107548H BARRIOS GARCIA SUSANA                                  CLFRANCISCO DE MEDINA           5     A     03     Guadalajara                        GUADALAJARA                        19   Guadalajara              ESP                                000000000000000000000000000000000     20190430        201906292019000000000000                    CL/ FRANCISCO DE MEDINA, Nº 5 , Blq A , Plt 03    Periodo:000002 Consumo:                                               00000000                     0000000000000000000000000000                                                  
01000004000094006610000RBaja en el Servicio de Agua/Baja en el servicio   157000 15700  172700Contadores/Instalación de precinto en Contador    359700 75537  435237                                                                                                                                                                                                                                                                                                                                                                                                                                                                
030300000000157010000000000157                                                                                                                                                                                                                                                                                                                                                                                                                                                                                                                                                                                                      
030300000000359721000000000755                                                                                                                                                                                                                                                                                                                                                                                                                                                                                                                                                                                                      
00000004201540067340000R000000031039H19180553 CDAD PROP C/SAN GIL 9                                  CLSAN GIL                       9                  Guadalajara                        GUADALAJARA                        19   Guadalajara              ESP                                000000000000000000000000000000000     20150504        201507032015000000000000                    CL/ SAN GIL, Nº 9                                 Periodo:000002 Consumo:                                               00000000                     0000000000000000000000000000                                                  
01000004000040067340000RServicios de corte/Corte de Suministro Llave Reg 2565200538700 3103900                                                                                                                                                                                                                                                                                                                                                                                                                                                                                                                                      
030300000002565221000000005387                                                                                                                                                                                                                                                                                                                                                                                                                                                                                                                                                                                                      
00000004201664005530000R000000006015B46644290 BANKIA HABITAT SLU                                     CLTIRSO DE MOLINA               13          04 IZ  Guadalajara                        GUADALAJARA                        19   Guadalajara              ESP                                000000000000000000000000000000000     20160517        201607162016000000000000                    CL/ TIRSO DE MOLINA, Nº 13 , Plt 04 , Pta IZ      Periodo:000002 Consumo:                                               00000000                     0000000000000000000000000000                                                  
01000004000064005530000RBaja en el Servicio de Agua/Baja en el servicio   157000 15700  172700Contadores/Instalación de precinto en Contador    354400 74400  428800                                                                                                                                                                                                                                                                                                                                                                                                                                                                
030300000000157010000000000157                                                                                                                                                                                                                                                                                                                                                                                                                                                                                                                                                                                                      
030300000000354421000000000744                                                                                                                                                                                                                                                                                                                                                                                                                                                                                                                                                                                                      
