00000004201664001160000R000000005779H19298819 CDAD PROP CALLE ALBACETE 4-6                           CLALBACETE                      4                  Guadalajara                        GUADALAJARA                        19   Guadalajara              ESP                                000000000000000000000000000000000     20160203        201604032016000000000000                    CL/ ALBACETE, N? 4                                Periodo:000001 Consumo:                                               00000000                     0000000000000000000000000000                                                  
01000004000064001160000RAlcantarillado/Domestico >13-25                   244800 24500  269300Alcantarillado/Dom?stico >13-25 (5 Bloq.) (Inact  280500 28100  308600                                                                                                                                                                                                                                                                                                                                                                                                                                                                
030300000000244810000000000245                                                                                                                                                                                                                                                                                                                                                                                                                                                                                                                                                                                                      
030300000000280510000000000281                                                                                                                                                                                                                                                                                                                                                                                                                                                                                                                                                                                                      
00000004201640011120000R00000003939502954756S TOLEDANO LUQUE AGAPITO                                 PZDE ESPA?A                     3                  Guadalajara                        GUADALAJARA                        19   Guadalajara              ESP                                000000000000000000000000000000000     20161020        201612192016000000000000                    PZ/ DE ESPA?A, N? 3                               Periodo:000001 Consumo:362                                            00000000                     0000000000000000000000000000                                                  
01000004000040011120000RAgua/Industrial 13 (5 Bloq.) (Inactivo)          1500900150100 1651000Mant. Contador/Industrial 13                       02400 00500   02900Alcantarillado/Industrial 13 (5 Bloq.) (Inactivo 2077800207800 2285600                                                                                                                                                                                                                                                                                                                                                                                          
030100000001500910000000001501                                                                                                                                                                                                                                                                                                                                                                                                                                                                                                                                                                                                      
030200000000002421000000000005                                                                                                                                                                                                                                                                                                                                                                                                                                                                                                                                                                                                      
030300000002077810000000002078                                                                                                                                                                                                                                                                                                                                                                                                                                                                                                                                                                                                      
00000004201200036580000R00000002340951382024R RODRIGUEZ TOLEDANO RAFAEL                              CLJOSE MARIA ALONSO GAMO        76                 Guadalajara                        GUADALAJARA                        19   Guadalajara              ESP                                000000000000000000000000000000000     20120711        201209092012000000000000                    CL/ JOSE MARIA ALONSO GAMO, N? 76                 Periodo:000001 Consumo:                                               00000000                     0000000000000000000000000000                                                  
01000004000000036580000RContadores/Instalaci?n contador Hasta 40mm inc.   309000 55600  364600Contadores/Contador - Clase C - 20mm             1674800301500 1976300                                                                                                                                                                                                                                                                                                                                                                                                                                                                
030300000000309018000000000556                                                                                                                                                                                                                                                                                                                                                                                                                                                                                                                                                                                                      
030300000001674818000000003015                                                                                                                                                                                                                                                                                                                                                                                                                                                                                                                                                                                                      
00000004201919400250000R000000230719E19006097 C. PROPIETARIOS (580-2T3A/T3B)                         CLCONSTITUCION                  2     3     AB     Guadalajara                        GUADALAJARA                        19   Guadalajara              ESP                                000000000000000000000000000000000     20190506        201907052019000000000000                    CL/ CONSTITUCION, N? 2 , Blq 3 , Plt AB           Periodo:000001 Consumo:5762                                           00000000                     0000000000000000000000000000                                                  
01000004000019400250000RAgua/Domestico 13 (5 Bloq.) (Inactivo)          2097450009744123071941                                                                                                                                                                                                                                                                                                                                                                                                                                                                                                                                      
030100000020974510000000020974                                                                                                                                                                                                                                                                                                                                                                                                                                                                                                                                                                                                      
00000004201664001140000R00000002508603064040A ESPLIEGO RAMOS PILAR                                   PZCALLEJUELA                    7                  Guadalajara                        GUADALAJARA                        19   Guadalajara              ESP                                000000000000000000000000000000000     20160203        201604032016000000000000                    PZ/ CALLEJUELA, N? 7                              Periodo:000001 Consumo:                                               00000000                     0000000000000000000000000000                                                  
01000004000064001140000RAlcantarillado/Domestico >13-25                  1056600105700 1162300Alcantarillado/Dom?stico >13-25 (5 Bloq.) (Inact 1223900122400 1346300                                                                                                                                                                                                                                                                                                                                                                                                                                                                
030300000001056610000000001057                                                                                                                                                                                                                                                                                                                                                                                                                                                                                                                                                                                                      
030300000001223910000000001224                                                                                                                                                                                                                                                                                                                                                                                                                                                                                                                                                                                                      
00000004201300046000000R000000067551B19162320 BAME INMO,SL                                           CLMEJICO                        18                 Guadalajara                        GUADALAJARA                        19   Guadalajara              ESP                                000000000000000000000000000000000     20130327        201305262013000000000000                    CL/ MEJICO, N? 18                                 Periodo:000001 Consumo:                                               00000000                     0000000000000000000000000000                                                  
01000004000000046000000RContadores/Instalaci?n contador Hasta 40mm inc.   309000 64900  373900Contadores/Contador - Clase C - 40mm             5273700107500 6381200                                                                                                                                                                                                                                                                                                                                                                                                                                                                
030300000000309021000000000649                                                                                                                                                                                                                                                                                                                                                                                                                                                                                                                                                                                                      
030300000005273721000000011075                                                                                                                                                                                                                                                                                                                                                                                                                                                                                                                                                                                                      
00000004201300045990000R000000035152B19162320 BAME INMO,SL                                           CLMEJICO                        18                 Guadalajara                        GUADALAJARA                        19   Guadalajara              ESP                                000000000000000000000000000000000     20130327        201305262013000000000000                    CL/ MEJICO, N? 18                                 Periodo:000001 Consumo:                                               00000000                     0000000000000000000000000000                                                  
01000004000000045990000RContadores/Instalaci?n contador Hasta 40mm inc.   309000 64900  373900Contadores/Contador - Clase C - 25mm             2596100545200 3141300                                                                                                                                                                                                                                                                                                                                                                                                                                                                
030300000000309021000000000649                                                                                                                                                                                                                                                                                                                                                                                                                                                                                                                                                                                                      
030300000002596121000000005452                                                                                                                                                                                                                                                                                                                                                                                                                                                                                                                                                                                                      
00000004201664001360000R00000001895708954017W GONZALEZ RODRIGUEZ JORGE JUAN                          CLPARMA                         101                Guadalajara                        GUADALAJARA                        19   Guadalajara              ESP                                000000000000000000000000000000000     20160206        201604062016000000000000                    CL/ PARMA, N? 101                                 Periodo:000001 Consumo:                                               00000000                     0000000000000000000000000000                                                  
01000004000064001360000RAlcantarillado/Domestico >13-25                   644100 64400  708500Alcantarillado/Dom?stico >13-25 (5 Bloq.) (Inact 1079300107900 1187200                                                                                                                                                                                                                                                                                                                                                                                                                                                                
030300000000644110000000000644                                                                                                                                                                                                                                                                                                                                                                                                                                                                                                                                                                                                      
030300000001079310000000001079                                                                                                                                                                                                                                                                                                                                                                                                                                                                                                                                                                                                      
00000004201818400310000R000000309531A78988540 RAYET CONSTRUCCION SA                                  CLFRANCISCO ARITIO              156         NV 16  Guadalajara                        GUADALAJARA                        19   Guadalajara              ESP                                000000000000000000000000000000000     20180111        201803122018000000000000                    CL/ FRANCISCO ARITIO, N? 156 , Plt NV , Pta 16    Periodo:000001 Consumo:                                               00000000                     0000000000000000000000000000                                                  
01000004000018400310000RReparaci?n de Redes/Salida Brigada               2056400431800 2488200Adecuacion/Trabajos T?cnicos Adecuaci?n         1047700020020012677200Adecuacion/Adecuaci?n MAT                       1304770074000015787700                                                                                                                                                                                                                                                                                                                                                                                          
030300000002056421000000004318                                                                                                                                                                                                                                                                                                                                                                                                                                                                                                                                                                                                      
030300000010477021000000022002                                                                                                                                                                                                                                                                                                                                                                                                                                                                                                                                                                                                      
030300000013047721000000027400                                                                                                                                                                                                                                                                                                                                                                                                                                                                                                                                                                                                      
00000004201000009760000R000000052911A78159654 TALLER DE CONSTRUCCION T M R S                         CLFRANCISCO ARITIO              162                Guadalajara                        GUADALAJARA                        19   Guadalajara              ESP                                000000000000000000000000000000000     20100727        201009252010000000000000                    CL/ FRANCISCO ARITIO, N? 162                      Periodo:000001 Consumo:1388                                           00000000                     0000000000000000000000000000                                                  
01000004000000009760000RAgua/Industrial >13-25                           4892100391400 5283500Mant. Contador/Industrial >13-25                   06400 01200   07600                                                                                                                                                                                                                                                                                                                                                                                                                                                                
030100000004892108000000003914                                                                                                                                                                                                                                                                                                                                                                                                                                                                                                                                                                                                      
030200000000006418000000000012                                                                                                                                                                                                                                                                                                                                                                                                                                                                                                                                                                                                      
00000004201200042490000R000000024004B19170414 EUROALUMINIOS BARBOSA SL                               AVCRISTOBAL COLON               209         NV 3A  Guadalajara                        GUADALAJARA                        19   Guadalajara              ESP                                000000000000000000000000000000000     20121211        201302092012000000000000                    AV/ CRISTOBAL COLON, N? 209 , Plt NV , Pta 3A     Periodo:000001 Consumo:                                               00000000                     0000000000000000000000000000                                                  
01000004000000042490000RContadores/Instalaci?n contador Hasta 40mm inc.   309000 64900  373900Contadores/Contador - Clase C - 20mm             1674800351700 2026500                                                                                                                                                                                                                                                                                                                                                                                                                                                                
030300000000309021000000000649                                                                                                                                                                                                                                                                                                                                                                                                                                                                                                                                                                                                      
030300000001674821000000003517                                                                                                                                                                                                                                                                                                                                                                                                                                                                                                                                                                                                      
00000004201300050240000R000000006372A15011489 BANCO DE CASTILLA LA MANCHA SA                         CLRIO UNGRIA                    1     3     02 B   Guadalajara                        GUADALAJARA                        19   Guadalajara              ESP                                000000000000000000000000000000000     20130903        201311022013000000000000                    CL/ RIO UNGRIA, N? 1 , Blq 3 , Plt 02 , Pta B     Periodo:000001 Consumo:                                               00000000                     0000000000000000000000000000                                                  
01000004000000050240000RBaja en el Servicio de Agua/Baja en el servicio   206000 20600  226600Contadores/Instalaci?n de precinto en Contador    339300 71300  410600                                                                                                                                                                                                                                                                                                                                                                                                                                                                
030300000000206010000000000206                                                                                                                                                                                                                                                                                                                                                                                                                                                                                                                                                                                                      
030300000000339321000000000713                                                                                                                                                                                                                                                                                                                                                                                                                                                                                                                                                                                                      
00000004201200035380000R00000000963303144248X KHALID MECHICH AHMED                                   CLANA MARISCAL                  1     2     02 F   Guadalajara                        GUADALAJARA                        19   Guadalajara              ESP                                000000000000000000000000000000000     20120604        201208032012000000000000                    CL/ ANA MARISCAL, N? 1 , Blq 2 , Plt 02 , Pta F   Periodo:000001 Consumo:66                                             00000000                     0000000000000000000000000000                                                  
01000004000000035380000RBaja en el Servicio de Agua/Baja en el servicio   206000 16500  222500Agua/Domestico >13-25                             329700 26400  356100Mant. Contador/Domestico >13-25                    04400 00800   05200Alcantarillado/Domestico >13-25                   351400 28100  379500                                                                                                                                                                                                                                                                                                                    
030300000000206008000000000165                                                                                                                                                                                                                                                                                                                                                                                                                                                                                                                                                                                                      
030100000000329708000000000264                                                                                                                                                                                                                                                                                                                                                                                                                                                                                                                                                                                                      
030200000000004418000000000008                                                                                                                                                                                                                                                                                                                                                                                                                                                                                                                                                                                                      
030300000000351408000000000281                                                                                                                                                                                                                                                                                                                                                                                                                                                                                                                                                                                                      
00000004201500106940000R00000000567603093076J GARFELLA TINEO ANTONIO                                 CLORDESA                        9                  Guadalajara                        GUADALAJARA                        19   Guadalajara              ESP                                000000000000000000000000000000000     20151213        201602112015000000000000                    CL/ ORDESA, N? 9                                  Periodo:000001 Consumo:                                               00000000                     0000000000000000000000000000                                                  
01000004000000106940000RAlcantarillado/Dom?stico 13 (5 Bloq.) (Inactivo)  516000 51600  567600                                                                                                                                                                                                                                                                                                                                                                                                                                                                                                                                      
030300000000516010000000000516                                                                                                                                                                                                                                                                                                                                                                                                                                                                                                                                                                                                      
00000004201664009220000R000000105389B19202605 FERRETERIAS ROBLEDILLO, SL                             CLSAN QUINTIN                   39          NV 1   Guadalajara                        GUADALAJARA                        19   Guadalajara              ESP                                000000000000000000000000000000000     20160819        201610182016000000000000                    CL/ SAN QUINTIN, N? 39, Plt NV, Pta 1, CONTRAINCENPeriodo:000001 Consumo:                                               00000000                     0000000000000000000000000000                                                  
01000004000064009220000RAgua/Boca de Incendio (5 Bloques) (Inactivo)     958080095810010538900                                                                                                                                                                                                                                                                                                                                                                                                                                                                                                                                      
030100000009580810000000009581                                                                                                                                                                                                                                                                                                                                                                                                                                                                                                                                                                                                      
00000004202004007540000R000000105389H19222222 COMUNIDAD DE PROPIETARIOS                              CLALBENIZ                       1                  Guadalajara                        GUADALAJARA                        19   Guadalajara              ESP                                000000000000000000000000000000000     20200407        202006062020000000000000                    CL/ ALBENIZ, N? 1, CONTRAINCENDIO                 Periodo:000001 Consumo:                                               00000000                     0000000000000000000000000000                                                  
01000004000004007540000RAgua/Boca de Incendio (5 Bloq.)                  958080095808010538880                                                                                                                                                                                                                                                                                                                                                                                                                                                                                                                                      
030100000009580810000000009581                                                                                                                                                                                                                                                                                                                                                                                                                                                                                                                                                                                                      
00000004201640012410000R00000010538903044443W SANZ NU?EZ MARIA MILAGROS                              CLFRANCISCO ARITIO              117         NV 34  Guadalajara                        GUADALAJARA                        19   Guadalajara              ESP                                000000000000000000000000000000000     20161210        201702082016000000000000                    CL/ FRANCISCO ARITIO, N? 117 , Plt NV , Pta 34    Periodo:000001 Consumo:                                               00000000                     0000000000000000000000000000                                                  
01000004000040012410000RAgua/Boca de Incendio (5 Bloques) (Inactivo)     958080095810010538900                                                                                                                                                                                                                                                                                                                                                                                                                                                                                                                                      
030100000009580810000000009581                                                                                                                                                                                                                                                                                                                                                                                                                                                                                                                                                                                                      
00000004201300046430000R000000189394B19157445 HENARES 69,SL                                          PZBEJANQUE                      3                  Guadalajara                        GUADALAJARA                        19   Guadalajara              ESP                                000000000000000000000000000000000     20130418        201306172013000000000000                    PZ/ BEJANQUE, N? 3, LC                            Periodo:000001 Consumo:                                               00000000                     0000000000000000000000000000                                                  
01000004000000046430000RFraudes/Liquidaci?n de Fraude                   1721760072180018939400                                                                                                                                                                                                                                                                                                                                                                                                                                                                                                                                      
030300000017217610000000017218                                                                                                                                                                                                                                                                                                                                                                                                                                                                                                                                                                                                      
00000004201300046440000R000000005833B19157445 HENARES 69,SL                                          PZBEJANQUE                      3                  Guadalajara                        GUADALAJARA                        19   Guadalajara              ESP                                000000000000000000000000000000000     20130418        201306172013000000000000                    PZ/ BEJANQUE, N? 3, LC                            Periodo:000001 Consumo:                                               00000000                     0000000000000000000000000000                                                  
01000004000000046440000RAlta en el servicio de Agua/Alta de Oficio en Se  157000 15700  172700Contadores/Instalaci?n de precinto en Contador    339300 71300  410600                                                                                                                                                                                                                                                                                                                                                                                                                                                                
030300000000157010000000000157                                                                                                                                                                                                                                                                                                                                                                                                                                                                                                                                                                                                      
030300000000339321000000000713                                                                                                                                                                                                                                                                                                                                                                                                                                                                                                                                                                                                      
00000004201200000540000R000000288011P6920201H EXCM. AYTO. DE MARCHAMALO                              PZMAYOR                         1                  Guadalajara                        GUADALAJARA                        19   Guadalajara              ESP                                000000000000000000000000000000000     20120910        201211092012000000000000                    PZ/ MAYOR, N? 1                                   Periodo:000001 Consumo:                                               00000000                     0000000000000000000000000000                                                  
01000004000000000540000RServicio Depuraci?n Aguas Residuales /Canon CHT 2618280061830028801100                                                                                                                                                                                                                                                                                                                                                                                                                                                                                                                                      
030300000026182810000000026183                                                                                                                                                                                                                                                                                                                                                                                                                                                                                                                                                                                                      
00000004201200000550000R000000864032P6920201H EXCM. AYTO. DE MARCHAMALO                              PZMAYOR                         1                  Guadalajara                        GUADALAJARA                        19   Guadalajara              ESP                                000000000000000000000000000000000     20120910        201211092012000000000000                    PZ/ MAYOR, N? 1                                   Periodo:000001 Consumo:                                               00000000                     0000000000000000000000000000                                                  
01000004000000000550000RServicio Depuraci?n Aguas Residuales /Canon CHT 7854840085480086403200                                                                                                                                                                                                                                                                                                                                                                                                                                                                                                                                      
030300000078548410000000078548                                                                                                                                                                                                                                                                                                                                                                                                                                                                                                                                                                                                      
00000004201200000560000R000000884941P6920201H EXCM. AYTO. DE MARCHAMALO                              PZMAYOR                         1                  Guadalajara                        GUADALAJARA                        19   Guadalajara              ESP                                000000000000000000000000000000000     20120910        201211092012000000000000                    PZ/ MAYOR, N? 1                                   Periodo:000001 Consumo:                                               00000000                     0000000000000000000000000000                                                  
01000004000000000560000RServicio Depuraci?n Aguas Residuales /Canon CHT 8044920004490088494100                                                                                                                                                                                                                                                                                                                                                                                                                                                                                                                                      
030300000080449210000000080449                                                                                                                                                                                                                                                                                                                                                                                                                                                                                                                                                                                                      
00000004201200000570000R000000609430P6920201H EXCM. AYTO. DE MARCHAMALO                              PZMAYOR                         1                  Guadalajara                        GUADALAJARA                        19   Guadalajara              ESP                                000000000000000000000000000000000     20120910        201211092012000000000000                    PZ/ MAYOR, N? 1                                   Periodo:000001 Consumo:                                               00000000                     0000000000000000000000000000                                                  
01000004000000000570000RServicio Depuraci?n Aguas Residuales /Canon CHT 5540270054030060943000                                                                                                                                                                                                                                                                                                                                                                                                                                                                                                                                      
030300000055402710000000055403                                                                                                                                                                                                                                                                                                                                                                                                                                                                                                                                                                                                      
00000004201200000580000R000000076178P6920201H EXCM. AYTO. DE MARCHAMALO                              PZMAYOR                         1                  Guadalajara                        GUADALAJARA                        19   Guadalajara              ESP                                000000000000000000000000000000000     20120910        201211092012000000000000                    PZ/ MAYOR, N? 1                                   Periodo:000001 Consumo:                                               00000000                     0000000000000000000000000000                                                  
01000004000000000580000RServicio Depuraci?n Aguas Residuales /Canon CHT  6925300692500 7617800                                                                                                                                                                                                                                                                                                                                                                                                                                                                                                                                      
030300000006925310000000006925                                                                                                                                                                                                                                                                                                                                                                                                                                                                                                                                                                                                      
00000004201200000620000R000000076178P6920201H EXCM. AYTO. DE MARCHAMALO                              PZMAYOR                         1                  Guadalajara                        GUADALAJARA                        19   Guadalajara              ESP                                000000000000000000000000000000000     20121025        201212242012000000000000                    PZ/ MAYOR, N? 1                                   Periodo:000001 Consumo:                                               00000000                     0000000000000000000000000000                                                  
01000004000000000620000RServicio Depuraci?n Aguas Residuales /Canon CHT  6925300692500 7617800                                                                                                                                                                                                                                                                                                                                                                                                                                                                                                                                      
030300000006925310000000006925                                                                                                                                                                                                                                                                                                                                                                                                                                                                                                                                                                                                      
00000004201200000630000R000000076178P6920201H EXCM. AYTO. DE MARCHAMALO                              PZMAYOR                         1                  Guadalajara                        GUADALAJARA                        19   Guadalajara              ESP                                000000000000000000000000000000000     20121129        201301282012000000000000                    PZ/ MAYOR, N? 1                                   Periodo:000001 Consumo:                                               00000000                     0000000000000000000000000000                                                  
01000004000000000630000RServicio Depuraci?n Aguas Residuales /Canon CHT  6925300692500 7617800                                                                                                                                                                                                                                                                                                                                                                                                                                                                                                                                      
030300000006925310000000006925                                                                                                                                                                                                                                                                                                                                                                                                                                                                                                                                                                                                      
00000004201554003110000R000000003077A45421641 GESTION DE INFRAESTRUCTURAS DE                         CLJUAN BAUTISTA TOPETE          1                  Guadalajara                        GUADALAJARA                        19   Guadalajara              ESP                                000000000000000000000000000000000     20151030        201512292015000000000000                    CL/ JUAN BAUTISTA TOPETE, N? 1                    Periodo:000001 Consumo:                                               00000000                     0000000000000000000000000000                                                  
01000004000054003110000RAlta en el servicio de Agua/Alta en el servicio   287600 20100  307700                                                                                                                                                                                                                                                                                                                                                                                                                                                                                                                                      
030300000000287607000000000201                                                                                                                                                                                                                                                                                                                                                                                                                                                                                                                                                                                                      
00000004201000009350000R000000060203B19163468 REJAMA, SL                                             CLVIRGEN DE LA SOLEDAD          22                 Guadalajara                        GUADALAJARA                        19   Guadalajara              ESP                                000000000000000000000000000000000     20100714        201009122010000000000000                    CL/ VIRGEN DE LA SOLEDAD, N? 22, ABC, CONEXION NUEPeriodo:000001 Consumo:                                               00000000                     0000000000000000000000000000                                                  
01000004000000009350000RDerecho de acometida/Derecho de acometida secci? 5101400408100 5509500Alta en el servicio de Agua/Alta en el servicio   473000 37800  510800                                                                                                                                                                                                                                                                                                                                                                                                                                                                
030300000005101408000000004081                                                                                                                                                                                                                                                                                                                                                                                                                                                                                                                                                                                                      
030300000000473008000000000378                                                                                                                                                                                                                                                                                                                                                                                                                                                                                                                                                                                                      
00000004201000000220000R000000062206B19163468 REJAMA, SL                                             CLVIRGEN DE LA SOLEDAD          22                 Guadalajara                        GUADALAJARA                        19   Guadalajara              ESP                                000000000000000000000000000000000     20101217        201102152010000000000000                    CL/ VIRGEN DE LA SOLEDAD, N? 22, ABC, CONEXION NUEPeriodo:000001 Consumo:                                               00000000                     0000000000000000000000000000                                                  
01000004000000000220000RAdecuacion/Trabajos T?cnicos Adecuaci?n          5271700948900 6220600                                                                                                                                                                                                                                                                                                                                                                                                                                                                                                                                      
030300000005271718000000009489                                                                                                                                                                                                                                                                                                                                                                                                                                                                                                                                                                                                      
00000004201300050850000R00000019774000398899X LOPEZ RUIZ JESUS ANGEL                                 CLMAYOR                         9                  Guadalajara                        GUADALAJARA                        19   Guadalajara              ESP                                000000000000000000000000000000000     20130925        201311242013000000000000                    CL/ MAYOR, N? 9, 2?, DC, BIS-INTERIOR             Periodo:000001 Consumo:                                               00000000                     0000000000000000000000000000                                                  
01000004000000050850000RFraudes/Liquidaci?n de Fraude                   1797640079760019774000                                                                                                                                                                                                                                                                                                                                                                                                                                                                                                                                      
030300000017976410000000017976                                                                                                                                                                                                                                                                                                                                                                                                                                                                                                                                                                                                      
00000004201100000290000R000000062578A79524054 URBASER SA                                             CLFERIAL                        9999               Guadalajara                        GUADALAJARA                        19   Guadalajara              ESP                                000000000000000000000000000000000     20110225        201104262011000000000000                    CL/ FERIAL, N? 9999, aparcamiento                 Periodo:000001 Consumo:                                               00000000                     0000000000000000000000000000                                                  
01000004000000000290000RAdecuacion/Trabajos T?cnicos Adecuaci?n          5303200954600 6257800                                                                                                                                                                                                                                                                                                                                                                                                                                                                                                                                      
030300000005303218000000009546                                                                                                                                                                                                                                                                                                                                                                                                                                                                                                                                                                                                      
00000004201100000300000R000000095525A79524054 URBASER SA                                             CLFERIAL                        9999               Guadalajara                        GUADALAJARA                        19   Guadalajara              ESP                                000000000000000000000000000000000     20110225        201104262011000000000000                    CL/ FERIAL, N? 9999, aparcamiento                 Periodo:000001 Consumo:                                               00000000                     0000000000000000000000000000                                                  
01000004000000000300000RAdecuacion/Trabajos T?cnicos Adecuaci?n          8095300457200 9552500                                                                                                                                                                                                                                                                                                                                                                                                                                                                                                                                      
030300000008095318000000014572                                                                                                                                                                                                                                                                                                                                                                                                                                                                                                                                                                                                      
00000004201100000330000R00000019854613141203S ARROYO ORTEGA OSCAR FRANCISCO                          CLNORTE                         13                 Guadalajara                        GUADALAJARA                        19   Guadalajara              ESP                                000000000000000000000000000000000     20110412        201106112011000000000000                    CL/ NORTE, N? 13                                  Periodo:000001 Consumo:                                               00000000                     0000000000000000000000000000                                                  
01000004000000000330000RAdecuacion/Trabajos T?cnicos Adecuaci?n         1682590002870019854600                                                                                                                                                                                                                                                                                                                                                                                                                                                                                                                                      
030300000016825918000000030287                                                                                                                                                                                                                                                                                                                                                                                                                                                                                                                                                                                                      
00000004202140012000000R000007959923P1915500A AYUNTAMIENTO DE GUADALAJARA                            PZMAYOR                         7                  Guadalajara                        GUADALAJARA                        19   Guadalajara              ESP                                000000000000000000000000000000000     20210716        202109142021000000000000                    PZ/ MAYOR, N? 7, ayuntamiento Edif. Plaza Mayor   Periodo:000001 Consumo:                                               00000000                     0000000000000000000000000000                                                  
01000004000040012000000RTRABAJOS EXTRA POR TEMPORAL FILOMENA/TRABAJOS EX6632680092862885255428TRABAJO EXTRA PERSONAL TEMPORAL FILOMENA/TRABAJO10736900 0000010736900                                                                                                                                                                                                                                                                                                                                                                                                                                                                
030300000566326821000001189286                                                                                                                                                                                                                                                                                                                                                                                                                                                                                                                                                                                                      
030300000110736900000000000000                                                                                                                                                                                                                                                                                                                                                                                                                                                                                                                                                                                                      
00000004201200032980000R00000007250903097539Z SIMON GUIJARRO, ALFONSO                                CLPARRAS                        18                 Guadalajara                        GUADALAJARA                        19   Guadalajara              ESP                                000000000000000000000000000000000     20120402        201206012012000000000000                    CL/ PARRAS, N? 18                                 Periodo:000001 Consumo:                                               00000000                     0000000000000000000000000000                                                  
01000004000000032980000RFraudes/Liquidaci?n de Fraude                    6713800537100 7250900                                                                                                                                                                                                                                                                                                                                                                                                                                                                                                                                      
030300000006713808000000005371                                                                                                                                                                                                                                                                                                                                                                                                                                                                                                                                                                                                      
00000004201200032990000R00000004414803097539Z SIMON GUIJARRO, ALFONSO                                CLPARRAS                        18                 Guadalajara                        GUADALAJARA                        19   Guadalajara              ESP                                000000000000000000000000000000000     20120402        201206012012000000000000                    CL/ PARRAS, N? 18                                 Periodo:000001 Consumo:                                               00000000                     0000000000000000000000000000                                                  
01000004000000032990000RFraudes/Liquidaci?n de Fraude                    4087800327000 4414800                                                                                                                                                                                                                                                                                                                                                                                                                                                                                                                                      
030300000004087808000000003270                                                                                                                                                                                                                                                                                                                                                                                                                                                                                                                                                                                                      
00000004201200043000000R000000030531A46027660 SA AGRICULTORES DE LA VEGA DE                          PZTETUAN                        1                  VALENCIA                           VALENCIA                           46017VALENCIA                 ESP                                000000000000000000000000000000000     20121218        201302162012000000000000                    PZ/ TETUAN, N? 1                                  Periodo:000001 Consumo:                                               00000000                     0000000000000000000000000000                                                  
01000004000000043000000RReparaci?n de Redes/Salida Brigada               2056400431800 2488200Adecuacion/Adecuaci?n COAAT                       362600 76100  438700Adecuacion/Adecuaci?n MAT                         104300 21900  126200                                                                                                                                                                                                                                                                                                                                                                                          
030300000002056421000000004318                                                                                                                                                                                                                                                                                                                                                                                                                                                                                                                                                                                                      
030300000000362621000000000761                                                                                                                                                                                                                                                                                                                                                                                                                                                                                                                                                                                                      
030300000000104321000000000219                                                                                                                                                                                                                                                                                                                                                                                                                                                                                                                                                                                                      
00000004201300047470000R000000197740H19169820 CDAD PROP C/ LA BARCA, 7-9 Y 1                         CLBARCA, LA                     7                  Guadalajara                        GUADALAJARA                        19   Guadalajara              ESP                                000000000000000000000000000000000     20130511        201307102013000000000000                    CL/ BARCA, LA, N? 7, LIMPIEZA PORTALES            Periodo:000001 Consumo:                                               00000000                     0000000000000000000000000000                                                  
01000004000000047470000RFraudes/Liquidaci?n de Fraude                   1797640079760019774000                                                                                                                                                                                                                                                                                                                                                                                                                                                                                                                                      
030300000017976410000000017976                                                                                                                                                                                                                                                                                                                                                                                                                                                                                                                                                                                                      
00000004201200042540000R000000006372B19228972 PROMOCIONES ALVES-LOPEZ, SL                            CLGREGORIO SANZ                 10          01 A   Guadalajara                        GUADALAJARA                        19   Guadalajara              ESP                                000000000000000000000000000000000     20121212        201302102012000000000000                    CL/ GREGORIO SANZ, N? 10, Plt 01, Pta A           Periodo:000001 Consumo:                                               00000000                     0000000000000000000000000000                                                  
01000004000000042540000RAlta en el servicio de Agua/Alta en el servicio   206000 20600  226600Contadores/Instalaci?n de precinto en Contador    339300 71300  410600                                                                                                                                                                                                                                                                                                                                                                                                                                                                
030300000000206010000000000206                                                                                                                                                                                                                                                                                                                                                                                                                                                                                                                                                                                                      
030300000000339321000000000713                                                                                                                                                                                                                                                                                                                                                                                                                                                                                                                                                                                                      
00000004201200042550000R000000006372B19228972 PROMOCIONES ALVES-LOPEZ, SL                            CLGREGORIO SANZ                 10          01 B   Guadalajara                        GUADALAJARA                        19   Guadalajara              ESP                                000000000000000000000000000000000     20121212        201302102012000000000000                    CL/ GREGORIO SANZ, N? 10, Plt 01, Pta B           Periodo:000001 Consumo:                                               00000000                     0000000000000000000000000000                                                  
01000004000000042550000RAlta en el servicio de Agua/Alta en el servicio   206000 20600  226600Contadores/Instalaci?n de precinto en Contador    339300 71300  410600                                                                                                                                                                                                                                                                                                                                                                                                                                                                
030300000000206010000000000206                                                                                                                                                                                                                                                                                                                                                                                                                                                                                                                                                                                                      
030300000000339321000000000713                                                                                                                                                                                                                                                                                                                                                                                                                                                                                                                                                                                                      
00000004201200042560000R000000006372B19228972 PROMOCIONES ALVES-LOPEZ, SL                            CLGREGORIO SANZ                 10          01 C   Guadalajara                        GUADALAJARA                        19   Guadalajara              ESP                                000000000000000000000000000000000     20121212        201302102012000000000000                    CL/ GREGORIO SANZ, N? 10, Plt 01, Pta C           Periodo:000001 Consumo:                                               00000000                     0000000000000000000000000000                                                  
01000004000000042560000RAlta en el servicio de Agua/Alta en el servicio   206000 20600  226600Contadores/Instalaci?n de precinto en Contador    339300 71300  410600                                                                                                                                                                                                                                                                                                                                                                                                                                                                
030300000000206010000000000206                                                                                                                                                                                                                                                                                                                                                                                                                                                                                                                                                                                                      
030300000000339321000000000713                                                                                                                                                                                                                                                                                                                                                                                                                                                                                                                                                                                                      
00000004201200042570000R000000006372B19228972 PROMOCIONES ALVES-LOPEZ, SL                            CLGREGORIO SANZ                 10          LC 1   Guadalajara                        GUADALAJARA                        19   Guadalajara              ESP                                000000000000000000000000000000000     20121212        201302102012000000000000                    CL/ GREGORIO SANZ, N? 10, Plt LC, Pta 1           Periodo:000001 Consumo:                                               00000000                     0000000000000000000000000000                                                  
01000004000000042570000RAlta en el servicio de Agua/Alta en el servicio   206000 20600  226600Contadores/Instalaci?n de precinto en Contador    339300 71300  410600                                                                                                                                                                                                                                                                                                                                                                                                                                                                
030300000000206010000000000206                                                                                                                                                                                                                                                                                                                                                                                                                                                                                                                                                                                                      
030300000000339321000000000713                                                                                                                                                                                                                                                                                                                                                                                                                                                                                                                                                                                                      
00000004201200042580000R000000006372B19228972 PROMOCIONES ALVES-LOPEZ, SL                            CLGREGORIO SANZ                 10          LC     Guadalajara                        GUADALAJARA                        19   Guadalajara              ESP                                000000000000000000000000000000000     20121212        201302102012000000000000                    CL/ GREGORIO SANZ, N? 10, Plt LC                  Periodo:000001 Consumo:                                               00000000                     0000000000000000000000000000                                                  
01000004000000042580000RAlta en el servicio de Agua/Alta en el servicio   206000 20600  226600Contadores/Instalaci?n de precinto en Contador    339300 71300  410600                                                                                                                                                                                                                                                                                                                                                                                                                                                                
030300000000206010000000000206                                                                                                                                                                                                                                                                                                                                                                                                                                                                                                                                                                                                      
030300000000339321000000000713                                                                                                                                                                                                                                                                                                                                                                                                                                                                                                                                                                                                      
00000004201200036370000R000000018693B19217330 BENITO CAMARILLO, SL                                   AVGUADALAJARA                   32                 Guadalajara                        GUADALAJARA                        19   Guadalajara              ESP                                000000000000000000000000000000000     20120705        201209032012000000000000                    AV/ GUADALAJARA, N? 32, BAR                       Periodo:000001 Consumo:                                               00000000                     0000000000000000000000000000                                                  
01000004000000036370000RContadores/Instalaci?n contador Hasta 40mm inc.   309000 55600  364600Contadores/Contador - Clase C - 15mm             1275200229500 1504700                                                                                                                                                                                                                                                                                                                                                                                                                                                                
030300000000309018000000000556                                                                                                                                                                                                                                                                                                                                                                                                                                                                                                                                                                                                      
030300000001275218000000002295                                                                                                                                                                                                                                                                                                                                                                                                                                                                                                                                                                                                      
00000004201200036380000R000000006229B19217330 BENITO CAMARILLO, SL                                   AVGUADALAJARA                   32                 Guadalajara                        GUADALAJARA                        19   Guadalajara              ESP                                000000000000000000000000000000000     20120705        201209032012000000000000                    AV/ GUADALAJARA, N? 32, BAR                       Periodo:000001 Consumo:                                               00000000                     0000000000000000000000000000                                                  
01000004000000036380000RAlta en el servicio de Agua/Alta en el servicio   206000 16500  222500Contadores/Instalaci?n de precinto en Contador    339300 61100  400400                                                                                                                                                                                                                                                                                                                                                                                                                                                                
030300000000206008000000000165                                                                                                                                                                                                                                                                                                                                                                                                                                                                                                                                                                                                      
030300000000339318000000000611                                                                                                                                                                                                                                                                                                                                                                                                                                                                                                                                                                                                      
