00000004202201272560300R00000000423302926974V ROLDAN ALGORA GREGORIA                                 CLMADRID                        21                 Guadalajara                        GUADALAJARA                        19   Guadalajara              ESP                                000000000000000000000000000000000     20221107        202301092022000000000000                    CL/ MADRID, Nº 21                                 Periodo:202203 Consumo:10                                             00000000                     0000000000000000000000000000                                                  
01000004202201272560000RAgua/Domestico 13 (5 Bloq.)                        80200 08020   88220Mant. Contador/Domestico 13                        02400 00504   02904Alcantarillado/Doméstico 13 (5 Bloq.)              68000 06800   74800T.Fijo Agua Cdad./T.Fijo Agua Usuarios Cdad.      135000 13500  148500T.Fijo Alcant. Cdad./T.Fijo Alcant. Usuarios Cda   99000 09900  108900                                                                                                                                                                                                                                              
030100000000080210000000000080                                                                                                                                                                                                                                                                                                                                                                                                                                                                                                                                                                                                      
030200000000002421000000000005                                                                                                                                                                                                                                                                                                                                                                                                                                                                                                                                                                                                      
030300000000068010000000000068                                                                                                                                                                                                                                                                                                                                                                                                                                                                                                                                                                                                      
030300000000135010000000000135                                                                                                                                                                                                                                                                                                                                                                                                                                                                                                                                                                                                      
030300000000099010000000000099                                                                                                                                                                                                                                                                                                                                                                                                                                                                                                                                                                                                      
00000004202201217820300R000000000887B82761289 VISOVAL HISPANIA 2000 CONSTRUC                         CLSAN BERNARDO                  7                  Guadalajara                        GUADALAJARA                        19   Guadalajara              ESP                                000000000000000000000000000000000     20221107        202301092022000000000000                    CL/ SAN BERNARDO, Nº 7                            Periodo:202203 Consumo:0                                              00000000                     0000000000000000000000000000                                                  
01000004202201217820000RAgua/Domestico 13 (5 Bloq.)                        45000 04500   49500Mant. Contador/Domestico 13                        02400 00504   02904Alcantarillado/Doméstico 13 (5 Bloq.)              33000 03300   36300                                                                                                                                                                                                                                                                                                                                                                                          
030100000000045010000000000045                                                                                                                                                                                                                                                                                                                                                                                                                                                                                                                                                                                                      
030200000000002421000000000005                                                                                                                                                                                                                                                                                                                                                                                                                                                                                                                                                                                                      
030300000000033010000000000033                                                                                                                                                                                                                                                                                                                                                                                                                                                                                                                                                                                                      
00000004202201189470300R00000000363309001366V RINCON DEL RIO, PABLO                                  CTCALDERON                      5           01 B   Guadalajara                        GUADALAJARA                        19   Guadalajara              ESP                                000000000000000000000000000000000     20221107        202301092022000000000000                    CT/ CALDERON, Nº 5 , Plt 01 , Pta B               Periodo:202203 Consumo:14                                             00000000                     0000000000000000000000000000                                                  
01000004202201189470000RAgua/Domestico 20 (5 Bloq.)                       169400 16930  186330Mant. Contador/Domestico >13-25                    03300 00693   03993Alcantarillado/Doméstico 20 (5 Bloq.)             157300 15730  173030                                                                                                                                                                                                                                                                                                                                                                                          
030100000000169410000000000169                                                                                                                                                                                                                                                                                                                                                                                                                                                                                                                                                                                                      
030200000000003321000000000007                                                                                                                                                                                                                                                                                                                                                                                                                                                                                                                                                                                                      
030300000000157310000000000157                                                                                                                                                                                                                                                                                                                                                                                                                                                                                                                                                                                                      
00000004202201271000300R00000000088711410595L GOMEZ MOLANO MARTA                                     CLMERCED                        7     A     02 A   Guadalajara                        GUADALAJARA                        19   Guadalajara              ESP                                000000000000000000000000000000000     20221107        202301092022000000000000                    CL/ MERCED, Nº 7, Blq A, Plt 02, Pta A            Periodo:202203 Consumo:0                                              00000000                     0000000000000000000000000000                                                  
01000004202201271000000RAgua/Domestico 13 (5 Bloq.)                        45000 04500   49500Mant. Contador/Domestico 13                        02400 00504   02904Alcantarillado/Doméstico 13 (5 Bloq.)              33000 03300   36300                                                                                                                                                                                                                                                                                                                                                                                          
030100000000045010000000000045                                                                                                                                                                                                                                                                                                                                                                                                                                                                                                                                                                                                      
030200000000002421000000000005                                                                                                                                                                                                                                                                                                                                                                                                                                                                                                                                                                                                      
030300000000033010000000000033                                                                                                                                                                                                                                                                                                                                                                                                                                                                                                                                                                                                      
00000004202201199370300R00000000266351410157M MESIA MARTINEZ, CRISTIAN ALFON                         PZSAN ESTEBAN                   1                  Guadalajara                        GUADALAJARA                        19   Guadalajara              ESP                                000000000000000000000000000000000     20221107        202301092022000000000000                    PZ/ SAN ESTEBAN, Nº 1                             Periodo:202203 Consumo:0                                              00000000                     0000000000000000000000000000                                                  
01000004202201199370000RAgua/Industrial 20 (5 Bloq.)                      127400 12750  140150Mant. Contador/Industrial >13-25                   03300 00693   03993Alcantarillado/Industrial 20 (5 Bloq.)            111000 11100  122100                                                                                                                                                                                                                                                                                                                                                                                          
030100000000127410000000000128                                                                                                                                                                                                                                                                                                                                                                                                                                                                                                                                                                                                      
030200000000003321000000000007                                                                                                                                                                                                                                                                                                                                                                                                                                                                                                                                                                                                      
030300000000111010000000000111                                                                                                                                                                                                                                                                                                                                                                                                                                                                                                                                                                                                      
00000004202201359570300R000000001442B19188226 ABBITA ATOJA INMOBILIARIA SL                           CLSAN ROQUE                     1                  Guadalajara                        GUADALAJARA                        19   Guadalajara              ESP                                000000000000000000000000000000000     20221107        202301092022000000000000                    CL/ SAN ROQUE, Nº 1                               Periodo:202203 Consumo:0                                              00000000                     0000000000000000000000000000                                                  
01000004202201359570000RAgua/Industrial 20 (5 Bloq.)                      127400 12750  140150Mant. Contador/Industrial >13-25                   03300 00693   03993                                                                                                                                                                                                                                                                                                                                                                                                                                                                
030100000000127410000000000128                                                                                                                                                                                                                                                                                                                                                                                                                                                                                                                                                                                                      
030200000000003321000000000007                                                                                                                                                                                                                                                                                                                                                                                                                                                                                                                                                                                                      
00000004202201276400300R00000000250803064989D RIO DEL LUCAS DE RAMON                                 CLJOSE ANTONIO OCHAITA          34                 Guadalajara                        GUADALAJARA                        19   Guadalajara              ESP                                000000000000000000000000000000000     20221107        202301092022000000000000                    CL/ JOSE ANTONIO OCHAITA, Nº 34                   Periodo:202203 Consumo:21                                             00000000                     0000000000000000000000000000                                                  
01000004202201276400000RAgua/Domestico 13 (5 Bloq.)                       118800 11890  130690Mant. Contador/Domestico 13                        02400 00504   02904Alcantarillado/Doméstico 13 (5 Bloq.)             106500 10650  117150                                                                                                                                                                                                                                                                                                                                                                                          
030100000000118810000000000119                                                                                                                                                                                                                                                                                                                                                                                                                                                                                                                                                                                                      
030200000000002421000000000005                                                                                                                                                                                                                                                                                                                                                                                                                                                                                                                                                                                                      
030300000000106510000000000107                                                                                                                                                                                                                                                                                                                                                                                                                                                                                                                                                                                                      
00000004202201212210300R000000000920A19018092 COMPLEJO CONCORDIA SA                                  CLMARIA PACHECO                 58                 Guadalajara                        GUADALAJARA                        19   Guadalajara              ESP                                000000000000000000000000000000000     20221107        202301092022000000000000                    CL/ MARIA PACHECO, Nº 58                          Periodo:202203 Consumo:0                                              00000000                     0000000000000000000000000000                                                  
01000004202201212210000RAgua/Industrial 13 (5 Bloq.)                       42000 04200   46200Mant. Contador/Industrial 13                       02400 00504   02904Alcantarillado/Industrial 13 (5 Bloq.)             39000 03900   42900                                                                                                                                                                                                                                                                                                                                                                                          
030100000000042010000000000042                                                                                                                                                                                                                                                                                                                                                                                                                                                                                                                                                                                                      
030200000000002421000000000005                                                                                                                                                                                                                                                                                                                                                                                                                                                                                                                                                                                                      
030300000000039010000000000039                                                                                                                                                                                                                                                                                                                                                                                                                                                                                                                                                                                                      
00000004202201279440300R00000000258503104778P HERAS VALLADAR MARIA PEÑAHORA                          CLCAM. VIEJO CABANILLAS         28                 Guadalajara                        GUADALAJARA                        19   Guadalajara              ESP                                000000000000000000000000000000000     20221107        202301092022000000000000                    CL/ CAM. VIEJO CABANILLAS, Nº 28                  Periodo:202203 Consumo:22                                             00000000                     0000000000000000000000000000                                                  
01000004202201279440000RAgua/Domestico 13 (5 Bloq.)                       122400 12240  134640Mant. Contador/Domestico 13                        02400 00504   02904Alcantarillado/Doméstico 13 (5 Bloq.)             110000 11000  121000                                                                                                                                                                                                                                                                                                                                                                                          
030100000000122410000000000122                                                                                                                                                                                                                                                                                                                                                                                                                                                                                                                                                                                                      
030200000000002421000000000005                                                                                                                                                                                                                                                                                                                                                                                                                                                                                                                                                                                                      
030300000000110010000000000110                                                                                                                                                                                                                                                                                                                                                                                                                                                                                                                                                                                                      
00000004202201193530300R00000000324803009841S LOPEZ ALONSO, NATIVIDAD                                CLBARDALES                      4           LC     Guadalajara                        GUADALAJARA                        19   Guadalajara              ESP                                000000000000000000000000000000000     20221107        202301092022000000000000                    CL/ BARDALES, Nº 4 , Plt LC                       Periodo:202203 Consumo:23                                             00000000                     0000000000000000000000000000                                                  
01000004202201193530000RAgua/Industrial 13 (5 Bloq.)                      123000 12300  135300Mant. Contador/Industrial 13                       02400 00504   02904Alcantarillado/Industrial 13 (5 Bloq.)            169600 16960  186560                                                                                                                                                                                                                                                                                                                                                                                          
030100000000123010000000000123                                                                                                                                                                                                                                                                                                                                                                                                                                                                                                                                                                                                      
030200000000002421000000000005                                                                                                                                                                                                                                                                                                                                                                                                                                                                                                                                                                                                      
030300000000169610000000000170                                                                                                                                                                                                                                                                                                                                                                                                                                                                                                                                                                                                      
00000004202201193840300R00000000142708992641D BLANCO MORENO MANUEL                                   CLMAYOR                         7           02     Guadalajara                        GUADALAJARA                        19   Guadalajara              ESP                                000000000000000000000000000000000     20221107        202301092022000000000000                    CL/ MAYOR, Nº 7 , Plt 02                          Periodo:202203 Consumo:7                                              00000000                     0000000000000000000000000000                                                  
01000004202201193840000RAgua/Domestico 13 (5 Bloq.)                        69500 06960   76460Mant. Contador/Domestico 13                        02400 00504   02904Alcantarillado/Doméstico 13 (5 Bloq.)              57500 05750   63250                                                                                                                                                                                                                                                                                                                                                                                          
030100000000069510000000000070                                                                                                                                                                                                                                                                                                                                                                                                                                                                                                                                                                                                      
030200000000002421000000000005                                                                                                                                                                                                                                                                                                                                                                                                                                                                                                                                                                                                      
030300000000057510000000000058                                                                                                                                                                                                                                                                                                                                                                                                                                                                                                                                                                                                      
00000004202201304040300R00000000684503106540E MANZANO MERINO DOLORES                                 CLPICO OCEJON                   77                 Guadalajara                        GUADALAJARA                        19   Guadalajara              ESP                                000000000000000000000000000000000     20221107        202301092022000000000000                    CL/ PICO OCEJON, Nº 77                            Periodo:202203 Consumo:55                                             00000000                     0000000000000000000000000000                                                  
01000004202201304040000RAgua/Domestico 20 (5 Bloq.)                       317300 31720  349020Mant. Contador/Domestico >13-25                    03300 00693   03993Alcantarillado/Doméstico 20 (5 Bloq.)             301400 30140  331540                                                                                                                                                                                                                                                                                                                                                                                          
030100000000317310000000000317                                                                                                                                                                                                                                                                                                                                                                                                                                                                                                                                                                                                      
030200000000003321000000000007                                                                                                                                                                                                                                                                                                                                                                                                                                                                                                                                                                                                      
030300000000301410000000000301                                                                                                                                                                                                                                                                                                                                                                                                                                                                                                                                                                                                      
00000004202201231690300R000000000920B88178694 CORAL HOMES S.L.U.                                     CLMIGUEL FLUITERS               41                 Guadalajara                        GUADALAJARA                        19   Guadalajara              ESP                                000000000000000000000000000000000     20221107        202301092022000000000000                    CL/ MIGUEL FLUITERS, Nº 41                        Periodo:202203 Consumo:0                                              00000000                     0000000000000000000000000000                                                  
01000004202201231690000RAgua/Industrial 13 (5 Bloq.)                       42000 04200   46200Mant. Contador/Industrial 13                       02400 00504   02904Alcantarillado/Industrial 13 (5 Bloq.)             39000 03900   42900                                                                                                                                                                                                                                                                                                                                                                                          
030100000000042010000000000042                                                                                                                                                                                                                                                                                                                                                                                                                                                                                                                                                                                                      
030200000000002421000000000005                                                                                                                                                                                                                                                                                                                                                                                                                                                                                                                                                                                                      
030300000000039010000000000039                                                                                                                                                                                                                                                                                                                                                                                                                                                                                                                                                                                                      
00000004202201304060300R00000000479303096834E CASADO MARTINEZ JOSE LUIS                              CLPICO OCEJON                   81                 Guadalajara                        GUADALAJARA                        19   Guadalajara              ESP                                000000000000000000000000000000000     20221107        202301092022000000000000                    CL/ PICO OCEJON, Nº 81                            Periodo:202203 Consumo:29                                             00000000                     0000000000000000000000000000                                                  
01000004202201304060000RAgua/Domestico 20 (5 Bloq.)                       222300 22230  244530Mant. Contador/Domestico >13-25                    03300 00693   03993Alcantarillado/Doméstico 20 (5 Bloq.)             209800 20980  230780                                                                                                                                                                                                                                                                                                                                                                                          
030100000000222310000000000222                                                                                                                                                                                                                                                                                                                                                                                                                                                                                                                                                                                                      
030200000000003321000000000007                                                                                                                                                                                                                                                                                                                                                                                                                                                                                                                                                                                                      
030300000000209810000000000210                                                                                                                                                                                                                                                                                                                                                                                                                                                                                                                                                                                                      
00000004202201230960300R00000000203603079590M ORTEGA NOVA JOSE LUIS                                  CLMIGUEL FLUITERS               22                 Guadalajara                        GUADALAJARA                        19   Guadalajara              ESP                                000000000000000000000000000000000     20221107        202301092022000000000000                    CL/ MIGUEL FLUITERS, Nº 22                        Periodo:202203 Consumo:0                                              00000000                     0000000000000000000000000000                                                  
01000004202201230960000RAgua/Domestico 15 (5 Bloq.)                       100400 10050  110450Mant. Contador/Domestico >13-25                    03300 00693   03993Alcantarillado/Doméstico 15 (5 Bloq.)              81000 08100   89100                                                                                                                                                                                                                                                                                                                                                                                          
030100000000100410000000000101                                                                                                                                                                                                                                                                                                                                                                                                                                                                                                                                                                                                      
030200000000003321000000000007                                                                                                                                                                                                                                                                                                                                                                                                                                                                                                                                                                                                      
030300000000081010000000000081                                                                                                                                                                                                                                                                                                                                                                                                                                                                                                                                                                                                      
00000004202201201750300R000000003829A19152586 PROMOCIONES INMOBILIARIAS RUIZ                         CLARCIPRESTE DE HITA            6           BJ     Guadalajara                        GUADALAJARA                        19   Guadalajara              ESP                                000000000000000000000000000000000     20221107        202301092022000000000000                    CL/ ARCIPRESTE DE HITA, Nº 6 , Plt BJ             Periodo:202203 Consumo:1                                              00000000                     0000000000000000000000000000                                                  
01000004202201201750000RAgua/Domestico 15 (5 Bloq.)                       103900 10400  114300Mant. Contador/Domestico >13-25                    03300 00693   03993Alcantarillado/Doméstico 15 (5 Bloq.)              84500 08450   92950T.Fijo Agua Cdad./T.Fijo Agua Usuarios Cdad.       90000 09000   99000T.Fijo Alcant. Cdad./T.Fijo Alcant. Usuarios Cda   66000 06600   72600                                                                                                                                                                                                                                              
030100000000103910000000000104                                                                                                                                                                                                                                                                                                                                                                                                                                                                                                                                                                                                      
030200000000003321000000000007                                                                                                                                                                                                                                                                                                                                                                                                                                                                                                                                                                                                      
030300000000084510000000000085                                                                                                                                                                                                                                                                                                                                                                                                                                                                                                                                                                                                      
030300000000090010000000000090                                                                                                                                                                                                                                                                                                                                                                                                                                                                                                                                                                                                      
030300000000066010000000000066                                                                                                                                                                                                                                                                                                                                                                                                                                                                                                                                                                                                      
00000004202201357890300R00000000096402999562V BERMEJO VARAS BENEDICTA                                CLDOCTOR SERRANO                6     B     02     Guadalajara                        GUADALAJARA                        19   Guadalajara              ESP                                000000000000000000000000000000000     20221107        202301092022000000000000                    CL/ DOCTOR SERRANO, Nº 6 , Blq B , Plt 02         Periodo:202203 Consumo:1                                              00000000                     0000000000000000000000000000                                                  
01000004202201357890000RAgua/Domestico 13 (5 Bloq.)                        48400 04850   53250Mant. Contador/Domestico 13                        02400 00504   02904Alcantarillado/Doméstico 13 (5 Bloq.)              36500 03650   40150                                                                                                                                                                                                                                                                                                                                                                                          
030100000000048410000000000049                                                                                                                                                                                                                                                                                                                                                                                                                                                                                                                                                                                                      
030200000000002421000000000005                                                                                                                                                                                                                                                                                                                                                                                                                                                                                                                                                                                                      
030300000000036510000000000037                                                                                                                                                                                                                                                                                                                                                                                                                                                                                                                                                                                                      
00000004202201210650300R00000000092003127985P BLANCO ROMERO, ENCARNACION                             CLCARRERA, LA                   51          LC DC  Guadalajara                        GUADALAJARA                        19   Guadalajara              ESP                                000000000000000000000000000000000     20221107        202301092022000000000000                    CL/ CARRERA, LA, Nº 51, Plt LC , Pta DC , ANTES N.Periodo:202203 Consumo:0                                              00000000                     0000000000000000000000000000                                                  
01000004202201210650000RAgua/Industrial 13 (5 Bloq.)                       42000 04200   46200Mant. Contador/Industrial 13                       02400 00504   02904Alcantarillado/Industrial 13 (5 Bloq.)             39000 03900   42900                                                                                                                                                                                                                                                                                                                                                                                          
030100000000042010000000000042                                                                                                                                                                                                                                                                                                                                                                                                                                                                                                                                                                                                      
030200000000002421000000000005                                                                                                                                                                                                                                                                                                                                                                                                                                                                                                                                                                                                      
030300000000039010000000000039                                                                                                                                                                                                                                                                                                                                                                                                                                                                                                                                                                                                      
00000004202201394280300R00000001326903057499V GARCIA DEL VALLE AMPARO                                CLTOLEDO                        13                 Guadalajara                        GUADALAJARA                        19   Guadalajara              ESP                                000000000000000000000000000000000     20221107        202301092022000000000000                    CL/ TOLEDO, Nº 13                                 Periodo:202203 Consumo:108                                            00000000                     0000000000000000000000000000                                                  
01000004202201394280000RAgua/Domestico 40 (5 Bloq.)                       622600 62260  684860Mant. Contador/Domestico >30-40                    06600 01386   07986Alcantarillado/Doméstico 40 (5 Bloq.)             576400 57640  634040                                                                                                                                                                                                                                                                                                                                                                                          
030100000000622610000000000623                                                                                                                                                                                                                                                                                                                                                                                                                                                                                                                                                                                                      
030200000000006621000000000014                                                                                                                                                                                                                                                                                                                                                                                                                                                                                                                                                                                                      
030300000000576410000000000576                                                                                                                                                                                                                                                                                                                                                                                                                                                                                                                                                                                                      
00000004202201105380300R000000000887D00000502 GAMO MARTINEZ VIUDA DE FELIX                           CLCARRETERA DE FONTANAR         5                  Guadalajara                        GUADALAJARA                        19   Guadalajara              ESP                                000000000000000000000000000000000     20221107        202301092022000000000000                    CL/ CARRETERA DE FONTANAR, Nº 5                   Periodo:202203 Consumo:0                                              00000000                     0000000000000000000000000000                                                  
01000004202201105380000RAgua/Domestico 13 (5 Bloq.)                        45000 04500   49500Mant. Contador/Domestico 13                        02400 00504   02904Alcantarillado/Doméstico 13 (5 Bloq.)              33000 03300   36300                                                                                                                                                                                                                                                                                                                                                                                          
030100000000045010000000000045                                                                                                                                                                                                                                                                                                                                                                                                                                                                                                                                                                                                      
030200000000002421000000000005                                                                                                                                                                                                                                                                                                                                                                                                                                                                                                                                                                                                      
030300000000033010000000000033                                                                                                                                                                                                                                                                                                                                                                                                                                                                                                                                                                                                      
00000004202201191610300R000000002508X4856396S VOISON MARCELLINE SIMONE                               CLDOCTOR BENITO HERNANDO        12          02 DC  Guadalajara                        GUADALAJARA                        19   Guadalajara              ESP                                000000000000000000000000000000000     20221107        202301092022000000000000                    CL/ DOCTOR BENITO HERNANDO, Nº 12, Plt 02, Pta DC Periodo:202203 Consumo:21                                             00000000                     0000000000000000000000000000                                                  
01000004202201191610000RAgua/Domestico 13 (5 Bloq.)                       118800 11890  130690Mant. Contador/Domestico 13                        02400 00504   02904Alcantarillado/Doméstico 13 (5 Bloq.)             106500 10650  117150                                                                                                                                                                                                                                                                                                                                                                                          
030100000000118810000000000119                                                                                                                                                                                                                                                                                                                                                                                                                                                                                                                                                                                                      
030200000000002421000000000005                                                                                                                                                                                                                                                                                                                                                                                                                                                                                                                                                                                                      
030300000000106510000000000107                                                                                                                                                                                                                                                                                                                                                                                                                                                                                                                                                                                                      
00000004202201130650300R00000000923803451181P MENDOZA LATORRE, MARIANO                               CLCAÑAS, LAS                    60                 Guadalajara                        GUADALAJARA                        19   Guadalajara              ESP                                000000000000000000000000000000000     20221107        202301092022000000000000                    CL/ CAÑAS, LAS, Nº 60                             Periodo:202203 Consumo:82                                             00000000                     0000000000000000000000000000                                                  
01000004202201130650000RAgua/Domestico 20 (5 Bloq.)                       438000 43800  481800Mant. Contador/Domestico >13-25                    03300 00693   03993Alcantarillado/Doméstico 20 (5 Bloq.)             398200 39820  438020                                                                                                                                                                                                                                                                                                                                                                                          
030100000000438010000000000438                                                                                                                                                                                                                                                                                                                                                                                                                                                                                                                                                                                                      
030200000000003321000000000007                                                                                                                                                                                                                                                                                                                                                                                                                                                                                                                                                                                                      
030300000000398210000000000398                                                                                                                                                                                                                                                                                                                                                                                                                                                                                                                                                                                                      
00000004202201182480300R00000000122403057752V DOMINGUEZ GAMO, ALBERTO BRIGID                         CLINGENIERO MARIÑO              25                 Guadalajara                        GUADALAJARA                        19   Guadalajara              ESP                                000000000000000000000000000000000     20221107        202301092022000000000000                    CL/ INGENIERO MARIÑO, Nº 25                       Periodo:202203 Consumo:3                                              00000000                     0000000000000000000000000000                                                  
01000004202201182480000RAgua/Industrial 13 (5 Bloq.)                       52600 05260   57860Mant. Contador/Industrial 13                       02400 00504   02904Alcantarillado/Industrial 13 (5 Bloq.)             56000 05600   61600                                                                                                                                                                                                                                                                                                                                                                                          
030100000000052610000000000053                                                                                                                                                                                                                                                                                                                                                                                                                                                                                                                                                                                                      
030200000000002421000000000005                                                                                                                                                                                                                                                                                                                                                                                                                                                                                                                                                                                                      
030300000000056010000000000056                                                                                                                                                                                                                                                                                                                                                                                                                                                                                                                                                                                                      
00000004202201273270300R00000000096403060836L LOPEZ HERNANDO VICTOR                                  CLFRANCISCO ARITIO              15                 Guadalajara                        GUADALAJARA                        19   Guadalajara              ESP                                000000000000000000000000000000000     20221107        202301092022000000000000                    CL/ FRANCISCO ARITIO, Nº 15                       Periodo:202203 Consumo:1                                              00000000                     0000000000000000000000000000                                                  
01000004202201273270000RAgua/Domestico 13 (5 Bloq.)                        48400 04850   53250Mant. Contador/Domestico 13                        02400 00504   02904Alcantarillado/Doméstico 13 (5 Bloq.)              36500 03650   40150                                                                                                                                                                                                                                                                                                                                                                                          
030100000000048410000000000049                                                                                                                                                                                                                                                                                                                                                                                                                                                                                                                                                                                                      
030200000000002421000000000005                                                                                                                                                                                                                                                                                                                                                                                                                                                                                                                                                                                                      
030300000000036510000000000037                                                                                                                                                                                                                                                                                                                                                                                                                                                                                                                                                                                                      
00000004202201085120300R00000000538303106728A DOMBRIZ DIONISIO MARIA YOLANDA                         CLBARCA, LA                     9           01 A   Guadalajara                        GUADALAJARA                        19   Guadalajara              ESP                                000000000000000000000000000000000     20221107        202301092022000000000000                    CL/ BARCA, LA, Nº 9 , Plt 01 , Pta A              Periodo:202203 Consumo:43                                             00000000                     0000000000000000000000000000                                                  
01000004202201085120000RAgua/Domestico 15 (5 Bloq.)                       253900 25390  279290Mant. Contador/Domestico >13-25                    03300 00693   03993Alcantarillado/Doméstico 15 (5 Bloq.)             231800 23180  254980                                                                                                                                                                                                                                                                                                                                                                                          
030100000000253910000000000254                                                                                                                                                                                                                                                                                                                                                                                                                                                                                                                                                                                                      
030200000000003321000000000007                                                                                                                                                                                                                                                                                                                                                                                                                                                                                                                                                                                                      
030300000000231810000000000232                                                                                                                                                                                                                                                                                                                                                                                                                                                                                                                                                                                                      
00000004202201085730300R00000000396751870687Y CLEMENTE BRAVO EMILIA MARGARIT                         CLBARCA, LA                     3           04 C   Guadalajara                        GUADALAJARA                        19   Guadalajara              ESP                                000000000000000000000000000000000     20221107        202301092022000000000000                    CL/ BARCA, LA, Nº 3 , Plt 04 , Pta C              Periodo:202203 Consumo:25                                             00000000                     0000000000000000000000000000                                                  
01000004202201085730000RAgua/Domestico 15 (5 Bloq.)                       188400 18850  207250Mant. Contador/Domestico >13-25                    03300 00693   03993Alcantarillado/Doméstico 15 (5 Bloq.)             168500 16850  185350                                                                                                                                                                                                                                                                                                                                                                                          
030100000000188410000000000189                                                                                                                                                                                                                                                                                                                                                                                                                                                                                                                                                                                                      
030200000000003321000000000007                                                                                                                                                                                                                                                                                                                                                                                                                                                                                                                                                                                                      
030300000000168510000000000169                                                                                                                                                                                                                                                                                                                                                                                                                                                                                                                                                                                                      
00000004202201216500300R00000001176203074078J PEREZ GARCIA MARIA CONCEPCION                          CLTORREON DEL ALAMIN            3                  Guadalajara                        GUADALAJARA                        19   Guadalajara              ESP                                000000000000000000000000000000000     20221107        202301092022000000000000                    CL/ TORREON DEL ALAMIN, Nº 3                      Periodo:202203 Consumo:125                                            00000000                     0000000000000000000000000000                                                  
01000004202201216500000RAgua/Domestico 13 (5 Bloq.)                       582900 58290  641190Mant. Contador/Domestico 13                        02400 00504   02904Alcantarillado/Doméstico 13 (5 Bloq.)             483700 48370  532070                                                                                                                                                                                                                                                                                                                                                                                          
030100000000582910000000000583                                                                                                                                                                                                                                                                                                                                                                                                                                                                                                                                                                                                      
030200000000002421000000000005                                                                                                                                                                                                                                                                                                                                                                                                                                                                                                                                                                                                      
030300000000483710000000000484                                                                                                                                                                                                                                                                                                                                                                                                                                                                                                                                                                                                      
00000004202201103000300R00000000258503109305G AYUSO APARICIO CARLOS                                  CLSORIA                         5           04 14  Guadalajara                        GUADALAJARA                        19   Guadalajara              ESP                                000000000000000000000000000000000     20221107        202301092022000000000000                    CL/ SORIA, Nº 5 , Plt 04 , Pta 14                 Periodo:202203 Consumo:22                                             00000000                     0000000000000000000000000000                                                  
01000004202201103000000RAgua/Domestico 13 (5 Bloq.)                       122400 12240  134640Mant. Contador/Domestico 13                        02400 00504   02904Alcantarillado/Doméstico 13 (5 Bloq.)             110000 11000  121000                                                                                                                                                                                                                                                                                                                                                                                          
030100000000122410000000000122                                                                                                                                                                                                                                                                                                                                                                                                                                                                                                                                                                                                      
030200000000002421000000000005                                                                                                                                                                                                                                                                                                                                                                                                                                                                                                                                                                                                      
030300000000110010000000000110                                                                                                                                                                                                                                                                                                                                                                                                                                                                                                                                                                                                      
00000004202201076650300R00000000319503126523H POVES REY CARLOS                                       AVSALINERA                      6     M     04 B   Guadalajara                        GUADALAJARA                        19   Guadalajara              ESP                                000000000000000000000000000000000     20221107        202301092022000000000000                    AV/ SALINERA, Nº 6 , Blq M , Plt 04 , Pta B       Periodo:202203 Consumo:15                                             00000000                     0000000000000000000000000000                                                  
01000004202201076650000RAgua/Domestico 15 (5 Bloq.)                       153300 15330  168630Mant. Contador/Domestico >13-25                    03300 00693   03993Alcantarillado/Doméstico 15 (5 Bloq.)             133500 13350  146850                                                                                                                                                                                                                                                                                                                                                                                          
030100000000153310000000000153                                                                                                                                                                                                                                                                                                                                                                                                                                                                                                                                                                                                      
030200000000003321000000000007                                                                                                                                                                                                                                                                                                                                                                                                                                                                                                                                                                                                      
030300000000133510000000000134                                                                                                                                                                                                                                                                                                                                                                                                                                                                                                                                                                                                      
00000004202201088370300R00000000319503099379Z SANCHEZ ARROYO JAIME                                   AVALCORLO                       8           01 A   Guadalajara                        GUADALAJARA                        19   Guadalajara              ESP                                000000000000000000000000000000000     20221107        202301092022000000000000                    AV/ ALCORLO, Nº 8, Plt 01, Pta A                  Periodo:202203 Consumo:15                                             00000000                     0000000000000000000000000000                                                  
01000004202201088370000RAgua/Domestico 15 (5 Bloq.)                       153300 15330  168630Mant. Contador/Domestico >13-25                    03300 00693   03993Alcantarillado/Doméstico 15 (5 Bloq.)             133500 13350  146850                                                                                                                                                                                                                                                                                                                                                                                          
030100000000153310000000000153                                                                                                                                                                                                                                                                                                                                                                                                                                                                                                                                                                                                      
030200000000003321000000000007                                                                                                                                                                                                                                                                                                                                                                                                                                                                                                                                                                                                      
030300000000133510000000000134                                                                                                                                                                                                                                                                                                                                                                                                                                                                                                                                                                                                      
00000004202201099070300R00000000250809018818N HUALDA SANCHEZ ALBERTO                                 CLZAMORA                        1           01 34  Guadalajara                        GUADALAJARA                        19   Guadalajara              ESP                                000000000000000000000000000000000     20221107        202301092022000000000000                    CL/ ZAMORA, Nº 1 , Plt 01 , Pta 34                Periodo:202203 Consumo:21                                             00000000                     0000000000000000000000000000                                                  
01000004202201099070000RAgua/Domestico 13 (5 Bloq.)                       118800 11890  130690Mant. Contador/Domestico 13                        02400 00504   02904Alcantarillado/Doméstico 13 (5 Bloq.)             106500 10650  117150                                                                                                                                                                                                                                                                                                                                                                                          
030100000000118810000000000119                                                                                                                                                                                                                                                                                                                                                                                                                                                                                                                                                                                                      
030200000000002421000000000005                                                                                                                                                                                                                                                                                                                                                                                                                                                                                                                                                                                                      
030300000000106510000000000107                                                                                                                                                                                                                                                                                                                                                                                                                                                                                                                                                                                                      
00000004202201076310300R00000000389003103285X REDONDO SOLIS MIGUEL ANGEL                             AVSALINERA                      6     J     01 B   Guadalajara                        GUADALAJARA                        19   Guadalajara              ESP                                000000000000000000000000000000000     20221107        202301092022000000000000                    AV/ SALINERA, Nº 6 , Blq J , Plt 01 , Pta B       Periodo:202203 Consumo:24                                             00000000                     0000000000000000000000000000                                                  
01000004202201076310000RAgua/Domestico 15 (5 Bloq.)                       185000 18500  203500Mant. Contador/Domestico >13-25                    03300 00693   03993Alcantarillado/Doméstico 15 (5 Bloq.)             165000 16500  181500                                                                                                                                                                                                                                                                                                                                                                                          
030100000000185010000000000185                                                                                                                                                                                                                                                                                                                                                                                                                                                                                                                                                                                                      
030200000000003321000000000007                                                                                                                                                                                                                                                                                                                                                                                                                                                                                                                                                                                                      
030300000000165010000000000165                                                                                                                                                                                                                                                                                                                                                                                                                                                                                                                                                                                                      
